{
	"holaMundoDinamico.sol": {
		"holaMundoDinamico": {
			"abi": [
				{
					"inputs": [],
					"name": "correoElect",
					"outputs": [
						{
							"internalType": "string",
							"name": "",
							"type": "string"
						}
					],
					"stateMutability": "view",
					"type": "function"
				},
				{
					"inputs": [
						{
							"internalType": "string",
							"name": "correoNuevo",
							"type": "string"
						}
					],
					"name": "guardarCorreo",
					"outputs": [],
					"stateMutability": "nonpayable",
					"type": "function"
				},
				{
					"inputs": [
						{
							"internalType": "string",
							"name": "nombreNuevo",
							"type": "string"
						}
					],
					"name": "guardarNombre",
					"outputs": [],
					"stateMutability": "nonpayable",
					"type": "function"
				},
				{
					"inputs": [
						{
							"internalType": "int256",
							"name": "numNuevo",
							"type": "int256"
						}
					],
					"name": "guardarNum",
					"outputs": [],
					"stateMutability": "nonpayable",
					"type": "function"
				},
				{
					"inputs": [
						{
							"internalType": "string",
							"name": "nuevoSaludo",
							"type": "string"
						}
					],
					"name": "guardarSaludo",
					"outputs": [],
					"stateMutability": "nonpayable",
					"type": "function"
				},
				{
					"inputs": [],
					"name": "leerSaludo",
					"outputs": [
						{
							"internalType": "string",
							"name": "",
							"type": "string"
						}
					],
					"stateMutability": "view",
					"type": "function"
				},
				{
					"inputs": [],
					"name": "nombreCompleto",
					"outputs": [
						{
							"internalType": "string",
							"name": "",
							"type": "string"
						}
					],
					"stateMutability": "view",
					"type": "function"
				},
				{
					"inputs": [],
					"name": "numCelular",
					"outputs": [
						{
							"internalType": "int256",
							"name": "",
							"type": "int256"
						}
					],
					"stateMutability": "view",
					"type": "function"
				},
				{
					"inputs": [],
					"name": "saludoEstatico",
					"outputs": [
						{
							"internalType": "string",
							"name": "",
							"type": "string"
						}
					],
					"stateMutability": "view",
					"type": "function"
				}
			],
			"devdoc": {
				"kind": "dev",
				"methods": {},
				"version": 1
			},
			"evm": {
				"assembly": "    /* \"holaMundoDinamico.sol\":90:1361  contract holaMundoDinamico {... */\n  mstore(0x40, 0x80)\n    /* \"holaMundoDinamico.sol\":124:155  string saludo = \"Hola Dinamico\" */\n  mload(0x40)\n  dup1\n  0x40\n  add\n  0x40\n  mstore\n  dup1\n  0x0d\n  dup2\n  mstore\n  0x20\n  add\n  0x486f6c612044696e616d69636f00000000000000000000000000000000000000\n  dup2\n  mstore\n  pop\n  0x00\n  swap1\n  dup2\n  tag_1\n  swap2\n  swap1\n  tag_2\n  jump\t// in\ntag_1:\n  pop\n    /* \"holaMundoDinamico.sol\":184:230  string public saludoEstatico = \"Hola Estatico\" */\n  mload(0x40)\n  dup1\n  0x40\n  add\n  0x40\n  mstore\n  dup1\n  0x0d\n  dup2\n  mstore\n  0x20\n  add\n  0x486f6c6120457374617469636f00000000000000000000000000000000000000\n  dup2\n  mstore\n  pop\n  0x01\n  swap1\n  dup2\n  tag_3\n  swap2\n  swap1\n  tag_2\n  jump\t// in\ntag_3:\n  pop\n    /* \"holaMundoDinamico.sol\":257:280  string  nombre = \"Juan\" */\n  mload(0x40)\n  dup1\n  0x40\n  add\n  0x40\n  mstore\n  dup1\n  0x04\n  dup2\n  mstore\n  0x20\n  add\n  0x4a75616e00000000000000000000000000000000000000000000000000000000\n  dup2\n  mstore\n  pop\n  0x02\n  swap1\n  dup2\n  tag_4\n  swap2\n  swap1\n  tag_2\n  jump\t// in\ntag_4:\n  pop\n    /* \"holaMundoDinamico.sol\":287:320  string  correo = \"Juan@gmail.com\" */\n  mload(0x40)\n  dup1\n  0x40\n  add\n  0x40\n  mstore\n  dup1\n  0x0e\n  dup2\n  mstore\n  0x20\n  add\n  0x4a75616e40676d61696c2e636f6d000000000000000000000000000000000000\n  dup2\n  mstore\n  pop\n  0x03\n  swap1\n  dup2\n  tag_5\n  swap2\n  swap1\n  tag_2\n  jump\t// in\ntag_5:\n  pop\n    /* \"holaMundoDinamico.sol\":341:346  18520 */\n  0x4858\n    /* \"holaMundoDinamico.sol\":327:346  int256  cel = 18520 */\n  0x04\n  sstore\n    /* \"holaMundoDinamico.sol\":90:1361  contract holaMundoDinamico {... */\n  callvalue\n  dup1\n  iszero\n  tag_6\n  jumpi\n  0x00\n  dup1\n  revert\ntag_6:\n  pop\n  jump(tag_7)\n    /* \"#utility.yul\":7:106   */\ntag_8:\n    /* \"#utility.yul\":59:65   */\n  0x00\n    /* \"#utility.yul\":93:98   */\n  dup2\n    /* \"#utility.yul\":87:99   */\n  mload\n    /* \"#utility.yul\":77:99   */\n  swap1\n  pop\n    /* \"#utility.yul\":7:106   */\n  swap2\n  swap1\n  pop\n  jump\t// out\n    /* \"#utility.yul\":112:292   */\ntag_9:\n    /* \"#utility.yul\":160:237   */\n  0x4e487b7100000000000000000000000000000000000000000000000000000000\n    /* \"#utility.yul\":157:158   */\n  0x00\n    /* \"#utility.yul\":150:238   */\n  mstore\n    /* \"#utility.yul\":257:261   */\n  0x41\n    /* \"#utility.yul\":254:255   */\n  0x04\n    /* \"#utility.yul\":247:262   */\n  mstore\n    /* \"#utility.yul\":281:285   */\n  0x24\n    /* \"#utility.yul\":278:279   */\n  0x00\n    /* \"#utility.yul\":271:286   */\n  revert\n    /* \"#utility.yul\":298:478   */\ntag_10:\n    /* \"#utility.yul\":346:423   */\n  0x4e487b7100000000000000000000000000000000000000000000000000000000\n    /* \"#utility.yul\":343:344   */\n  0x00\n    /* \"#utility.yul\":336:424   */\n  mstore\n    /* \"#utility.yul\":443:447   */\n  0x22\n    /* \"#utility.yul\":440:441   */\n  0x04\n    /* \"#utility.yul\":433:448   */\n  mstore\n    /* \"#utility.yul\":467:471   */\n  0x24\n    /* \"#utility.yul\":464:465   */\n  0x00\n    /* \"#utility.yul\":457:472   */\n  revert\n    /* \"#utility.yul\":484:804   */\ntag_11:\n    /* \"#utility.yul\":528:534   */\n  0x00\n    /* \"#utility.yul\":565:566   */\n  0x02\n    /* \"#utility.yul\":559:563   */\n  dup3\n    /* \"#utility.yul\":555:567   */\n  div\n    /* \"#utility.yul\":545:567   */\n  swap1\n  pop\n    /* \"#utility.yul\":612:613   */\n  0x01\n    /* \"#utility.yul\":606:610   */\n  dup3\n    /* \"#utility.yul\":602:614   */\n  and\n    /* \"#utility.yul\":633:651   */\n  dup1\n    /* \"#utility.yul\":623:704   */\n  tag_33\n  jumpi\n    /* \"#utility.yul\":689:693   */\n  0x7f\n    /* \"#utility.yul\":681:687   */\n  dup3\n    /* \"#utility.yul\":677:694   */\n  and\n    /* \"#utility.yul\":667:694   */\n  swap2\n  pop\n    /* \"#utility.yul\":623:704   */\ntag_33:\n    /* \"#utility.yul\":751:753   */\n  0x20\n    /* \"#utility.yul\":743:749   */\n  dup3\n    /* \"#utility.yul\":740:754   */\n  lt\n    /* \"#utility.yul\":720:738   */\n  dup2\n    /* \"#utility.yul\":717:755   */\n  sub\n    /* \"#utility.yul\":714:798   */\n  tag_34\n  jumpi\n    /* \"#utility.yul\":770:788   */\n  tag_35\n  tag_10\n  jump\t// in\ntag_35:\n    /* \"#utility.yul\":714:798   */\ntag_34:\n    /* \"#utility.yul\":535:804   */\n  pop\n    /* \"#utility.yul\":484:804   */\n  swap2\n  swap1\n  pop\n  jump\t// out\n    /* \"#utility.yul\":810:951   */\ntag_12:\n    /* \"#utility.yul\":859:863   */\n  0x00\n    /* \"#utility.yul\":882:885   */\n  dup2\n    /* \"#utility.yul\":874:885   */\n  swap1\n  pop\n    /* \"#utility.yul\":905:908   */\n  dup2\n    /* \"#utility.yul\":902:903   */\n  0x00\n    /* \"#utility.yul\":895:909   */\n  mstore\n    /* \"#utility.yul\":939:943   */\n  0x20\n    /* \"#utility.yul\":936:937   */\n  0x00\n    /* \"#utility.yul\":926:944   */\n  keccak256\n    /* \"#utility.yul\":918:944   */\n  swap1\n  pop\n    /* \"#utility.yul\":810:951   */\n  swap2\n  swap1\n  pop\n  jump\t// out\n    /* \"#utility.yul\":957:1050   */\ntag_13:\n    /* \"#utility.yul\":994:1000   */\n  0x00\n    /* \"#utility.yul\":1041:1043   */\n  0x20\n    /* \"#utility.yul\":1036:1038   */\n  0x1f\n    /* \"#utility.yul\":1029:1034   */\n  dup4\n    /* \"#utility.yul\":1025:1039   */\n  add\n    /* \"#utility.yul\":1021:1044   */\n  div\n    /* \"#utility.yul\":1011:1044   */\n  swap1\n  pop\n    /* \"#utility.yul\":957:1050   */\n  swap2\n  swap1\n  pop\n  jump\t// out\n    /* \"#utility.yul\":1056:1163   */\ntag_14:\n    /* \"#utility.yul\":1100:1108   */\n  0x00\n    /* \"#utility.yul\":1150:1155   */\n  dup3\n    /* \"#utility.yul\":1144:1148   */\n  dup3\n    /* \"#utility.yul\":1140:1156   */\n  shl\n    /* \"#utility.yul\":1119:1156   */\n  swap1\n  pop\n    /* \"#utility.yul\":1056:1163   */\n  swap3\n  swap2\n  pop\n  pop\n  jump\t// out\n    /* \"#utility.yul\":1169:1562   */\ntag_15:\n    /* \"#utility.yul\":1238:1244   */\n  0x00\n    /* \"#utility.yul\":1288:1289   */\n  0x08\n    /* \"#utility.yul\":1276:1286   */\n  dup4\n    /* \"#utility.yul\":1272:1290   */\n  mul\n    /* \"#utility.yul\":1311:1408   */\n  tag_40\n    /* \"#utility.yul\":1341:1407   */\n  0xffffffffffffffffffffffffffffffffffffffffffffffffffffffffffffffff\n    /* \"#utility.yul\":1330:1339   */\n  dup3\n    /* \"#utility.yul\":1311:1408   */\n  tag_14\n  jump\t// in\ntag_40:\n    /* \"#utility.yul\":1429:1468   */\n  tag_41\n    /* \"#utility.yul\":1459:1467   */\n  dup7\n    /* \"#utility.yul\":1448:1457   */\n  dup4\n    /* \"#utility.yul\":1429:1468   */\n  tag_14\n  jump\t// in\ntag_41:\n    /* \"#utility.yul\":1417:1468   */\n  swap6\n  pop\n    /* \"#utility.yul\":1501:1505   */\n  dup1\n    /* \"#utility.yul\":1497:1506   */\n  not\n    /* \"#utility.yul\":1490:1495   */\n  dup5\n    /* \"#utility.yul\":1486:1507   */\n  and\n    /* \"#utility.yul\":1477:1507   */\n  swap4\n  pop\n    /* \"#utility.yul\":1550:1554   */\n  dup1\n    /* \"#utility.yul\":1540:1548   */\n  dup7\n    /* \"#utility.yul\":1536:1555   */\n  and\n    /* \"#utility.yul\":1529:1534   */\n  dup5\n    /* \"#utility.yul\":1526:1556   */\n  or\n    /* \"#utility.yul\":1516:1556   */\n  swap3\n  pop\n    /* \"#utility.yul\":1245:1562   */\n  pop\n  pop\n    /* \"#utility.yul\":1169:1562   */\n  swap4\n  swap3\n  pop\n  pop\n  pop\n  jump\t// out\n    /* \"#utility.yul\":1568:1645   */\ntag_16:\n    /* \"#utility.yul\":1605:1612   */\n  0x00\n    /* \"#utility.yul\":1634:1639   */\n  dup2\n    /* \"#utility.yul\":1623:1639   */\n  swap1\n  pop\n    /* \"#utility.yul\":1568:1645   */\n  swap2\n  swap1\n  pop\n  jump\t// out\n    /* \"#utility.yul\":1651:1711   */\ntag_17:\n    /* \"#utility.yul\":1679:1682   */\n  0x00\n    /* \"#utility.yul\":1700:1705   */\n  dup2\n    /* \"#utility.yul\":1693:1705   */\n  swap1\n  pop\n    /* \"#utility.yul\":1651:1711   */\n  swap2\n  swap1\n  pop\n  jump\t// out\n    /* \"#utility.yul\":1717:1859   */\ntag_18:\n    /* \"#utility.yul\":1767:1776   */\n  0x00\n    /* \"#utility.yul\":1800:1853   */\n  tag_45\n    /* \"#utility.yul\":1818:1852   */\n  tag_46\n    /* \"#utility.yul\":1827:1851   */\n  tag_47\n    /* \"#utility.yul\":1845:1850   */\n  dup5\n    /* \"#utility.yul\":1827:1851   */\n  tag_16\n  jump\t// in\ntag_47:\n    /* \"#utility.yul\":1818:1852   */\n  tag_17\n  jump\t// in\ntag_46:\n    /* \"#utility.yul\":1800:1853   */\n  tag_16\n  jump\t// in\ntag_45:\n    /* \"#utility.yul\":1787:1853   */\n  swap1\n  pop\n    /* \"#utility.yul\":1717:1859   */\n  swap2\n  swap1\n  pop\n  jump\t// out\n    /* \"#utility.yul\":1865:1940   */\ntag_19:\n    /* \"#utility.yul\":1908:1911   */\n  0x00\n    /* \"#utility.yul\":1929:1934   */\n  dup2\n    /* \"#utility.yul\":1922:1934   */\n  swap1\n  pop\n    /* \"#utility.yul\":1865:1940   */\n  swap2\n  swap1\n  pop\n  jump\t// out\n    /* \"#utility.yul\":1946:2215   */\ntag_20:\n    /* \"#utility.yul\":2056:2095   */\n  tag_50\n    /* \"#utility.yul\":2087:2094   */\n  dup4\n    /* \"#utility.yul\":2056:2095   */\n  tag_18\n  jump\t// in\ntag_50:\n    /* \"#utility.yul\":2117:2208   */\n  tag_51\n    /* \"#utility.yul\":2166:2207   */\n  tag_52\n    /* \"#utility.yul\":2190:2206   */\n  dup3\n    /* \"#utility.yul\":2166:2207   */\n  tag_19\n  jump\t// in\ntag_52:\n    /* \"#utility.yul\":2158:2164   */\n  dup5\n    /* \"#utility.yul\":2151:2155   */\n  dup5\n    /* \"#utility.yul\":2145:2156   */\n  sload\n    /* \"#utility.yul\":2117:2208   */\n  tag_15\n  jump\t// in\ntag_51:\n    /* \"#utility.yul\":2111:2115   */\n  dup3\n    /* \"#utility.yul\":2104:2209   */\n  sstore\n    /* \"#utility.yul\":2022:2215   */\n  pop\n    /* \"#utility.yul\":1946:2215   */\n  pop\n  pop\n  pop\n  jump\t// out\n    /* \"#utility.yul\":2221:2294   */\ntag_21:\n    /* \"#utility.yul\":2266:2269   */\n  0x00\n    /* \"#utility.yul\":2221:2294   */\n  swap1\n  jump\t// out\n    /* \"#utility.yul\":2300:2489   */\ntag_22:\n    /* \"#utility.yul\":2377:2409   */\n  tag_55\n  tag_21\n  jump\t// in\ntag_55:\n    /* \"#utility.yul\":2418:2483   */\n  tag_56\n    /* \"#utility.yul\":2476:2482   */\n  dup2\n    /* \"#utility.yul\":2468:2474   */\n  dup5\n    /* \"#utility.yul\":2462:2466   */\n  dup5\n    /* \"#utility.yul\":2418:2483   */\n  tag_20\n  jump\t// in\ntag_56:\n    /* \"#utility.yul\":2353:2489   */\n  pop\n    /* \"#utility.yul\":2300:2489   */\n  pop\n  pop\n  jump\t// out\n    /* \"#utility.yul\":2495:2681   */\ntag_23:\n    /* \"#utility.yul\":2555:2675   */\ntag_58:\n    /* \"#utility.yul\":2572:2575   */\n  dup2\n    /* \"#utility.yul\":2565:2570   */\n  dup2\n    /* \"#utility.yul\":2562:2576   */\n  lt\n    /* \"#utility.yul\":2555:2675   */\n  iszero\n  tag_60\n  jumpi\n    /* \"#utility.yul\":2626:2665   */\n  tag_61\n    /* \"#utility.yul\":2663:2664   */\n  0x00\n    /* \"#utility.yul\":2656:2661   */\n  dup3\n    /* \"#utility.yul\":2626:2665   */\n  tag_22\n  jump\t// in\ntag_61:\n    /* \"#utility.yul\":2599:2600   */\n  0x01\n    /* \"#utility.yul\":2592:2597   */\n  dup2\n    /* \"#utility.yul\":2588:2601   */\n  add\n    /* \"#utility.yul\":2579:2601   */\n  swap1\n  pop\n    /* \"#utility.yul\":2555:2675   */\n  jump(tag_58)\ntag_60:\n    /* \"#utility.yul\":2495:2681   */\n  pop\n  pop\n  jump\t// out\n    /* \"#utility.yul\":2687:3230   */\ntag_24:\n    /* \"#utility.yul\":2788:2790   */\n  0x1f\n    /* \"#utility.yul\":2783:2786   */\n  dup3\n    /* \"#utility.yul\":2780:2791   */\n  gt\n    /* \"#utility.yul\":2777:3223   */\n  iszero\n  tag_63\n  jumpi\n    /* \"#utility.yul\":2822:2860   */\n  tag_64\n    /* \"#utility.yul\":2854:2859   */\n  dup2\n    /* \"#utility.yul\":2822:2860   */\n  tag_12\n  jump\t// in\ntag_64:\n    /* \"#utility.yul\":2906:2935   */\n  tag_65\n    /* \"#utility.yul\":2924:2934   */\n  dup5\n    /* \"#utility.yul\":2906:2935   */\n  tag_13\n  jump\t// in\ntag_65:\n    /* \"#utility.yul\":2896:2904   */\n  dup2\n    /* \"#utility.yul\":2892:2936   */\n  add\n    /* \"#utility.yul\":3089:3091   */\n  0x20\n    /* \"#utility.yul\":3077:3087   */\n  dup6\n    /* \"#utility.yul\":3074:3092   */\n  lt\n    /* \"#utility.yul\":3071:3120   */\n  iszero\n  tag_66\n  jumpi\n    /* \"#utility.yul\":3110:3118   */\n  dup2\n    /* \"#utility.yul\":3095:3118   */\n  swap1\n  pop\n    /* \"#utility.yul\":3071:3120   */\ntag_66:\n    /* \"#utility.yul\":3133:3213   */\n  tag_67\n    /* \"#utility.yul\":3189:3211   */\n  tag_68\n    /* \"#utility.yul\":3207:3210   */\n  dup6\n    /* \"#utility.yul\":3189:3211   */\n  tag_13\n  jump\t// in\ntag_68:\n    /* \"#utility.yul\":3179:3187   */\n  dup4\n    /* \"#utility.yul\":3175:3212   */\n  add\n    /* \"#utility.yul\":3162:3173   */\n  dup3\n    /* \"#utility.yul\":3133:3213   */\n  tag_23\n  jump\t// in\ntag_67:\n    /* \"#utility.yul\":2792:3223   */\n  pop\n  pop\n    /* \"#utility.yul\":2777:3223   */\ntag_63:\n    /* \"#utility.yul\":2687:3230   */\n  pop\n  pop\n  pop\n  jump\t// out\n    /* \"#utility.yul\":3236:3353   */\ntag_25:\n    /* \"#utility.yul\":3290:3298   */\n  0x00\n    /* \"#utility.yul\":3340:3345   */\n  dup3\n    /* \"#utility.yul\":3334:3338   */\n  dup3\n    /* \"#utility.yul\":3330:3346   */\n  shr\n    /* \"#utility.yul\":3309:3346   */\n  swap1\n  pop\n    /* \"#utility.yul\":3236:3353   */\n  swap3\n  swap2\n  pop\n  pop\n  jump\t// out\n    /* \"#utility.yul\":3359:3528   */\ntag_26:\n    /* \"#utility.yul\":3403:3409   */\n  0x00\n    /* \"#utility.yul\":3436:3487   */\n  tag_71\n    /* \"#utility.yul\":3484:3485   */\n  0x00\n    /* \"#utility.yul\":3480:3486   */\n  not\n    /* \"#utility.yul\":3472:3477   */\n  dup5\n    /* \"#utility.yul\":3469:3470   */\n  0x08\n    /* \"#utility.yul\":3465:3478   */\n  mul\n    /* \"#utility.yul\":3436:3487   */\n  tag_25\n  jump\t// in\ntag_71:\n    /* \"#utility.yul\":3432:3488   */\n  not\n    /* \"#utility.yul\":3517:3521   */\n  dup1\n    /* \"#utility.yul\":3511:3515   */\n  dup4\n    /* \"#utility.yul\":3507:3522   */\n  and\n    /* \"#utility.yul\":3497:3522   */\n  swap2\n  pop\n    /* \"#utility.yul\":3410:3528   */\n  pop\n    /* \"#utility.yul\":3359:3528   */\n  swap3\n  swap2\n  pop\n  pop\n  jump\t// out\n    /* \"#utility.yul\":3533:3828   */\ntag_27:\n    /* \"#utility.yul\":3609:3613   */\n  0x00\n    /* \"#utility.yul\":3755:3784   */\n  tag_73\n    /* \"#utility.yul\":3780:3783   */\n  dup4\n    /* \"#utility.yul\":3774:3778   */\n  dup4\n    /* \"#utility.yul\":3755:3784   */\n  tag_26\n  jump\t// in\ntag_73:\n    /* \"#utility.yul\":3747:3784   */\n  swap2\n  pop\n    /* \"#utility.yul\":3817:3820   */\n  dup3\n    /* \"#utility.yul\":3814:3815   */\n  0x02\n    /* \"#utility.yul\":3810:3821   */\n  mul\n    /* \"#utility.yul\":3804:3808   */\n  dup3\n    /* \"#utility.yul\":3801:3822   */\n  or\n    /* \"#utility.yul\":3793:3822   */\n  swap1\n  pop\n    /* \"#utility.yul\":3533:3828   */\n  swap3\n  swap2\n  pop\n  pop\n  jump\t// out\n    /* \"#utility.yul\":3833:5228   */\ntag_2:\n    /* \"#utility.yul\":3950:3987   */\n  tag_75\n    /* \"#utility.yul\":3983:3986   */\n  dup3\n    /* \"#utility.yul\":3950:3987   */\n  tag_8\n  jump\t// in\ntag_75:\n    /* \"#utility.yul\":4052:4070   */\n  0xffffffffffffffff\n    /* \"#utility.yul\":4044:4050   */\n  dup2\n    /* \"#utility.yul\":4041:4071   */\n  gt\n    /* \"#utility.yul\":4038:4094   */\n  iszero\n  tag_76\n  jumpi\n    /* \"#utility.yul\":4074:4092   */\n  tag_77\n  tag_9\n  jump\t// in\ntag_77:\n    /* \"#utility.yul\":4038:4094   */\ntag_76:\n    /* \"#utility.yul\":4118:4156   */\n  tag_78\n    /* \"#utility.yul\":4150:4154   */\n  dup3\n    /* \"#utility.yul\":4144:4155   */\n  sload\n    /* \"#utility.yul\":4118:4156   */\n  tag_11\n  jump\t// in\ntag_78:\n    /* \"#utility.yul\":4203:4270   */\n  tag_79\n    /* \"#utility.yul\":4263:4269   */\n  dup3\n    /* \"#utility.yul\":4255:4261   */\n  dup3\n    /* \"#utility.yul\":4249:4253   */\n  dup6\n    /* \"#utility.yul\":4203:4270   */\n  tag_24\n  jump\t// in\ntag_79:\n    /* \"#utility.yul\":4297:4298   */\n  0x00\n    /* \"#utility.yul\":4321:4325   */\n  0x20\n    /* \"#utility.yul\":4308:4325   */\n  swap1\n  pop\n    /* \"#utility.yul\":4353:4355   */\n  0x1f\n    /* \"#utility.yul\":4345:4351   */\n  dup4\n    /* \"#utility.yul\":4342:4356   */\n  gt\n    /* \"#utility.yul\":4370:4371   */\n  0x01\n    /* \"#utility.yul\":4365:4983   */\n  dup2\n  eq\n  tag_81\n  jumpi\n    /* \"#utility.yul\":5027:5028   */\n  0x00\n    /* \"#utility.yul\":5044:5050   */\n  dup5\n    /* \"#utility.yul\":5041:5118   */\n  iszero\n  tag_82\n  jumpi\n    /* \"#utility.yul\":5093:5102   */\n  dup3\n    /* \"#utility.yul\":5088:5091   */\n  dup8\n    /* \"#utility.yul\":5084:5103   */\n  add\n    /* \"#utility.yul\":5078:5104   */\n  mload\n    /* \"#utility.yul\":5069:5104   */\n  swap1\n  pop\n    /* \"#utility.yul\":5041:5118   */\ntag_82:\n    /* \"#utility.yul\":5144:5211   */\n  tag_83\n    /* \"#utility.yul\":5204:5210   */\n  dup6\n    /* \"#utility.yul\":5197:5202   */\n  dup3\n    /* \"#utility.yul\":5144:5211   */\n  tag_27\n  jump\t// in\ntag_83:\n    /* \"#utility.yul\":5138:5142   */\n  dup7\n    /* \"#utility.yul\":5131:5212   */\n  sstore\n    /* \"#utility.yul\":5000:5222   */\n  pop\n    /* \"#utility.yul\":4335:5222   */\n  jump(tag_80)\n    /* \"#utility.yul\":4365:4983   */\ntag_81:\n    /* \"#utility.yul\":4417:4421   */\n  0x1f\n    /* \"#utility.yul\":4413:4422   */\n  not\n    /* \"#utility.yul\":4405:4411   */\n  dup5\n    /* \"#utility.yul\":4401:4423   */\n  and\n    /* \"#utility.yul\":4451:4488   */\n  tag_84\n    /* \"#utility.yul\":4483:4487   */\n  dup7\n    /* \"#utility.yul\":4451:4488   */\n  tag_12\n  jump\t// in\ntag_84:\n    /* \"#utility.yul\":4510:4511   */\n  0x00\n    /* \"#utility.yul\":4524:4732   */\ntag_85:\n    /* \"#utility.yul\":4538:4545   */\n  dup3\n    /* \"#utility.yul\":4535:4536   */\n  dup2\n    /* \"#utility.yul\":4532:4546   */\n  lt\n    /* \"#utility.yul\":4524:4732   */\n  iszero\n  tag_87\n  jumpi\n    /* \"#utility.yul\":4617:4626   */\n  dup5\n    /* \"#utility.yul\":4612:4615   */\n  dup10\n    /* \"#utility.yul\":4608:4627   */\n  add\n    /* \"#utility.yul\":4602:4628   */\n  mload\n    /* \"#utility.yul\":4594:4600   */\n  dup3\n    /* \"#utility.yul\":4587:4629   */\n  sstore\n    /* \"#utility.yul\":4668:4669   */\n  0x01\n    /* \"#utility.yul\":4660:4666   */\n  dup3\n    /* \"#utility.yul\":4656:4670   */\n  add\n    /* \"#utility.yul\":4646:4670   */\n  swap2\n  pop\n    /* \"#utility.yul\":4715:4717   */\n  0x20\n    /* \"#utility.yul\":4704:4713   */\n  dup6\n    /* \"#utility.yul\":4700:4718   */\n  add\n    /* \"#utility.yul\":4687:4718   */\n  swap5\n  pop\n    /* \"#utility.yul\":4561:4565   */\n  0x20\n    /* \"#utility.yul\":4558:4559   */\n  dup2\n    /* \"#utility.yul\":4554:4566   */\n  add\n    /* \"#utility.yul\":4549:4566   */\n  swap1\n  pop\n    /* \"#utility.yul\":4524:4732   */\n  jump(tag_85)\ntag_87:\n    /* \"#utility.yul\":4760:4766   */\n  dup7\n    /* \"#utility.yul\":4751:4758   */\n  dup4\n    /* \"#utility.yul\":4748:4767   */\n  lt\n    /* \"#utility.yul\":4745:4924   */\n  iszero\n  tag_88\n  jumpi\n    /* \"#utility.yul\":4818:4827   */\n  dup5\n    /* \"#utility.yul\":4813:4816   */\n  dup10\n    /* \"#utility.yul\":4809:4828   */\n  add\n    /* \"#utility.yul\":4803:4829   */\n  mload\n    /* \"#utility.yul\":4861:4909   */\n  tag_89\n    /* \"#utility.yul\":4903:4907   */\n  0x1f\n    /* \"#utility.yul\":4895:4901   */\n  dup10\n    /* \"#utility.yul\":4891:4908   */\n  and\n    /* \"#utility.yul\":4880:4889   */\n  dup3\n    /* \"#utility.yul\":4861:4909   */\n  tag_26\n  jump\t// in\ntag_89:\n    /* \"#utility.yul\":4853:4859   */\n  dup4\n    /* \"#utility.yul\":4846:4910   */\n  sstore\n    /* \"#utility.yul\":4768:4924   */\n  pop\n    /* \"#utility.yul\":4745:4924   */\ntag_88:\n    /* \"#utility.yul\":4970:4971   */\n  0x01\n    /* \"#utility.yul\":4966:4967   */\n  0x02\n    /* \"#utility.yul\":4958:4964   */\n  dup9\n    /* \"#utility.yul\":4954:4968   */\n  mul\n    /* \"#utility.yul\":4950:4972   */\n  add\n    /* \"#utility.yul\":4944:4948   */\n  dup9\n    /* \"#utility.yul\":4937:4973   */\n  sstore\n    /* \"#utility.yul\":4372:4983   */\n  pop\n  pop\n  pop\n    /* \"#utility.yul\":4335:5222   */\ntag_80:\n  pop\n    /* \"#utility.yul\":3925:5228   */\n  pop\n  pop\n  pop\n    /* \"#utility.yul\":3833:5228   */\n  pop\n  pop\n  jump\t// out\n    /* \"holaMundoDinamico.sol\":90:1361  contract holaMundoDinamico {... */\ntag_7:\n  dataSize(sub_0)\n  dup1\n  dataOffset(sub_0)\n  0x00\n  codecopy\n  0x00\n  return\nstop\n\nsub_0: assembly {\n        /* \"holaMundoDinamico.sol\":90:1361  contract holaMundoDinamico {... */\n      mstore(0x40, 0x80)\n      callvalue\n      dup1\n      iszero\n      tag_1\n      jumpi\n      0x00\n      dup1\n      revert\n    tag_1:\n      pop\n      jumpi(tag_2, lt(calldatasize, 0x04))\n      shr(0xe0, calldataload(0x00))\n      dup1\n      0xa40befcc\n      gt\n      tag_12\n      jumpi\n      dup1\n      0xa40befcc\n      eq\n      tag_7\n      jumpi\n      dup1\n      0xa53e8b5c\n      eq\n      tag_8\n      jumpi\n      dup1\n      0xa6d169a7\n      eq\n      tag_9\n      jumpi\n      dup1\n      0xeea3f72f\n      eq\n      tag_10\n      jumpi\n      dup1\n      0xfac3302c\n      eq\n      tag_11\n      jumpi\n      jump(tag_2)\n    tag_12:\n      dup1\n      0x02413d13\n      eq\n      tag_3\n      jumpi\n      dup1\n      0x1606ee96\n      eq\n      tag_4\n      jumpi\n      dup1\n      0x5d528493\n      eq\n      tag_5\n      jumpi\n      dup1\n      0x9e9b1522\n      eq\n      tag_6\n      jumpi\n    tag_2:\n      0x00\n      dup1\n      revert\n        /* \"holaMundoDinamico.sol\":926:1022  function guardarCorreo (string memory correoNuevo) public{... */\n    tag_3:\n      tag_13\n      0x04\n      dup1\n      calldatasize\n      sub\n      dup2\n      add\n      swap1\n      tag_14\n      swap2\n      swap1\n      tag_15\n      jump\t// in\n    tag_14:\n      tag_16\n      jump\t// in\n    tag_13:\n      stop\n        /* \"holaMundoDinamico.sol\":1028:1108  function numCelular () public view returns (int256){... */\n    tag_4:\n      tag_17\n      tag_18\n      jump\t// in\n    tag_17:\n      mload(0x40)\n      tag_19\n      swap2\n      swap1\n      tag_20\n      jump\t// in\n    tag_19:\n      mload(0x40)\n      dup1\n      swap2\n      sub\n      swap1\n      return\n        /* \"holaMundoDinamico.sol\":1114:1192  function guardarNum (int256 numNuevo) public {... */\n    tag_5:\n      tag_21\n      0x04\n      dup1\n      calldatasize\n      sub\n      dup2\n      add\n      swap1\n      tag_22\n      swap2\n      swap1\n      tag_23\n      jump\t// in\n    tag_22:\n      tag_24\n      jump\t// in\n    tag_21:\n      stop\n        /* \"holaMundoDinamico.sol\":485:615  function guardarSaludo (string memory nuevoSaludo) public { //Funcion para cambiar el saludo... */\n    tag_6:\n      tag_25\n      0x04\n      dup1\n      calldatasize\n      sub\n      dup2\n      add\n      swap1\n      tag_26\n      swap2\n      swap1\n      tag_15\n      jump\t// in\n    tag_26:\n      tag_27\n      jump\t// in\n    tag_25:\n      stop\n        /* \"holaMundoDinamico.sol\":628:717  function nombreCompleto () public view returns(string memory){... */\n    tag_7:\n      tag_28\n      tag_29\n      jump\t// in\n    tag_28:\n      mload(0x40)\n      tag_30\n      swap2\n      swap1\n      tag_31\n      jump\t// in\n    tag_30:\n      mload(0x40)\n      dup1\n      swap2\n      sub\n      swap1\n      return\n        /* \"holaMundoDinamico.sol\":828:920  function correoElect () public view returns (string memory){... */\n    tag_8:\n      tag_32\n      tag_33\n      jump\t// in\n    tag_32:\n      mload(0x40)\n      tag_34\n      swap2\n      swap1\n      tag_31\n      jump\t// in\n    tag_34:\n      mload(0x40)\n      dup1\n      swap2\n      sub\n      swap1\n      return\n        /* \"holaMundoDinamico.sol\":723:820  function guardarNombre (string memory nombreNuevo) public {... */\n    tag_9:\n      tag_35\n      0x04\n      dup1\n      calldatasize\n      sub\n      dup2\n      add\n      swap1\n      tag_36\n      swap2\n      swap1\n      tag_15\n      jump\t// in\n    tag_36:\n      tag_37\n      jump\t// in\n    tag_35:\n      stop\n        /* \"holaMundoDinamico.sol\":355:477  function leerSaludo () public view returns (string memory) {  //Funcion para leer el saludo... */\n    tag_10:\n      tag_38\n      tag_39\n      jump\t// in\n    tag_38:\n      mload(0x40)\n      tag_40\n      swap2\n      swap1\n      tag_31\n      jump\t// in\n    tag_40:\n      mload(0x40)\n      dup1\n      swap2\n      sub\n      swap1\n      return\n        /* \"holaMundoDinamico.sol\":184:230  string public saludoEstatico = \"Hola Estatico\" */\n    tag_11:\n      tag_41\n      tag_42\n      jump\t// in\n    tag_41:\n      mload(0x40)\n      tag_43\n      swap2\n      swap1\n      tag_31\n      jump\t// in\n    tag_43:\n      mload(0x40)\n      dup1\n      swap2\n      sub\n      swap1\n      return\n        /* \"holaMundoDinamico.sol\":926:1022  function guardarCorreo (string memory correoNuevo) public{... */\n    tag_16:\n        /* \"holaMundoDinamico.sol\":1003:1014  correoNuevo */\n      dup1\n        /* \"holaMundoDinamico.sol\":994:1000  correo */\n      0x03\n        /* \"holaMundoDinamico.sol\":994:1014  correo = correoNuevo */\n      swap1\n      dup2\n      tag_45\n      swap2\n      swap1\n      tag_46\n      jump\t// in\n    tag_45:\n      pop\n        /* \"holaMundoDinamico.sol\":926:1022  function guardarCorreo (string memory correoNuevo) public{... */\n      pop\n      jump\t// out\n        /* \"holaMundoDinamico.sol\":1028:1108  function numCelular () public view returns (int256){... */\n    tag_18:\n        /* \"holaMundoDinamico.sol\":1072:1078  int256 */\n      0x00\n        /* \"holaMundoDinamico.sol\":1097:1100  cel */\n      sload(0x04)\n        /* \"holaMundoDinamico.sol\":1090:1100  return cel */\n      swap1\n      pop\n        /* \"holaMundoDinamico.sol\":1028:1108  function numCelular () public view returns (int256){... */\n      swap1\n      jump\t// out\n        /* \"holaMundoDinamico.sol\":1114:1192  function guardarNum (int256 numNuevo) public {... */\n    tag_24:\n        /* \"holaMundoDinamico.sol\":1176:1184  numNuevo */\n      dup1\n        /* \"holaMundoDinamico.sol\":1170:1173  cel */\n      0x04\n        /* \"holaMundoDinamico.sol\":1170:1184  cel = numNuevo */\n      dup2\n      swap1\n      sstore\n      pop\n        /* \"holaMundoDinamico.sol\":1114:1192  function guardarNum (int256 numNuevo) public {... */\n      pop\n      jump\t// out\n        /* \"holaMundoDinamico.sol\":485:615  function guardarSaludo (string memory nuevoSaludo) public { //Funcion para cambiar el saludo... */\n    tag_27:\n        /* \"holaMundoDinamico.sol\":596:607  nuevoSaludo */\n      dup1\n        /* \"holaMundoDinamico.sol\":587:593  saludo */\n      0x00\n        /* \"holaMundoDinamico.sol\":587:607  saludo = nuevoSaludo */\n      swap1\n      dup2\n      tag_50\n      swap2\n      swap1\n      tag_46\n      jump\t// in\n    tag_50:\n      pop\n        /* \"holaMundoDinamico.sol\":485:615  function guardarSaludo (string memory nuevoSaludo) public { //Funcion para cambiar el saludo... */\n      pop\n      jump\t// out\n        /* \"holaMundoDinamico.sol\":628:717  function nombreCompleto () public view returns(string memory){... */\n    tag_29:\n        /* \"holaMundoDinamico.sol\":675:688  string memory */\n      0x60\n        /* \"holaMundoDinamico.sol\":703:709  nombre */\n      0x02\n        /* \"holaMundoDinamico.sol\":696:709  return nombre */\n      dup1\n      sload\n      tag_52\n      swap1\n      tag_53\n      jump\t// in\n    tag_52:\n      dup1\n      0x1f\n      add\n      0x20\n      dup1\n      swap2\n      div\n      mul\n      0x20\n      add\n      mload(0x40)\n      swap1\n      dup2\n      add\n      0x40\n      mstore\n      dup1\n      swap3\n      swap2\n      swap1\n      dup2\n      dup2\n      mstore\n      0x20\n      add\n      dup3\n      dup1\n      sload\n      tag_54\n      swap1\n      tag_53\n      jump\t// in\n    tag_54:\n      dup1\n      iszero\n      tag_55\n      jumpi\n      dup1\n      0x1f\n      lt\n      tag_56\n      jumpi\n      0x0100\n      dup1\n      dup4\n      sload\n      div\n      mul\n      dup4\n      mstore\n      swap2\n      0x20\n      add\n      swap2\n      jump(tag_55)\n    tag_56:\n      dup3\n      add\n      swap2\n      swap1\n      0x00\n      mstore\n      keccak256(0x00, 0x20)\n      swap1\n    tag_57:\n      dup2\n      sload\n      dup2\n      mstore\n      swap1\n      0x01\n      add\n      swap1\n      0x20\n      add\n      dup1\n      dup4\n      gt\n      tag_57\n      jumpi\n      dup3\n      swap1\n      sub\n      0x1f\n      and\n      dup3\n      add\n      swap2\n    tag_55:\n      pop\n      pop\n      pop\n      pop\n      pop\n      swap1\n      pop\n        /* \"holaMundoDinamico.sol\":628:717  function nombreCompleto () public view returns(string memory){... */\n      swap1\n      jump\t// out\n        /* \"holaMundoDinamico.sol\":828:920  function correoElect () public view returns (string memory){... */\n    tag_33:\n        /* \"holaMundoDinamico.sol\":873:886  string memory */\n      0x60\n        /* \"holaMundoDinamico.sol\":905:911  correo */\n      0x03\n        /* \"holaMundoDinamico.sol\":898:911  return correo */\n      dup1\n      sload\n      tag_59\n      swap1\n      tag_53\n      jump\t// in\n    tag_59:\n      dup1\n      0x1f\n      add\n      0x20\n      dup1\n      swap2\n      div\n      mul\n      0x20\n      add\n      mload(0x40)\n      swap1\n      dup2\n      add\n      0x40\n      mstore\n      dup1\n      swap3\n      swap2\n      swap1\n      dup2\n      dup2\n      mstore\n      0x20\n      add\n      dup3\n      dup1\n      sload\n      tag_60\n      swap1\n      tag_53\n      jump\t// in\n    tag_60:\n      dup1\n      iszero\n      tag_61\n      jumpi\n      dup1\n      0x1f\n      lt\n      tag_62\n      jumpi\n      0x0100\n      dup1\n      dup4\n      sload\n      div\n      mul\n      dup4\n      mstore\n      swap2\n      0x20\n      add\n      swap2\n      jump(tag_61)\n    tag_62:\n      dup3\n      add\n      swap2\n      swap1\n      0x00\n      mstore\n      keccak256(0x00, 0x20)\n      swap1\n    tag_63:\n      dup2\n      sload\n      dup2\n      mstore\n      swap1\n      0x01\n      add\n      swap1\n      0x20\n      add\n      dup1\n      dup4\n      gt\n      tag_63\n      jumpi\n      dup3\n      swap1\n      sub\n      0x1f\n      and\n      dup3\n      add\n      swap2\n    tag_61:\n      pop\n      pop\n      pop\n      pop\n      pop\n      swap1\n      pop\n        /* \"holaMundoDinamico.sol\":828:920  function correoElect () public view returns (string memory){... */\n      swap1\n      jump\t// out\n        /* \"holaMundoDinamico.sol\":723:820  function guardarNombre (string memory nombreNuevo) public {... */\n    tag_37:\n        /* \"holaMundoDinamico.sol\":801:812  nombreNuevo */\n      dup1\n        /* \"holaMundoDinamico.sol\":792:798  nombre */\n      0x02\n        /* \"holaMundoDinamico.sol\":792:812  nombre = nombreNuevo */\n      swap1\n      dup2\n      tag_65\n      swap2\n      swap1\n      tag_46\n      jump\t// in\n    tag_65:\n      pop\n        /* \"holaMundoDinamico.sol\":723:820  function guardarNombre (string memory nombreNuevo) public {... */\n      pop\n      jump\t// out\n        /* \"holaMundoDinamico.sol\":355:477  function leerSaludo () public view returns (string memory) {  //Funcion para leer el saludo... */\n    tag_39:\n        /* \"holaMundoDinamico.sol\":399:412  string memory */\n      0x60\n        /* \"holaMundoDinamico.sol\":463:469  saludo */\n      0x00\n        /* \"holaMundoDinamico.sol\":456:469  return saludo */\n      dup1\n      sload\n      tag_67\n      swap1\n      tag_53\n      jump\t// in\n    tag_67:\n      dup1\n      0x1f\n      add\n      0x20\n      dup1\n      swap2\n      div\n      mul\n      0x20\n      add\n      mload(0x40)\n      swap1\n      dup2\n      add\n      0x40\n      mstore\n      dup1\n      swap3\n      swap2\n      swap1\n      dup2\n      dup2\n      mstore\n      0x20\n      add\n      dup3\n      dup1\n      sload\n      tag_68\n      swap1\n      tag_53\n      jump\t// in\n    tag_68:\n      dup1\n      iszero\n      tag_69\n      jumpi\n      dup1\n      0x1f\n      lt\n      tag_70\n      jumpi\n      0x0100\n      dup1\n      dup4\n      sload\n      div\n      mul\n      dup4\n      mstore\n      swap2\n      0x20\n      add\n      swap2\n      jump(tag_69)\n    tag_70:\n      dup3\n      add\n      swap2\n      swap1\n      0x00\n      mstore\n      keccak256(0x00, 0x20)\n      swap1\n    tag_71:\n      dup2\n      sload\n      dup2\n      mstore\n      swap1\n      0x01\n      add\n      swap1\n      0x20\n      add\n      dup1\n      dup4\n      gt\n      tag_71\n      jumpi\n      dup3\n      swap1\n      sub\n      0x1f\n      and\n      dup3\n      add\n      swap2\n    tag_69:\n      pop\n      pop\n      pop\n      pop\n      pop\n      swap1\n      pop\n        /* \"holaMundoDinamico.sol\":355:477  function leerSaludo () public view returns (string memory) {  //Funcion para leer el saludo... */\n      swap1\n      jump\t// out\n        /* \"holaMundoDinamico.sol\":184:230  string public saludoEstatico = \"Hola Estatico\" */\n    tag_42:\n      0x01\n      dup1\n      sload\n      tag_72\n      swap1\n      tag_53\n      jump\t// in\n    tag_72:\n      dup1\n      0x1f\n      add\n      0x20\n      dup1\n      swap2\n      div\n      mul\n      0x20\n      add\n      mload(0x40)\n      swap1\n      dup2\n      add\n      0x40\n      mstore\n      dup1\n      swap3\n      swap2\n      swap1\n      dup2\n      dup2\n      mstore\n      0x20\n      add\n      dup3\n      dup1\n      sload\n      tag_73\n      swap1\n      tag_53\n      jump\t// in\n    tag_73:\n      dup1\n      iszero\n      tag_74\n      jumpi\n      dup1\n      0x1f\n      lt\n      tag_75\n      jumpi\n      0x0100\n      dup1\n      dup4\n      sload\n      div\n      mul\n      dup4\n      mstore\n      swap2\n      0x20\n      add\n      swap2\n      jump(tag_74)\n    tag_75:\n      dup3\n      add\n      swap2\n      swap1\n      0x00\n      mstore\n      keccak256(0x00, 0x20)\n      swap1\n    tag_76:\n      dup2\n      sload\n      dup2\n      mstore\n      swap1\n      0x01\n      add\n      swap1\n      0x20\n      add\n      dup1\n      dup4\n      gt\n      tag_76\n      jumpi\n      dup3\n      swap1\n      sub\n      0x1f\n      and\n      dup3\n      add\n      swap2\n    tag_74:\n      pop\n      pop\n      pop\n      pop\n      pop\n      dup2\n      jump\t// out\n        /* \"#utility.yul\":7:82   */\n    tag_77:\n        /* \"#utility.yul\":40:46   */\n      0x00\n        /* \"#utility.yul\":73:75   */\n      0x40\n        /* \"#utility.yul\":67:76   */\n      mload\n        /* \"#utility.yul\":57:76   */\n      swap1\n      pop\n        /* \"#utility.yul\":7:82   */\n      swap1\n      jump\t// out\n        /* \"#utility.yul\":88:205   */\n    tag_78:\n        /* \"#utility.yul\":197:198   */\n      0x00\n        /* \"#utility.yul\":194:195   */\n      dup1\n        /* \"#utility.yul\":187:199   */\n      revert\n        /* \"#utility.yul\":211:328   */\n    tag_79:\n        /* \"#utility.yul\":320:321   */\n      0x00\n        /* \"#utility.yul\":317:318   */\n      dup1\n        /* \"#utility.yul\":310:322   */\n      revert\n        /* \"#utility.yul\":334:451   */\n    tag_80:\n        /* \"#utility.yul\":443:444   */\n      0x00\n        /* \"#utility.yul\":440:441   */\n      dup1\n        /* \"#utility.yul\":433:445   */\n      revert\n        /* \"#utility.yul\":457:574   */\n    tag_81:\n        /* \"#utility.yul\":566:567   */\n      0x00\n        /* \"#utility.yul\":563:564   */\n      dup1\n        /* \"#utility.yul\":556:568   */\n      revert\n        /* \"#utility.yul\":580:682   */\n    tag_82:\n        /* \"#utility.yul\":621:627   */\n      0x00\n        /* \"#utility.yul\":672:674   */\n      0x1f\n        /* \"#utility.yul\":668:675   */\n      not\n        /* \"#utility.yul\":663:665   */\n      0x1f\n        /* \"#utility.yul\":656:661   */\n      dup4\n        /* \"#utility.yul\":652:666   */\n      add\n        /* \"#utility.yul\":648:676   */\n      and\n        /* \"#utility.yul\":638:676   */\n      swap1\n      pop\n        /* \"#utility.yul\":580:682   */\n      swap2\n      swap1\n      pop\n      jump\t// out\n        /* \"#utility.yul\":688:868   */\n    tag_83:\n        /* \"#utility.yul\":736:813   */\n      0x4e487b7100000000000000000000000000000000000000000000000000000000\n        /* \"#utility.yul\":733:734   */\n      0x00\n        /* \"#utility.yul\":726:814   */\n      mstore\n        /* \"#utility.yul\":833:837   */\n      0x41\n        /* \"#utility.yul\":830:831   */\n      0x04\n        /* \"#utility.yul\":823:838   */\n      mstore\n        /* \"#utility.yul\":857:861   */\n      0x24\n        /* \"#utility.yul\":854:855   */\n      0x00\n        /* \"#utility.yul\":847:862   */\n      revert\n        /* \"#utility.yul\":874:1155   */\n    tag_84:\n        /* \"#utility.yul\":957:984   */\n      tag_124\n        /* \"#utility.yul\":979:983   */\n      dup3\n        /* \"#utility.yul\":957:984   */\n      tag_82\n      jump\t// in\n    tag_124:\n        /* \"#utility.yul\":949:955   */\n      dup2\n        /* \"#utility.yul\":945:985   */\n      add\n        /* \"#utility.yul\":1087:1093   */\n      dup2\n        /* \"#utility.yul\":1075:1085   */\n      dup2\n        /* \"#utility.yul\":1072:1094   */\n      lt\n        /* \"#utility.yul\":1051:1069   */\n      0xffffffffffffffff\n        /* \"#utility.yul\":1039:1049   */\n      dup3\n        /* \"#utility.yul\":1036:1070   */\n      gt\n        /* \"#utility.yul\":1033:1095   */\n      or\n        /* \"#utility.yul\":1030:1118   */\n      iszero\n      tag_125\n      jumpi\n        /* \"#utility.yul\":1098:1116   */\n      tag_126\n      tag_83\n      jump\t// in\n    tag_126:\n        /* \"#utility.yul\":1030:1118   */\n    tag_125:\n        /* \"#utility.yul\":1138:1148   */\n      dup1\n        /* \"#utility.yul\":1134:1136   */\n      0x40\n        /* \"#utility.yul\":1127:1149   */\n      mstore\n        /* \"#utility.yul\":917:1155   */\n      pop\n        /* \"#utility.yul\":874:1155   */\n      pop\n      pop\n      jump\t// out\n        /* \"#utility.yul\":1161:1290   */\n    tag_85:\n        /* \"#utility.yul\":1195:1201   */\n      0x00\n        /* \"#utility.yul\":1222:1242   */\n      tag_128\n      tag_77\n      jump\t// in\n    tag_128:\n        /* \"#utility.yul\":1212:1242   */\n      swap1\n      pop\n        /* \"#utility.yul\":1251:1284   */\n      tag_129\n        /* \"#utility.yul\":1279:1283   */\n      dup3\n        /* \"#utility.yul\":1271:1277   */\n      dup3\n        /* \"#utility.yul\":1251:1284   */\n      tag_84\n      jump\t// in\n    tag_129:\n        /* \"#utility.yul\":1161:1290   */\n      swap2\n      swap1\n      pop\n      jump\t// out\n        /* \"#utility.yul\":1296:1604   */\n    tag_86:\n        /* \"#utility.yul\":1358:1362   */\n      0x00\n        /* \"#utility.yul\":1448:1466   */\n      0xffffffffffffffff\n        /* \"#utility.yul\":1440:1446   */\n      dup3\n        /* \"#utility.yul\":1437:1467   */\n      gt\n        /* \"#utility.yul\":1434:1490   */\n      iszero\n      tag_131\n      jumpi\n        /* \"#utility.yul\":1470:1488   */\n      tag_132\n      tag_83\n      jump\t// in\n    tag_132:\n        /* \"#utility.yul\":1434:1490   */\n    tag_131:\n        /* \"#utility.yul\":1508:1537   */\n      tag_133\n        /* \"#utility.yul\":1530:1536   */\n      dup3\n        /* \"#utility.yul\":1508:1537   */\n      tag_82\n      jump\t// in\n    tag_133:\n        /* \"#utility.yul\":1500:1537   */\n      swap1\n      pop\n        /* \"#utility.yul\":1592:1596   */\n      0x20\n        /* \"#utility.yul\":1586:1590   */\n      dup2\n        /* \"#utility.yul\":1582:1597   */\n      add\n        /* \"#utility.yul\":1574:1597   */\n      swap1\n      pop\n        /* \"#utility.yul\":1296:1604   */\n      swap2\n      swap1\n      pop\n      jump\t// out\n        /* \"#utility.yul\":1610:1756   */\n    tag_87:\n        /* \"#utility.yul\":1707:1713   */\n      dup3\n        /* \"#utility.yul\":1702:1705   */\n      dup2\n        /* \"#utility.yul\":1697:1700   */\n      dup4\n        /* \"#utility.yul\":1684:1714   */\n      calldatacopy\n        /* \"#utility.yul\":1748:1749   */\n      0x00\n        /* \"#utility.yul\":1739:1745   */\n      dup4\n        /* \"#utility.yul\":1734:1737   */\n      dup4\n        /* \"#utility.yul\":1730:1746   */\n      add\n        /* \"#utility.yul\":1723:1750   */\n      mstore\n        /* \"#utility.yul\":1610:1756   */\n      pop\n      pop\n      pop\n      jump\t// out\n        /* \"#utility.yul\":1762:2187   */\n    tag_88:\n        /* \"#utility.yul\":1840:1845   */\n      0x00\n        /* \"#utility.yul\":1865:1931   */\n      tag_136\n        /* \"#utility.yul\":1881:1930   */\n      tag_137\n        /* \"#utility.yul\":1923:1929   */\n      dup5\n        /* \"#utility.yul\":1881:1930   */\n      tag_86\n      jump\t// in\n    tag_137:\n        /* \"#utility.yul\":1865:1931   */\n      tag_85\n      jump\t// in\n    tag_136:\n        /* \"#utility.yul\":1856:1931   */\n      swap1\n      pop\n        /* \"#utility.yul\":1954:1960   */\n      dup3\n        /* \"#utility.yul\":1947:1952   */\n      dup2\n        /* \"#utility.yul\":1940:1961   */\n      mstore\n        /* \"#utility.yul\":1992:1996   */\n      0x20\n        /* \"#utility.yul\":1985:1990   */\n      dup2\n        /* \"#utility.yul\":1981:1997   */\n      add\n        /* \"#utility.yul\":2030:2033   */\n      dup5\n        /* \"#utility.yul\":2021:2027   */\n      dup5\n        /* \"#utility.yul\":2016:2019   */\n      dup5\n        /* \"#utility.yul\":2012:2028   */\n      add\n        /* \"#utility.yul\":2009:2034   */\n      gt\n        /* \"#utility.yul\":2006:2118   */\n      iszero\n      tag_138\n      jumpi\n        /* \"#utility.yul\":2037:2116   */\n      tag_139\n      tag_81\n      jump\t// in\n    tag_139:\n        /* \"#utility.yul\":2006:2118   */\n    tag_138:\n        /* \"#utility.yul\":2127:2181   */\n      tag_140\n        /* \"#utility.yul\":2174:2180   */\n      dup5\n        /* \"#utility.yul\":2169:2172   */\n      dup3\n        /* \"#utility.yul\":2164:2167   */\n      dup6\n        /* \"#utility.yul\":2127:2181   */\n      tag_87\n      jump\t// in\n    tag_140:\n        /* \"#utility.yul\":1846:2187   */\n      pop\n        /* \"#utility.yul\":1762:2187   */\n      swap4\n      swap3\n      pop\n      pop\n      pop\n      jump\t// out\n        /* \"#utility.yul\":2207:2547   */\n    tag_89:\n        /* \"#utility.yul\":2263:2268   */\n      0x00\n        /* \"#utility.yul\":2312:2315   */\n      dup3\n        /* \"#utility.yul\":2305:2309   */\n      0x1f\n        /* \"#utility.yul\":2297:2303   */\n      dup4\n        /* \"#utility.yul\":2293:2310   */\n      add\n        /* \"#utility.yul\":2289:2316   */\n      slt\n        /* \"#utility.yul\":2279:2401   */\n      tag_142\n      jumpi\n        /* \"#utility.yul\":2320:2399   */\n      tag_143\n      tag_80\n      jump\t// in\n    tag_143:\n        /* \"#utility.yul\":2279:2401   */\n    tag_142:\n        /* \"#utility.yul\":2437:2443   */\n      dup2\n        /* \"#utility.yul\":2424:2444   */\n      calldataload\n        /* \"#utility.yul\":2462:2541   */\n      tag_144\n        /* \"#utility.yul\":2537:2540   */\n      dup5\n        /* \"#utility.yul\":2529:2535   */\n      dup3\n        /* \"#utility.yul\":2522:2526   */\n      0x20\n        /* \"#utility.yul\":2514:2520   */\n      dup7\n        /* \"#utility.yul\":2510:2527   */\n      add\n        /* \"#utility.yul\":2462:2541   */\n      tag_88\n      jump\t// in\n    tag_144:\n        /* \"#utility.yul\":2453:2541   */\n      swap2\n      pop\n        /* \"#utility.yul\":2269:2547   */\n      pop\n        /* \"#utility.yul\":2207:2547   */\n      swap3\n      swap2\n      pop\n      pop\n      jump\t// out\n        /* \"#utility.yul\":2553:3062   */\n    tag_15:\n        /* \"#utility.yul\":2622:2628   */\n      0x00\n        /* \"#utility.yul\":2671:2673   */\n      0x20\n        /* \"#utility.yul\":2659:2668   */\n      dup3\n        /* \"#utility.yul\":2650:2657   */\n      dup5\n        /* \"#utility.yul\":2646:2669   */\n      sub\n        /* \"#utility.yul\":2642:2674   */\n      slt\n        /* \"#utility.yul\":2639:2758   */\n      iszero\n      tag_146\n      jumpi\n        /* \"#utility.yul\":2677:2756   */\n      tag_147\n      tag_78\n      jump\t// in\n    tag_147:\n        /* \"#utility.yul\":2639:2758   */\n    tag_146:\n        /* \"#utility.yul\":2825:2826   */\n      0x00\n        /* \"#utility.yul\":2814:2823   */\n      dup3\n        /* \"#utility.yul\":2810:2827   */\n      add\n        /* \"#utility.yul\":2797:2828   */\n      calldataload\n        /* \"#utility.yul\":2855:2873   */\n      0xffffffffffffffff\n        /* \"#utility.yul\":2847:2853   */\n      dup2\n        /* \"#utility.yul\":2844:2874   */\n      gt\n        /* \"#utility.yul\":2841:2958   */\n      iszero\n      tag_148\n      jumpi\n        /* \"#utility.yul\":2877:2956   */\n      tag_149\n      tag_79\n      jump\t// in\n    tag_149:\n        /* \"#utility.yul\":2841:2958   */\n    tag_148:\n        /* \"#utility.yul\":2982:3045   */\n      tag_150\n        /* \"#utility.yul\":3037:3044   */\n      dup5\n        /* \"#utility.yul\":3028:3034   */\n      dup3\n        /* \"#utility.yul\":3017:3026   */\n      dup6\n        /* \"#utility.yul\":3013:3035   */\n      add\n        /* \"#utility.yul\":2982:3045   */\n      tag_89\n      jump\t// in\n    tag_150:\n        /* \"#utility.yul\":2972:3045   */\n      swap2\n      pop\n        /* \"#utility.yul\":2768:3055   */\n      pop\n        /* \"#utility.yul\":2553:3062   */\n      swap3\n      swap2\n      pop\n      pop\n      jump\t// out\n        /* \"#utility.yul\":3068:3144   */\n    tag_90:\n        /* \"#utility.yul\":3104:3111   */\n      0x00\n        /* \"#utility.yul\":3133:3138   */\n      dup2\n        /* \"#utility.yul\":3122:3138   */\n      swap1\n      pop\n        /* \"#utility.yul\":3068:3144   */\n      swap2\n      swap1\n      pop\n      jump\t// out\n        /* \"#utility.yul\":3150:3265   */\n    tag_91:\n        /* \"#utility.yul\":3235:3258   */\n      tag_153\n        /* \"#utility.yul\":3252:3257   */\n      dup2\n        /* \"#utility.yul\":3235:3258   */\n      tag_90\n      jump\t// in\n    tag_153:\n        /* \"#utility.yul\":3230:3233   */\n      dup3\n        /* \"#utility.yul\":3223:3259   */\n      mstore\n        /* \"#utility.yul\":3150:3265   */\n      pop\n      pop\n      jump\t// out\n        /* \"#utility.yul\":3271:3489   */\n    tag_20:\n        /* \"#utility.yul\":3362:3366   */\n      0x00\n        /* \"#utility.yul\":3400:3402   */\n      0x20\n        /* \"#utility.yul\":3389:3398   */\n      dup3\n        /* \"#utility.yul\":3385:3403   */\n      add\n        /* \"#utility.yul\":3377:3403   */\n      swap1\n      pop\n        /* \"#utility.yul\":3413:3482   */\n      tag_155\n        /* \"#utility.yul\":3479:3480   */\n      0x00\n        /* \"#utility.yul\":3468:3477   */\n      dup4\n        /* \"#utility.yul\":3464:3481   */\n      add\n        /* \"#utility.yul\":3455:3461   */\n      dup5\n        /* \"#utility.yul\":3413:3482   */\n      tag_91\n      jump\t// in\n    tag_155:\n        /* \"#utility.yul\":3271:3489   */\n      swap3\n      swap2\n      pop\n      pop\n      jump\t// out\n        /* \"#utility.yul\":3495:3615   */\n    tag_92:\n        /* \"#utility.yul\":3567:3590   */\n      tag_157\n        /* \"#utility.yul\":3584:3589   */\n      dup2\n        /* \"#utility.yul\":3567:3590   */\n      tag_90\n      jump\t// in\n    tag_157:\n        /* \"#utility.yul\":3560:3565   */\n      dup2\n        /* \"#utility.yul\":3557:3591   */\n      eq\n        /* \"#utility.yul\":3547:3609   */\n      tag_158\n      jumpi\n        /* \"#utility.yul\":3605:3606   */\n      0x00\n        /* \"#utility.yul\":3602:3603   */\n      dup1\n        /* \"#utility.yul\":3595:3607   */\n      revert\n        /* \"#utility.yul\":3547:3609   */\n    tag_158:\n        /* \"#utility.yul\":3495:3615   */\n      pop\n      jump\t// out\n        /* \"#utility.yul\":3621:3758   */\n    tag_93:\n        /* \"#utility.yul\":3666:3671   */\n      0x00\n        /* \"#utility.yul\":3704:3710   */\n      dup2\n        /* \"#utility.yul\":3691:3711   */\n      calldataload\n        /* \"#utility.yul\":3682:3711   */\n      swap1\n      pop\n        /* \"#utility.yul\":3720:3752   */\n      tag_160\n        /* \"#utility.yul\":3746:3751   */\n      dup2\n        /* \"#utility.yul\":3720:3752   */\n      tag_92\n      jump\t// in\n    tag_160:\n        /* \"#utility.yul\":3621:3758   */\n      swap3\n      swap2\n      pop\n      pop\n      jump\t// out\n        /* \"#utility.yul\":3764:4091   */\n    tag_23:\n        /* \"#utility.yul\":3822:3828   */\n      0x00\n        /* \"#utility.yul\":3871:3873   */\n      0x20\n        /* \"#utility.yul\":3859:3868   */\n      dup3\n        /* \"#utility.yul\":3850:3857   */\n      dup5\n        /* \"#utility.yul\":3846:3869   */\n      sub\n        /* \"#utility.yul\":3842:3874   */\n      slt\n        /* \"#utility.yul\":3839:3958   */\n      iszero\n      tag_162\n      jumpi\n        /* \"#utility.yul\":3877:3956   */\n      tag_163\n      tag_78\n      jump\t// in\n    tag_163:\n        /* \"#utility.yul\":3839:3958   */\n    tag_162:\n        /* \"#utility.yul\":3997:3998   */\n      0x00\n        /* \"#utility.yul\":4022:4074   */\n      tag_164\n        /* \"#utility.yul\":4066:4073   */\n      dup5\n        /* \"#utility.yul\":4057:4063   */\n      dup3\n        /* \"#utility.yul\":4046:4055   */\n      dup6\n        /* \"#utility.yul\":4042:4064   */\n      add\n        /* \"#utility.yul\":4022:4074   */\n      tag_93\n      jump\t// in\n    tag_164:\n        /* \"#utility.yul\":4012:4074   */\n      swap2\n      pop\n        /* \"#utility.yul\":3968:4084   */\n      pop\n        /* \"#utility.yul\":3764:4091   */\n      swap3\n      swap2\n      pop\n      pop\n      jump\t// out\n        /* \"#utility.yul\":4097:4196   */\n    tag_94:\n        /* \"#utility.yul\":4149:4155   */\n      0x00\n        /* \"#utility.yul\":4183:4188   */\n      dup2\n        /* \"#utility.yul\":4177:4189   */\n      mload\n        /* \"#utility.yul\":4167:4189   */\n      swap1\n      pop\n        /* \"#utility.yul\":4097:4196   */\n      swap2\n      swap1\n      pop\n      jump\t// out\n        /* \"#utility.yul\":4202:4371   */\n    tag_95:\n        /* \"#utility.yul\":4286:4297   */\n      0x00\n        /* \"#utility.yul\":4320:4326   */\n      dup3\n        /* \"#utility.yul\":4315:4318   */\n      dup3\n        /* \"#utility.yul\":4308:4327   */\n      mstore\n        /* \"#utility.yul\":4360:4364   */\n      0x20\n        /* \"#utility.yul\":4355:4358   */\n      dup3\n        /* \"#utility.yul\":4351:4365   */\n      add\n        /* \"#utility.yul\":4336:4365   */\n      swap1\n      pop\n        /* \"#utility.yul\":4202:4371   */\n      swap3\n      swap2\n      pop\n      pop\n      jump\t// out\n        /* \"#utility.yul\":4377:4623   */\n    tag_96:\n        /* \"#utility.yul\":4458:4459   */\n      0x00\n        /* \"#utility.yul\":4468:4581   */\n    tag_168:\n        /* \"#utility.yul\":4482:4488   */\n      dup4\n        /* \"#utility.yul\":4479:4480   */\n      dup2\n        /* \"#utility.yul\":4476:4489   */\n      lt\n        /* \"#utility.yul\":4468:4581   */\n      iszero\n      tag_170\n      jumpi\n        /* \"#utility.yul\":4567:4568   */\n      dup1\n        /* \"#utility.yul\":4562:4565   */\n      dup3\n        /* \"#utility.yul\":4558:4569   */\n      add\n        /* \"#utility.yul\":4552:4570   */\n      mload\n        /* \"#utility.yul\":4548:4549   */\n      dup2\n        /* \"#utility.yul\":4543:4546   */\n      dup5\n        /* \"#utility.yul\":4539:4550   */\n      add\n        /* \"#utility.yul\":4532:4571   */\n      mstore\n        /* \"#utility.yul\":4504:4506   */\n      0x20\n        /* \"#utility.yul\":4501:4502   */\n      dup2\n        /* \"#utility.yul\":4497:4507   */\n      add\n        /* \"#utility.yul\":4492:4507   */\n      swap1\n      pop\n        /* \"#utility.yul\":4468:4581   */\n      jump(tag_168)\n    tag_170:\n        /* \"#utility.yul\":4615:4616   */\n      0x00\n        /* \"#utility.yul\":4606:4612   */\n      dup5\n        /* \"#utility.yul\":4601:4604   */\n      dup5\n        /* \"#utility.yul\":4597:4613   */\n      add\n        /* \"#utility.yul\":4590:4617   */\n      mstore\n        /* \"#utility.yul\":4439:4623   */\n      pop\n        /* \"#utility.yul\":4377:4623   */\n      pop\n      pop\n      pop\n      jump\t// out\n        /* \"#utility.yul\":4629:5006   */\n    tag_97:\n        /* \"#utility.yul\":4717:4720   */\n      0x00\n        /* \"#utility.yul\":4745:4784   */\n      tag_172\n        /* \"#utility.yul\":4778:4783   */\n      dup3\n        /* \"#utility.yul\":4745:4784   */\n      tag_94\n      jump\t// in\n    tag_172:\n        /* \"#utility.yul\":4800:4871   */\n      tag_173\n        /* \"#utility.yul\":4864:4870   */\n      dup2\n        /* \"#utility.yul\":4859:4862   */\n      dup6\n        /* \"#utility.yul\":4800:4871   */\n      tag_95\n      jump\t// in\n    tag_173:\n        /* \"#utility.yul\":4793:4871   */\n      swap4\n      pop\n        /* \"#utility.yul\":4880:4945   */\n      tag_174\n        /* \"#utility.yul\":4938:4944   */\n      dup2\n        /* \"#utility.yul\":4933:4936   */\n      dup6\n        /* \"#utility.yul\":4926:4930   */\n      0x20\n        /* \"#utility.yul\":4919:4924   */\n      dup7\n        /* \"#utility.yul\":4915:4931   */\n      add\n        /* \"#utility.yul\":4880:4945   */\n      tag_96\n      jump\t// in\n    tag_174:\n        /* \"#utility.yul\":4970:4999   */\n      tag_175\n        /* \"#utility.yul\":4992:4998   */\n      dup2\n        /* \"#utility.yul\":4970:4999   */\n      tag_82\n      jump\t// in\n    tag_175:\n        /* \"#utility.yul\":4965:4968   */\n      dup5\n        /* \"#utility.yul\":4961:5000   */\n      add\n        /* \"#utility.yul\":4954:5000   */\n      swap2\n      pop\n        /* \"#utility.yul\":4721:5006   */\n      pop\n        /* \"#utility.yul\":4629:5006   */\n      swap3\n      swap2\n      pop\n      pop\n      jump\t// out\n        /* \"#utility.yul\":5012:5325   */\n    tag_31:\n        /* \"#utility.yul\":5125:5129   */\n      0x00\n        /* \"#utility.yul\":5163:5165   */\n      0x20\n        /* \"#utility.yul\":5152:5161   */\n      dup3\n        /* \"#utility.yul\":5148:5166   */\n      add\n        /* \"#utility.yul\":5140:5166   */\n      swap1\n      pop\n        /* \"#utility.yul\":5212:5221   */\n      dup2\n        /* \"#utility.yul\":5206:5210   */\n      dup2\n        /* \"#utility.yul\":5202:5222   */\n      sub\n        /* \"#utility.yul\":5198:5199   */\n      0x00\n        /* \"#utility.yul\":5187:5196   */\n      dup4\n        /* \"#utility.yul\":5183:5200   */\n      add\n        /* \"#utility.yul\":5176:5223   */\n      mstore\n        /* \"#utility.yul\":5240:5318   */\n      tag_177\n        /* \"#utility.yul\":5313:5317   */\n      dup2\n        /* \"#utility.yul\":5304:5310   */\n      dup5\n        /* \"#utility.yul\":5240:5318   */\n      tag_97\n      jump\t// in\n    tag_177:\n        /* \"#utility.yul\":5232:5318   */\n      swap1\n      pop\n        /* \"#utility.yul\":5012:5325   */\n      swap3\n      swap2\n      pop\n      pop\n      jump\t// out\n        /* \"#utility.yul\":5331:5511   */\n    tag_98:\n        /* \"#utility.yul\":5379:5456   */\n      0x4e487b7100000000000000000000000000000000000000000000000000000000\n        /* \"#utility.yul\":5376:5377   */\n      0x00\n        /* \"#utility.yul\":5369:5457   */\n      mstore\n        /* \"#utility.yul\":5476:5480   */\n      0x22\n        /* \"#utility.yul\":5473:5474   */\n      0x04\n        /* \"#utility.yul\":5466:5481   */\n      mstore\n        /* \"#utility.yul\":5500:5504   */\n      0x24\n        /* \"#utility.yul\":5497:5498   */\n      0x00\n        /* \"#utility.yul\":5490:5505   */\n      revert\n        /* \"#utility.yul\":5517:5837   */\n    tag_53:\n        /* \"#utility.yul\":5561:5567   */\n      0x00\n        /* \"#utility.yul\":5598:5599   */\n      0x02\n        /* \"#utility.yul\":5592:5596   */\n      dup3\n        /* \"#utility.yul\":5588:5600   */\n      div\n        /* \"#utility.yul\":5578:5600   */\n      swap1\n      pop\n        /* \"#utility.yul\":5645:5646   */\n      0x01\n        /* \"#utility.yul\":5639:5643   */\n      dup3\n        /* \"#utility.yul\":5635:5647   */\n      and\n        /* \"#utility.yul\":5666:5684   */\n      dup1\n        /* \"#utility.yul\":5656:5737   */\n      tag_180\n      jumpi\n        /* \"#utility.yul\":5722:5726   */\n      0x7f\n        /* \"#utility.yul\":5714:5720   */\n      dup3\n        /* \"#utility.yul\":5710:5727   */\n      and\n        /* \"#utility.yul\":5700:5727   */\n      swap2\n      pop\n        /* \"#utility.yul\":5656:5737   */\n    tag_180:\n        /* \"#utility.yul\":5784:5786   */\n      0x20\n        /* \"#utility.yul\":5776:5782   */\n      dup3\n        /* \"#utility.yul\":5773:5787   */\n      lt\n        /* \"#utility.yul\":5753:5771   */\n      dup2\n        /* \"#utility.yul\":5750:5788   */\n      sub\n        /* \"#utility.yul\":5747:5831   */\n      tag_181\n      jumpi\n        /* \"#utility.yul\":5803:5821   */\n      tag_182\n      tag_98\n      jump\t// in\n    tag_182:\n        /* \"#utility.yul\":5747:5831   */\n    tag_181:\n        /* \"#utility.yul\":5568:5837   */\n      pop\n        /* \"#utility.yul\":5517:5837   */\n      swap2\n      swap1\n      pop\n      jump\t// out\n        /* \"#utility.yul\":5843:5984   */\n    tag_99:\n        /* \"#utility.yul\":5892:5896   */\n      0x00\n        /* \"#utility.yul\":5915:5918   */\n      dup2\n        /* \"#utility.yul\":5907:5918   */\n      swap1\n      pop\n        /* \"#utility.yul\":5938:5941   */\n      dup2\n        /* \"#utility.yul\":5935:5936   */\n      0x00\n        /* \"#utility.yul\":5928:5942   */\n      mstore\n        /* \"#utility.yul\":5972:5976   */\n      0x20\n        /* \"#utility.yul\":5969:5970   */\n      0x00\n        /* \"#utility.yul\":5959:5977   */\n      keccak256\n        /* \"#utility.yul\":5951:5977   */\n      swap1\n      pop\n        /* \"#utility.yul\":5843:5984   */\n      swap2\n      swap1\n      pop\n      jump\t// out\n        /* \"#utility.yul\":5990:6083   */\n    tag_100:\n        /* \"#utility.yul\":6027:6033   */\n      0x00\n        /* \"#utility.yul\":6074:6076   */\n      0x20\n        /* \"#utility.yul\":6069:6071   */\n      0x1f\n        /* \"#utility.yul\":6062:6067   */\n      dup4\n        /* \"#utility.yul\":6058:6072   */\n      add\n        /* \"#utility.yul\":6054:6077   */\n      div\n        /* \"#utility.yul\":6044:6077   */\n      swap1\n      pop\n        /* \"#utility.yul\":5990:6083   */\n      swap2\n      swap1\n      pop\n      jump\t// out\n        /* \"#utility.yul\":6089:6196   */\n    tag_101:\n        /* \"#utility.yul\":6133:6141   */\n      0x00\n        /* \"#utility.yul\":6183:6188   */\n      dup3\n        /* \"#utility.yul\":6177:6181   */\n      dup3\n        /* \"#utility.yul\":6173:6189   */\n      shl\n        /* \"#utility.yul\":6152:6189   */\n      swap1\n      pop\n        /* \"#utility.yul\":6089:6196   */\n      swap3\n      swap2\n      pop\n      pop\n      jump\t// out\n        /* \"#utility.yul\":6202:6595   */\n    tag_102:\n        /* \"#utility.yul\":6271:6277   */\n      0x00\n        /* \"#utility.yul\":6321:6322   */\n      0x08\n        /* \"#utility.yul\":6309:6319   */\n      dup4\n        /* \"#utility.yul\":6305:6323   */\n      mul\n        /* \"#utility.yul\":6344:6441   */\n      tag_187\n        /* \"#utility.yul\":6374:6440   */\n      0xffffffffffffffffffffffffffffffffffffffffffffffffffffffffffffffff\n        /* \"#utility.yul\":6363:6372   */\n      dup3\n        /* \"#utility.yul\":6344:6441   */\n      tag_101\n      jump\t// in\n    tag_187:\n        /* \"#utility.yul\":6462:6501   */\n      tag_188\n        /* \"#utility.yul\":6492:6500   */\n      dup7\n        /* \"#utility.yul\":6481:6490   */\n      dup4\n        /* \"#utility.yul\":6462:6501   */\n      tag_101\n      jump\t// in\n    tag_188:\n        /* \"#utility.yul\":6450:6501   */\n      swap6\n      pop\n        /* \"#utility.yul\":6534:6538   */\n      dup1\n        /* \"#utility.yul\":6530:6539   */\n      not\n        /* \"#utility.yul\":6523:6528   */\n      dup5\n        /* \"#utility.yul\":6519:6540   */\n      and\n        /* \"#utility.yul\":6510:6540   */\n      swap4\n      pop\n        /* \"#utility.yul\":6583:6587   */\n      dup1\n        /* \"#utility.yul\":6573:6581   */\n      dup7\n        /* \"#utility.yul\":6569:6588   */\n      and\n        /* \"#utility.yul\":6562:6567   */\n      dup5\n        /* \"#utility.yul\":6559:6589   */\n      or\n        /* \"#utility.yul\":6549:6589   */\n      swap3\n      pop\n        /* \"#utility.yul\":6278:6595   */\n      pop\n      pop\n        /* \"#utility.yul\":6202:6595   */\n      swap4\n      swap3\n      pop\n      pop\n      pop\n      jump\t// out\n        /* \"#utility.yul\":6601:6678   */\n    tag_103:\n        /* \"#utility.yul\":6638:6645   */\n      0x00\n        /* \"#utility.yul\":6667:6672   */\n      dup2\n        /* \"#utility.yul\":6656:6672   */\n      swap1\n      pop\n        /* \"#utility.yul\":6601:6678   */\n      swap2\n      swap1\n      pop\n      jump\t// out\n        /* \"#utility.yul\":6684:6744   */\n    tag_104:\n        /* \"#utility.yul\":6712:6715   */\n      0x00\n        /* \"#utility.yul\":6733:6738   */\n      dup2\n        /* \"#utility.yul\":6726:6738   */\n      swap1\n      pop\n        /* \"#utility.yul\":6684:6744   */\n      swap2\n      swap1\n      pop\n      jump\t// out\n        /* \"#utility.yul\":6750:6892   */\n    tag_105:\n        /* \"#utility.yul\":6800:6809   */\n      0x00\n        /* \"#utility.yul\":6833:6886   */\n      tag_192\n        /* \"#utility.yul\":6851:6885   */\n      tag_193\n        /* \"#utility.yul\":6860:6884   */\n      tag_194\n        /* \"#utility.yul\":6878:6883   */\n      dup5\n        /* \"#utility.yul\":6860:6884   */\n      tag_103\n      jump\t// in\n    tag_194:\n        /* \"#utility.yul\":6851:6885   */\n      tag_104\n      jump\t// in\n    tag_193:\n        /* \"#utility.yul\":6833:6886   */\n      tag_103\n      jump\t// in\n    tag_192:\n        /* \"#utility.yul\":6820:6886   */\n      swap1\n      pop\n        /* \"#utility.yul\":6750:6892   */\n      swap2\n      swap1\n      pop\n      jump\t// out\n        /* \"#utility.yul\":6898:6973   */\n    tag_106:\n        /* \"#utility.yul\":6941:6944   */\n      0x00\n        /* \"#utility.yul\":6962:6967   */\n      dup2\n        /* \"#utility.yul\":6955:6967   */\n      swap1\n      pop\n        /* \"#utility.yul\":6898:6973   */\n      swap2\n      swap1\n      pop\n      jump\t// out\n        /* \"#utility.yul\":6979:7248   */\n    tag_107:\n        /* \"#utility.yul\":7089:7128   */\n      tag_197\n        /* \"#utility.yul\":7120:7127   */\n      dup4\n        /* \"#utility.yul\":7089:7128   */\n      tag_105\n      jump\t// in\n    tag_197:\n        /* \"#utility.yul\":7150:7241   */\n      tag_198\n        /* \"#utility.yul\":7199:7240   */\n      tag_199\n        /* \"#utility.yul\":7223:7239   */\n      dup3\n        /* \"#utility.yul\":7199:7240   */\n      tag_106\n      jump\t// in\n    tag_199:\n        /* \"#utility.yul\":7191:7197   */\n      dup5\n        /* \"#utility.yul\":7184:7188   */\n      dup5\n        /* \"#utility.yul\":7178:7189   */\n      sload\n        /* \"#utility.yul\":7150:7241   */\n      tag_102\n      jump\t// in\n    tag_198:\n        /* \"#utility.yul\":7144:7148   */\n      dup3\n        /* \"#utility.yul\":7137:7242   */\n      sstore\n        /* \"#utility.yul\":7055:7248   */\n      pop\n        /* \"#utility.yul\":6979:7248   */\n      pop\n      pop\n      pop\n      jump\t// out\n        /* \"#utility.yul\":7254:7327   */\n    tag_108:\n        /* \"#utility.yul\":7299:7302   */\n      0x00\n        /* \"#utility.yul\":7254:7327   */\n      swap1\n      jump\t// out\n        /* \"#utility.yul\":7333:7522   */\n    tag_109:\n        /* \"#utility.yul\":7410:7442   */\n      tag_202\n      tag_108\n      jump\t// in\n    tag_202:\n        /* \"#utility.yul\":7451:7516   */\n      tag_203\n        /* \"#utility.yul\":7509:7515   */\n      dup2\n        /* \"#utility.yul\":7501:7507   */\n      dup5\n        /* \"#utility.yul\":7495:7499   */\n      dup5\n        /* \"#utility.yul\":7451:7516   */\n      tag_107\n      jump\t// in\n    tag_203:\n        /* \"#utility.yul\":7386:7522   */\n      pop\n        /* \"#utility.yul\":7333:7522   */\n      pop\n      pop\n      jump\t// out\n        /* \"#utility.yul\":7528:7714   */\n    tag_110:\n        /* \"#utility.yul\":7588:7708   */\n    tag_205:\n        /* \"#utility.yul\":7605:7608   */\n      dup2\n        /* \"#utility.yul\":7598:7603   */\n      dup2\n        /* \"#utility.yul\":7595:7609   */\n      lt\n        /* \"#utility.yul\":7588:7708   */\n      iszero\n      tag_207\n      jumpi\n        /* \"#utility.yul\":7659:7698   */\n      tag_208\n        /* \"#utility.yul\":7696:7697   */\n      0x00\n        /* \"#utility.yul\":7689:7694   */\n      dup3\n        /* \"#utility.yul\":7659:7698   */\n      tag_109\n      jump\t// in\n    tag_208:\n        /* \"#utility.yul\":7632:7633   */\n      0x01\n        /* \"#utility.yul\":7625:7630   */\n      dup2\n        /* \"#utility.yul\":7621:7634   */\n      add\n        /* \"#utility.yul\":7612:7634   */\n      swap1\n      pop\n        /* \"#utility.yul\":7588:7708   */\n      jump(tag_205)\n    tag_207:\n        /* \"#utility.yul\":7528:7714   */\n      pop\n      pop\n      jump\t// out\n        /* \"#utility.yul\":7720:8263   */\n    tag_111:\n        /* \"#utility.yul\":7821:7823   */\n      0x1f\n        /* \"#utility.yul\":7816:7819   */\n      dup3\n        /* \"#utility.yul\":7813:7824   */\n      gt\n        /* \"#utility.yul\":7810:8256   */\n      iszero\n      tag_210\n      jumpi\n        /* \"#utility.yul\":7855:7893   */\n      tag_211\n        /* \"#utility.yul\":7887:7892   */\n      dup2\n        /* \"#utility.yul\":7855:7893   */\n      tag_99\n      jump\t// in\n    tag_211:\n        /* \"#utility.yul\":7939:7968   */\n      tag_212\n        /* \"#utility.yul\":7957:7967   */\n      dup5\n        /* \"#utility.yul\":7939:7968   */\n      tag_100\n      jump\t// in\n    tag_212:\n        /* \"#utility.yul\":7929:7937   */\n      dup2\n        /* \"#utility.yul\":7925:7969   */\n      add\n        /* \"#utility.yul\":8122:8124   */\n      0x20\n        /* \"#utility.yul\":8110:8120   */\n      dup6\n        /* \"#utility.yul\":8107:8125   */\n      lt\n        /* \"#utility.yul\":8104:8153   */\n      iszero\n      tag_213\n      jumpi\n        /* \"#utility.yul\":8143:8151   */\n      dup2\n        /* \"#utility.yul\":8128:8151   */\n      swap1\n      pop\n        /* \"#utility.yul\":8104:8153   */\n    tag_213:\n        /* \"#utility.yul\":8166:8246   */\n      tag_214\n        /* \"#utility.yul\":8222:8244   */\n      tag_215\n        /* \"#utility.yul\":8240:8243   */\n      dup6\n        /* \"#utility.yul\":8222:8244   */\n      tag_100\n      jump\t// in\n    tag_215:\n        /* \"#utility.yul\":8212:8220   */\n      dup4\n        /* \"#utility.yul\":8208:8245   */\n      add\n        /* \"#utility.yul\":8195:8206   */\n      dup3\n        /* \"#utility.yul\":8166:8246   */\n      tag_110\n      jump\t// in\n    tag_214:\n        /* \"#utility.yul\":7825:8256   */\n      pop\n      pop\n        /* \"#utility.yul\":7810:8256   */\n    tag_210:\n        /* \"#utility.yul\":7720:8263   */\n      pop\n      pop\n      pop\n      jump\t// out\n        /* \"#utility.yul\":8269:8386   */\n    tag_112:\n        /* \"#utility.yul\":8323:8331   */\n      0x00\n        /* \"#utility.yul\":8373:8378   */\n      dup3\n        /* \"#utility.yul\":8367:8371   */\n      dup3\n        /* \"#utility.yul\":8363:8379   */\n      shr\n        /* \"#utility.yul\":8342:8379   */\n      swap1\n      pop\n        /* \"#utility.yul\":8269:8386   */\n      swap3\n      swap2\n      pop\n      pop\n      jump\t// out\n        /* \"#utility.yul\":8392:8561   */\n    tag_113:\n        /* \"#utility.yul\":8436:8442   */\n      0x00\n        /* \"#utility.yul\":8469:8520   */\n      tag_218\n        /* \"#utility.yul\":8517:8518   */\n      0x00\n        /* \"#utility.yul\":8513:8519   */\n      not\n        /* \"#utility.yul\":8505:8510   */\n      dup5\n        /* \"#utility.yul\":8502:8503   */\n      0x08\n        /* \"#utility.yul\":8498:8511   */\n      mul\n        /* \"#utility.yul\":8469:8520   */\n      tag_112\n      jump\t// in\n    tag_218:\n        /* \"#utility.yul\":8465:8521   */\n      not\n        /* \"#utility.yul\":8550:8554   */\n      dup1\n        /* \"#utility.yul\":8544:8548   */\n      dup4\n        /* \"#utility.yul\":8540:8555   */\n      and\n        /* \"#utility.yul\":8530:8555   */\n      swap2\n      pop\n        /* \"#utility.yul\":8443:8561   */\n      pop\n        /* \"#utility.yul\":8392:8561   */\n      swap3\n      swap2\n      pop\n      pop\n      jump\t// out\n        /* \"#utility.yul\":8566:8861   */\n    tag_114:\n        /* \"#utility.yul\":8642:8646   */\n      0x00\n        /* \"#utility.yul\":8788:8817   */\n      tag_220\n        /* \"#utility.yul\":8813:8816   */\n      dup4\n        /* \"#utility.yul\":8807:8811   */\n      dup4\n        /* \"#utility.yul\":8788:8817   */\n      tag_113\n      jump\t// in\n    tag_220:\n        /* \"#utility.yul\":8780:8817   */\n      swap2\n      pop\n        /* \"#utility.yul\":8850:8853   */\n      dup3\n        /* \"#utility.yul\":8847:8848   */\n      0x02\n        /* \"#utility.yul\":8843:8854   */\n      mul\n        /* \"#utility.yul\":8837:8841   */\n      dup3\n        /* \"#utility.yul\":8834:8855   */\n      or\n        /* \"#utility.yul\":8826:8855   */\n      swap1\n      pop\n        /* \"#utility.yul\":8566:8861   */\n      swap3\n      swap2\n      pop\n      pop\n      jump\t// out\n        /* \"#utility.yul\":8866:10261   */\n    tag_46:\n        /* \"#utility.yul\":8983:9020   */\n      tag_222\n        /* \"#utility.yul\":9016:9019   */\n      dup3\n        /* \"#utility.yul\":8983:9020   */\n      tag_94\n      jump\t// in\n    tag_222:\n        /* \"#utility.yul\":9085:9103   */\n      0xffffffffffffffff\n        /* \"#utility.yul\":9077:9083   */\n      dup2\n        /* \"#utility.yul\":9074:9104   */\n      gt\n        /* \"#utility.yul\":9071:9127   */\n      iszero\n      tag_223\n      jumpi\n        /* \"#utility.yul\":9107:9125   */\n      tag_224\n      tag_83\n      jump\t// in\n    tag_224:\n        /* \"#utility.yul\":9071:9127   */\n    tag_223:\n        /* \"#utility.yul\":9151:9189   */\n      tag_225\n        /* \"#utility.yul\":9183:9187   */\n      dup3\n        /* \"#utility.yul\":9177:9188   */\n      sload\n        /* \"#utility.yul\":9151:9189   */\n      tag_53\n      jump\t// in\n    tag_225:\n        /* \"#utility.yul\":9236:9303   */\n      tag_226\n        /* \"#utility.yul\":9296:9302   */\n      dup3\n        /* \"#utility.yul\":9288:9294   */\n      dup3\n        /* \"#utility.yul\":9282:9286   */\n      dup6\n        /* \"#utility.yul\":9236:9303   */\n      tag_111\n      jump\t// in\n    tag_226:\n        /* \"#utility.yul\":9330:9331   */\n      0x00\n        /* \"#utility.yul\":9354:9358   */\n      0x20\n        /* \"#utility.yul\":9341:9358   */\n      swap1\n      pop\n        /* \"#utility.yul\":9386:9388   */\n      0x1f\n        /* \"#utility.yul\":9378:9384   */\n      dup4\n        /* \"#utility.yul\":9375:9389   */\n      gt\n        /* \"#utility.yul\":9403:9404   */\n      0x01\n        /* \"#utility.yul\":9398:10016   */\n      dup2\n      eq\n      tag_228\n      jumpi\n        /* \"#utility.yul\":10060:10061   */\n      0x00\n        /* \"#utility.yul\":10077:10083   */\n      dup5\n        /* \"#utility.yul\":10074:10151   */\n      iszero\n      tag_229\n      jumpi\n        /* \"#utility.yul\":10126:10135   */\n      dup3\n        /* \"#utility.yul\":10121:10124   */\n      dup8\n        /* \"#utility.yul\":10117:10136   */\n      add\n        /* \"#utility.yul\":10111:10137   */\n      mload\n        /* \"#utility.yul\":10102:10137   */\n      swap1\n      pop\n        /* \"#utility.yul\":10074:10151   */\n    tag_229:\n        /* \"#utility.yul\":10177:10244   */\n      tag_230\n        /* \"#utility.yul\":10237:10243   */\n      dup6\n        /* \"#utility.yul\":10230:10235   */\n      dup3\n        /* \"#utility.yul\":10177:10244   */\n      tag_114\n      jump\t// in\n    tag_230:\n        /* \"#utility.yul\":10171:10175   */\n      dup7\n        /* \"#utility.yul\":10164:10245   */\n      sstore\n        /* \"#utility.yul\":10033:10255   */\n      pop\n        /* \"#utility.yul\":9368:10255   */\n      jump(tag_227)\n        /* \"#utility.yul\":9398:10016   */\n    tag_228:\n        /* \"#utility.yul\":9450:9454   */\n      0x1f\n        /* \"#utility.yul\":9446:9455   */\n      not\n        /* \"#utility.yul\":9438:9444   */\n      dup5\n        /* \"#utility.yul\":9434:9456   */\n      and\n        /* \"#utility.yul\":9484:9521   */\n      tag_231\n        /* \"#utility.yul\":9516:9520   */\n      dup7\n        /* \"#utility.yul\":9484:9521   */\n      tag_99\n      jump\t// in\n    tag_231:\n        /* \"#utility.yul\":9543:9544   */\n      0x00\n        /* \"#utility.yul\":9557:9765   */\n    tag_232:\n        /* \"#utility.yul\":9571:9578   */\n      dup3\n        /* \"#utility.yul\":9568:9569   */\n      dup2\n        /* \"#utility.yul\":9565:9579   */\n      lt\n        /* \"#utility.yul\":9557:9765   */\n      iszero\n      tag_234\n      jumpi\n        /* \"#utility.yul\":9650:9659   */\n      dup5\n        /* \"#utility.yul\":9645:9648   */\n      dup10\n        /* \"#utility.yul\":9641:9660   */\n      add\n        /* \"#utility.yul\":9635:9661   */\n      mload\n        /* \"#utility.yul\":9627:9633   */\n      dup3\n        /* \"#utility.yul\":9620:9662   */\n      sstore\n        /* \"#utility.yul\":9701:9702   */\n      0x01\n        /* \"#utility.yul\":9693:9699   */\n      dup3\n        /* \"#utility.yul\":9689:9703   */\n      add\n        /* \"#utility.yul\":9679:9703   */\n      swap2\n      pop\n        /* \"#utility.yul\":9748:9750   */\n      0x20\n        /* \"#utility.yul\":9737:9746   */\n      dup6\n        /* \"#utility.yul\":9733:9751   */\n      add\n        /* \"#utility.yul\":9720:9751   */\n      swap5\n      pop\n        /* \"#utility.yul\":9594:9598   */\n      0x20\n        /* \"#utility.yul\":9591:9592   */\n      dup2\n        /* \"#utility.yul\":9587:9599   */\n      add\n        /* \"#utility.yul\":9582:9599   */\n      swap1\n      pop\n        /* \"#utility.yul\":9557:9765   */\n      jump(tag_232)\n    tag_234:\n        /* \"#utility.yul\":9793:9799   */\n      dup7\n        /* \"#utility.yul\":9784:9791   */\n      dup4\n        /* \"#utility.yul\":9781:9800   */\n      lt\n        /* \"#utility.yul\":9778:9957   */\n      iszero\n      tag_235\n      jumpi\n        /* \"#utility.yul\":9851:9860   */\n      dup5\n        /* \"#utility.yul\":9846:9849   */\n      dup10\n        /* \"#utility.yul\":9842:9861   */\n      add\n        /* \"#utility.yul\":9836:9862   */\n      mload\n        /* \"#utility.yul\":9894:9942   */\n      tag_236\n        /* \"#utility.yul\":9936:9940   */\n      0x1f\n        /* \"#utility.yul\":9928:9934   */\n      dup10\n        /* \"#utility.yul\":9924:9941   */\n      and\n        /* \"#utility.yul\":9913:9922   */\n      dup3\n        /* \"#utility.yul\":9894:9942   */\n      tag_113\n      jump\t// in\n    tag_236:\n        /* \"#utility.yul\":9886:9892   */\n      dup4\n        /* \"#utility.yul\":9879:9943   */\n      sstore\n        /* \"#utility.yul\":9801:9957   */\n      pop\n        /* \"#utility.yul\":9778:9957   */\n    tag_235:\n        /* \"#utility.yul\":10003:10004   */\n      0x01\n        /* \"#utility.yul\":9999:10000   */\n      0x02\n        /* \"#utility.yul\":9991:9997   */\n      dup9\n        /* \"#utility.yul\":9987:10001   */\n      mul\n        /* \"#utility.yul\":9983:10005   */\n      add\n        /* \"#utility.yul\":9977:9981   */\n      dup9\n        /* \"#utility.yul\":9970:10006   */\n      sstore\n        /* \"#utility.yul\":9405:10016   */\n      pop\n      pop\n      pop\n        /* \"#utility.yul\":9368:10255   */\n    tag_227:\n      pop\n        /* \"#utility.yul\":8958:10261   */\n      pop\n      pop\n      pop\n        /* \"#utility.yul\":8866:10261   */\n      pop\n      pop\n      jump\t// out\n\n    auxdata: 0xa26469706673582212204143280bfc9ad57ef18a29a7c98015d864a4f019d32bf9b4562a822fa59c5cea64736f6c63430008180033\n}\n",
				"bytecode": {
					"linkReferences": {},
					"object": "60806040526040518060400160405280600d81526020017f486f6c612044696e616d69636f000000000000000000000000000000000000008152505f90816200004991906200039c565b506040518060400160405280600d81526020017f486f6c6120457374617469636f00000000000000000000000000000000000000815250600190816200009091906200039c565b506040518060400160405280600481526020017f4a75616e0000000000000000000000000000000000000000000000000000000081525060029081620000d791906200039c565b506040518060400160405280600e81526020017f4a75616e40676d61696c2e636f6d000000000000000000000000000000000000815250600390816200011e91906200039c565b5061485860045534801562000131575f80fd5b5062000480565b5f81519050919050565b7f4e487b71000000000000000000000000000000000000000000000000000000005f52604160045260245ffd5b7f4e487b71000000000000000000000000000000000000000000000000000000005f52602260045260245ffd5b5f6002820490506001821680620001b457607f821691505b602082108103620001ca57620001c96200016f565b5b50919050565b5f819050815f5260205f209050919050565b5f6020601f8301049050919050565b5f82821b905092915050565b5f600883026200022e7fffffffffffffffffffffffffffffffffffffffffffffffffffffffffffffffff82620001f1565b6200023a8683620001f1565b95508019841693508086168417925050509392505050565b5f819050919050565b5f819050919050565b5f620002846200027e620002788462000252565b6200025b565b62000252565b9050919050565b5f819050919050565b6200029f8362000264565b620002b7620002ae826200028b565b848454620001fd565b825550505050565b5f90565b620002cd620002bf565b620002da81848462000294565b505050565b5b818110156200030157620002f55f82620002c3565b600181019050620002e0565b5050565b601f82111562000350576200031a81620001d0565b6200032584620001e2565b8101602085101562000335578190505b6200034d6200034485620001e2565b830182620002df565b50505b505050565b5f82821c905092915050565b5f620003725f198460080262000355565b1980831691505092915050565b5f6200038c838362000361565b9150826002028217905092915050565b620003a78262000138565b67ffffffffffffffff811115620003c357620003c262000142565b5b620003cf82546200019c565b620003dc82828562000305565b5f60209050601f83116001811462000412575f8415620003fd578287015190505b6200040985826200037f565b86555062000478565b601f1984166200042286620001d0565b5f5b828110156200044b5784890151825560018201915060208501945060208101905062000424565b868310156200046b578489015162000467601f89168262000361565b8355505b6001600288020188555050505b505050505050565b6109dd806200048e5f395ff3fe608060405234801561000f575f80fd5b5060043610610091575f3560e01c8063a40befcc11610064578063a40befcc14610107578063a53e8b5c14610125578063a6d169a714610143578063eea3f72f1461015f578063fac3302c1461017d57610091565b806302413d13146100955780631606ee96146100b15780635d528493146100cf5780639e9b1522146100eb575b5f80fd5b6100af60048036038101906100aa919061056e565b61019b565b005b6100b96101ae565b6040516100c691906105cd565b60405180910390f35b6100e960048036038101906100e49190610610565b6101b7565b005b6101056004803603810190610100919061056e565b6101c1565b005b61010f6101d3565b60405161011c91906106b5565b60405180910390f35b61012d610263565b60405161013a91906106b5565b60405180910390f35b61015d6004803603810190610158919061056e565b6102f3565b005b610167610306565b60405161017491906106b5565b60405180910390f35b610185610395565b60405161019291906106b5565b60405180910390f35b80600390816101aa91906108d8565b5050565b5f600454905090565b8060048190555050565b805f90816101cf91906108d8565b5050565b6060600280546101e290610702565b80601f016020809104026020016040519081016040528092919081815260200182805461020e90610702565b80156102595780601f1061023057610100808354040283529160200191610259565b820191905f5260205f20905b81548152906001019060200180831161023c57829003601f168201915b5050505050905090565b60606003805461027290610702565b80601f016020809104026020016040519081016040528092919081815260200182805461029e90610702565b80156102e95780601f106102c0576101008083540402835291602001916102e9565b820191905f5260205f20905b8154815290600101906020018083116102cc57829003601f168201915b5050505050905090565b806002908161030291906108d8565b5050565b60605f805461031490610702565b80601f016020809104026020016040519081016040528092919081815260200182805461034090610702565b801561038b5780601f106103625761010080835404028352916020019161038b565b820191905f5260205f20905b81548152906001019060200180831161036e57829003601f168201915b5050505050905090565b600180546103a290610702565b80601f01602080910402602001604051908101604052809291908181526020018280546103ce90610702565b80156104195780601f106103f057610100808354040283529160200191610419565b820191905f5260205f20905b8154815290600101906020018083116103fc57829003601f168201915b505050505081565b5f604051905090565b5f80fd5b5f80fd5b5f80fd5b5f80fd5b5f601f19601f8301169050919050565b7f4e487b71000000000000000000000000000000000000000000000000000000005f52604160045260245ffd5b6104808261043a565b810181811067ffffffffffffffff8211171561049f5761049e61044a565b5b80604052505050565b5f6104b1610421565b90506104bd8282610477565b919050565b5f67ffffffffffffffff8211156104dc576104db61044a565b5b6104e58261043a565b9050602081019050919050565b828183375f83830152505050565b5f61051261050d846104c2565b6104a8565b90508281526020810184848401111561052e5761052d610436565b5b6105398482856104f2565b509392505050565b5f82601f83011261055557610554610432565b5b8135610565848260208601610500565b91505092915050565b5f602082840312156105835761058261042a565b5b5f82013567ffffffffffffffff8111156105a05761059f61042e565b5b6105ac84828501610541565b91505092915050565b5f819050919050565b6105c7816105b5565b82525050565b5f6020820190506105e05f8301846105be565b92915050565b6105ef816105b5565b81146105f9575f80fd5b50565b5f8135905061060a816105e6565b92915050565b5f602082840312156106255761062461042a565b5b5f610632848285016105fc565b91505092915050565b5f81519050919050565b5f82825260208201905092915050565b5f5b83811015610672578082015181840152602081019050610657565b5f8484015250505050565b5f6106878261063b565b6106918185610645565b93506106a1818560208601610655565b6106aa8161043a565b840191505092915050565b5f6020820190508181035f8301526106cd818461067d565b905092915050565b7f4e487b71000000000000000000000000000000000000000000000000000000005f52602260045260245ffd5b5f600282049050600182168061071957607f821691505b60208210810361072c5761072b6106d5565b5b50919050565b5f819050815f5260205f209050919050565b5f6020601f8301049050919050565b5f82821b905092915050565b5f6008830261078e7fffffffffffffffffffffffffffffffffffffffffffffffffffffffffffffffff82610753565b6107988683610753565b95508019841693508086168417925050509392505050565b5f819050919050565b5f819050919050565b5f6107dc6107d76107d2846107b0565b6107b9565b6107b0565b9050919050565b5f819050919050565b6107f5836107c2565b610809610801826107e3565b84845461075f565b825550505050565b5f90565b61081d610811565b6108288184846107ec565b505050565b5b8181101561084b576108405f82610815565b60018101905061082e565b5050565b601f8211156108905761086181610732565b61086a84610744565b81016020851015610879578190505b61088d61088585610744565b83018261082d565b50505b505050565b5f82821c905092915050565b5f6108b05f1984600802610895565b1980831691505092915050565b5f6108c883836108a1565b9150826002028217905092915050565b6108e18261063b565b67ffffffffffffffff8111156108fa576108f961044a565b5b6109048254610702565b61090f82828561084f565b5f60209050601f831160018114610940575f841561092e578287015190505b61093885826108bd565b86555061099f565b601f19841661094e86610732565b5f5b8281101561097557848901518255600182019150602085019450602081019050610950565b86831015610992578489015161098e601f8916826108a1565b8355505b6001600288020188555050505b50505050505056fea26469706673582212204143280bfc9ad57ef18a29a7c98015d864a4f019d32bf9b4562a822fa59c5cea64736f6c63430008180033",
					"opcodes": "PUSH1 0x80 PUSH1 0x40 MSTORE PUSH1 0x40 MLOAD DUP1 PUSH1 0x40 ADD PUSH1 0x40 MSTORE DUP1 PUSH1 0xD DUP2 MSTORE PUSH1 0x20 ADD PUSH32 0x486F6C612044696E616D69636F00000000000000000000000000000000000000 DUP2 MSTORE POP PUSH0 SWAP1 DUP2 PUSH3 0x49 SWAP2 SWAP1 PUSH3 0x39C JUMP JUMPDEST POP PUSH1 0x40 MLOAD DUP1 PUSH1 0x40 ADD PUSH1 0x40 MSTORE DUP1 PUSH1 0xD DUP2 MSTORE PUSH1 0x20 ADD PUSH32 0x486F6C6120457374617469636F00000000000000000000000000000000000000 DUP2 MSTORE POP PUSH1 0x1 SWAP1 DUP2 PUSH3 0x90 SWAP2 SWAP1 PUSH3 0x39C JUMP JUMPDEST POP PUSH1 0x40 MLOAD DUP1 PUSH1 0x40 ADD PUSH1 0x40 MSTORE DUP1 PUSH1 0x4 DUP2 MSTORE PUSH1 0x20 ADD PUSH32 0x4A75616E00000000000000000000000000000000000000000000000000000000 DUP2 MSTORE POP PUSH1 0x2 SWAP1 DUP2 PUSH3 0xD7 SWAP2 SWAP1 PUSH3 0x39C JUMP JUMPDEST POP PUSH1 0x40 MLOAD DUP1 PUSH1 0x40 ADD PUSH1 0x40 MSTORE DUP1 PUSH1 0xE DUP2 MSTORE PUSH1 0x20 ADD PUSH32 0x4A75616E40676D61696C2E636F6D000000000000000000000000000000000000 DUP2 MSTORE POP PUSH1 0x3 SWAP1 DUP2 PUSH3 0x11E SWAP2 SWAP1 PUSH3 0x39C JUMP JUMPDEST POP PUSH2 0x4858 PUSH1 0x4 SSTORE CALLVALUE DUP1 ISZERO PUSH3 0x131 JUMPI PUSH0 DUP1 REVERT JUMPDEST POP PUSH3 0x480 JUMP JUMPDEST PUSH0 DUP2 MLOAD SWAP1 POP SWAP2 SWAP1 POP JUMP JUMPDEST PUSH32 0x4E487B7100000000000000000000000000000000000000000000000000000000 PUSH0 MSTORE PUSH1 0x41 PUSH1 0x4 MSTORE PUSH1 0x24 PUSH0 REVERT JUMPDEST PUSH32 0x4E487B7100000000000000000000000000000000000000000000000000000000 PUSH0 MSTORE PUSH1 0x22 PUSH1 0x4 MSTORE PUSH1 0x24 PUSH0 REVERT JUMPDEST PUSH0 PUSH1 0x2 DUP3 DIV SWAP1 POP PUSH1 0x1 DUP3 AND DUP1 PUSH3 0x1B4 JUMPI PUSH1 0x7F DUP3 AND SWAP2 POP JUMPDEST PUSH1 0x20 DUP3 LT DUP2 SUB PUSH3 0x1CA JUMPI PUSH3 0x1C9 PUSH3 0x16F JUMP JUMPDEST JUMPDEST POP SWAP2 SWAP1 POP JUMP JUMPDEST PUSH0 DUP2 SWAP1 POP DUP2 PUSH0 MSTORE PUSH1 0x20 PUSH0 KECCAK256 SWAP1 POP SWAP2 SWAP1 POP JUMP JUMPDEST PUSH0 PUSH1 0x20 PUSH1 0x1F DUP4 ADD DIV SWAP1 POP SWAP2 SWAP1 POP JUMP JUMPDEST PUSH0 DUP3 DUP3 SHL SWAP1 POP SWAP3 SWAP2 POP POP JUMP JUMPDEST PUSH0 PUSH1 0x8 DUP4 MUL PUSH3 0x22E PUSH32 0xFFFFFFFFFFFFFFFFFFFFFFFFFFFFFFFFFFFFFFFFFFFFFFFFFFFFFFFFFFFFFFFF DUP3 PUSH3 0x1F1 JUMP JUMPDEST PUSH3 0x23A DUP7 DUP4 PUSH3 0x1F1 JUMP JUMPDEST SWAP6 POP DUP1 NOT DUP5 AND SWAP4 POP DUP1 DUP7 AND DUP5 OR SWAP3 POP POP POP SWAP4 SWAP3 POP POP POP JUMP JUMPDEST PUSH0 DUP2 SWAP1 POP SWAP2 SWAP1 POP JUMP JUMPDEST PUSH0 DUP2 SWAP1 POP SWAP2 SWAP1 POP JUMP JUMPDEST PUSH0 PUSH3 0x284 PUSH3 0x27E PUSH3 0x278 DUP5 PUSH3 0x252 JUMP JUMPDEST PUSH3 0x25B JUMP JUMPDEST PUSH3 0x252 JUMP JUMPDEST SWAP1 POP SWAP2 SWAP1 POP JUMP JUMPDEST PUSH0 DUP2 SWAP1 POP SWAP2 SWAP1 POP JUMP JUMPDEST PUSH3 0x29F DUP4 PUSH3 0x264 JUMP JUMPDEST PUSH3 0x2B7 PUSH3 0x2AE DUP3 PUSH3 0x28B JUMP JUMPDEST DUP5 DUP5 SLOAD PUSH3 0x1FD JUMP JUMPDEST DUP3 SSTORE POP POP POP POP JUMP JUMPDEST PUSH0 SWAP1 JUMP JUMPDEST PUSH3 0x2CD PUSH3 0x2BF JUMP JUMPDEST PUSH3 0x2DA DUP2 DUP5 DUP5 PUSH3 0x294 JUMP JUMPDEST POP POP POP JUMP JUMPDEST JUMPDEST DUP2 DUP2 LT ISZERO PUSH3 0x301 JUMPI PUSH3 0x2F5 PUSH0 DUP3 PUSH3 0x2C3 JUMP JUMPDEST PUSH1 0x1 DUP2 ADD SWAP1 POP PUSH3 0x2E0 JUMP JUMPDEST POP POP JUMP JUMPDEST PUSH1 0x1F DUP3 GT ISZERO PUSH3 0x350 JUMPI PUSH3 0x31A DUP2 PUSH3 0x1D0 JUMP JUMPDEST PUSH3 0x325 DUP5 PUSH3 0x1E2 JUMP JUMPDEST DUP2 ADD PUSH1 0x20 DUP6 LT ISZERO PUSH3 0x335 JUMPI DUP2 SWAP1 POP JUMPDEST PUSH3 0x34D PUSH3 0x344 DUP6 PUSH3 0x1E2 JUMP JUMPDEST DUP4 ADD DUP3 PUSH3 0x2DF JUMP JUMPDEST POP POP JUMPDEST POP POP POP JUMP JUMPDEST PUSH0 DUP3 DUP3 SHR SWAP1 POP SWAP3 SWAP2 POP POP JUMP JUMPDEST PUSH0 PUSH3 0x372 PUSH0 NOT DUP5 PUSH1 0x8 MUL PUSH3 0x355 JUMP JUMPDEST NOT DUP1 DUP4 AND SWAP2 POP POP SWAP3 SWAP2 POP POP JUMP JUMPDEST PUSH0 PUSH3 0x38C DUP4 DUP4 PUSH3 0x361 JUMP JUMPDEST SWAP2 POP DUP3 PUSH1 0x2 MUL DUP3 OR SWAP1 POP SWAP3 SWAP2 POP POP JUMP JUMPDEST PUSH3 0x3A7 DUP3 PUSH3 0x138 JUMP JUMPDEST PUSH8 0xFFFFFFFFFFFFFFFF DUP2 GT ISZERO PUSH3 0x3C3 JUMPI PUSH3 0x3C2 PUSH3 0x142 JUMP JUMPDEST JUMPDEST PUSH3 0x3CF DUP3 SLOAD PUSH3 0x19C JUMP JUMPDEST PUSH3 0x3DC DUP3 DUP3 DUP6 PUSH3 0x305 JUMP JUMPDEST PUSH0 PUSH1 0x20 SWAP1 POP PUSH1 0x1F DUP4 GT PUSH1 0x1 DUP2 EQ PUSH3 0x412 JUMPI PUSH0 DUP5 ISZERO PUSH3 0x3FD JUMPI DUP3 DUP8 ADD MLOAD SWAP1 POP JUMPDEST PUSH3 0x409 DUP6 DUP3 PUSH3 0x37F JUMP JUMPDEST DUP7 SSTORE POP PUSH3 0x478 JUMP JUMPDEST PUSH1 0x1F NOT DUP5 AND PUSH3 0x422 DUP7 PUSH3 0x1D0 JUMP JUMPDEST PUSH0 JUMPDEST DUP3 DUP2 LT ISZERO PUSH3 0x44B JUMPI DUP5 DUP10 ADD MLOAD DUP3 SSTORE PUSH1 0x1 DUP3 ADD SWAP2 POP PUSH1 0x20 DUP6 ADD SWAP5 POP PUSH1 0x20 DUP2 ADD SWAP1 POP PUSH3 0x424 JUMP JUMPDEST DUP7 DUP4 LT ISZERO PUSH3 0x46B JUMPI DUP5 DUP10 ADD MLOAD PUSH3 0x467 PUSH1 0x1F DUP10 AND DUP3 PUSH3 0x361 JUMP JUMPDEST DUP4 SSTORE POP JUMPDEST PUSH1 0x1 PUSH1 0x2 DUP9 MUL ADD DUP9 SSTORE POP POP POP JUMPDEST POP POP POP POP POP POP JUMP JUMPDEST PUSH2 0x9DD DUP1 PUSH3 0x48E PUSH0 CODECOPY PUSH0 RETURN INVALID PUSH1 0x80 PUSH1 0x40 MSTORE CALLVALUE DUP1 ISZERO PUSH2 0xF JUMPI PUSH0 DUP1 REVERT JUMPDEST POP PUSH1 0x4 CALLDATASIZE LT PUSH2 0x91 JUMPI PUSH0 CALLDATALOAD PUSH1 0xE0 SHR DUP1 PUSH4 0xA40BEFCC GT PUSH2 0x64 JUMPI DUP1 PUSH4 0xA40BEFCC EQ PUSH2 0x107 JUMPI DUP1 PUSH4 0xA53E8B5C EQ PUSH2 0x125 JUMPI DUP1 PUSH4 0xA6D169A7 EQ PUSH2 0x143 JUMPI DUP1 PUSH4 0xEEA3F72F EQ PUSH2 0x15F JUMPI DUP1 PUSH4 0xFAC3302C EQ PUSH2 0x17D JUMPI PUSH2 0x91 JUMP JUMPDEST DUP1 PUSH4 0x2413D13 EQ PUSH2 0x95 JUMPI DUP1 PUSH4 0x1606EE96 EQ PUSH2 0xB1 JUMPI DUP1 PUSH4 0x5D528493 EQ PUSH2 0xCF JUMPI DUP1 PUSH4 0x9E9B1522 EQ PUSH2 0xEB JUMPI JUMPDEST PUSH0 DUP1 REVERT JUMPDEST PUSH2 0xAF PUSH1 0x4 DUP1 CALLDATASIZE SUB DUP2 ADD SWAP1 PUSH2 0xAA SWAP2 SWAP1 PUSH2 0x56E JUMP JUMPDEST PUSH2 0x19B JUMP JUMPDEST STOP JUMPDEST PUSH2 0xB9 PUSH2 0x1AE JUMP JUMPDEST PUSH1 0x40 MLOAD PUSH2 0xC6 SWAP2 SWAP1 PUSH2 0x5CD JUMP JUMPDEST PUSH1 0x40 MLOAD DUP1 SWAP2 SUB SWAP1 RETURN JUMPDEST PUSH2 0xE9 PUSH1 0x4 DUP1 CALLDATASIZE SUB DUP2 ADD SWAP1 PUSH2 0xE4 SWAP2 SWAP1 PUSH2 0x610 JUMP JUMPDEST PUSH2 0x1B7 JUMP JUMPDEST STOP JUMPDEST PUSH2 0x105 PUSH1 0x4 DUP1 CALLDATASIZE SUB DUP2 ADD SWAP1 PUSH2 0x100 SWAP2 SWAP1 PUSH2 0x56E JUMP JUMPDEST PUSH2 0x1C1 JUMP JUMPDEST STOP JUMPDEST PUSH2 0x10F PUSH2 0x1D3 JUMP JUMPDEST PUSH1 0x40 MLOAD PUSH2 0x11C SWAP2 SWAP1 PUSH2 0x6B5 JUMP JUMPDEST PUSH1 0x40 MLOAD DUP1 SWAP2 SUB SWAP1 RETURN JUMPDEST PUSH2 0x12D PUSH2 0x263 JUMP JUMPDEST PUSH1 0x40 MLOAD PUSH2 0x13A SWAP2 SWAP1 PUSH2 0x6B5 JUMP JUMPDEST PUSH1 0x40 MLOAD DUP1 SWAP2 SUB SWAP1 RETURN JUMPDEST PUSH2 0x15D PUSH1 0x4 DUP1 CALLDATASIZE SUB DUP2 ADD SWAP1 PUSH2 0x158 SWAP2 SWAP1 PUSH2 0x56E JUMP JUMPDEST PUSH2 0x2F3 JUMP JUMPDEST STOP JUMPDEST PUSH2 0x167 PUSH2 0x306 JUMP JUMPDEST PUSH1 0x40 MLOAD PUSH2 0x174 SWAP2 SWAP1 PUSH2 0x6B5 JUMP JUMPDEST PUSH1 0x40 MLOAD DUP1 SWAP2 SUB SWAP1 RETURN JUMPDEST PUSH2 0x185 PUSH2 0x395 JUMP JUMPDEST PUSH1 0x40 MLOAD PUSH2 0x192 SWAP2 SWAP1 PUSH2 0x6B5 JUMP JUMPDEST PUSH1 0x40 MLOAD DUP1 SWAP2 SUB SWAP1 RETURN JUMPDEST DUP1 PUSH1 0x3 SWAP1 DUP2 PUSH2 0x1AA SWAP2 SWAP1 PUSH2 0x8D8 JUMP JUMPDEST POP POP JUMP JUMPDEST PUSH0 PUSH1 0x4 SLOAD SWAP1 POP SWAP1 JUMP JUMPDEST DUP1 PUSH1 0x4 DUP2 SWAP1 SSTORE POP POP JUMP JUMPDEST DUP1 PUSH0 SWAP1 DUP2 PUSH2 0x1CF SWAP2 SWAP1 PUSH2 0x8D8 JUMP JUMPDEST POP POP JUMP JUMPDEST PUSH1 0x60 PUSH1 0x2 DUP1 SLOAD PUSH2 0x1E2 SWAP1 PUSH2 0x702 JUMP JUMPDEST DUP1 PUSH1 0x1F ADD PUSH1 0x20 DUP1 SWAP2 DIV MUL PUSH1 0x20 ADD PUSH1 0x40 MLOAD SWAP1 DUP2 ADD PUSH1 0x40 MSTORE DUP1 SWAP3 SWAP2 SWAP1 DUP2 DUP2 MSTORE PUSH1 0x20 ADD DUP3 DUP1 SLOAD PUSH2 0x20E SWAP1 PUSH2 0x702 JUMP JUMPDEST DUP1 ISZERO PUSH2 0x259 JUMPI DUP1 PUSH1 0x1F LT PUSH2 0x230 JUMPI PUSH2 0x100 DUP1 DUP4 SLOAD DIV MUL DUP4 MSTORE SWAP2 PUSH1 0x20 ADD SWAP2 PUSH2 0x259 JUMP JUMPDEST DUP3 ADD SWAP2 SWAP1 PUSH0 MSTORE PUSH1 0x20 PUSH0 KECCAK256 SWAP1 JUMPDEST DUP2 SLOAD DUP2 MSTORE SWAP1 PUSH1 0x1 ADD SWAP1 PUSH1 0x20 ADD DUP1 DUP4 GT PUSH2 0x23C JUMPI DUP3 SWAP1 SUB PUSH1 0x1F AND DUP3 ADD SWAP2 JUMPDEST POP POP POP POP POP SWAP1 POP SWAP1 JUMP JUMPDEST PUSH1 0x60 PUSH1 0x3 DUP1 SLOAD PUSH2 0x272 SWAP1 PUSH2 0x702 JUMP JUMPDEST DUP1 PUSH1 0x1F ADD PUSH1 0x20 DUP1 SWAP2 DIV MUL PUSH1 0x20 ADD PUSH1 0x40 MLOAD SWAP1 DUP2 ADD PUSH1 0x40 MSTORE DUP1 SWAP3 SWAP2 SWAP1 DUP2 DUP2 MSTORE PUSH1 0x20 ADD DUP3 DUP1 SLOAD PUSH2 0x29E SWAP1 PUSH2 0x702 JUMP JUMPDEST DUP1 ISZERO PUSH2 0x2E9 JUMPI DUP1 PUSH1 0x1F LT PUSH2 0x2C0 JUMPI PUSH2 0x100 DUP1 DUP4 SLOAD DIV MUL DUP4 MSTORE SWAP2 PUSH1 0x20 ADD SWAP2 PUSH2 0x2E9 JUMP JUMPDEST DUP3 ADD SWAP2 SWAP1 PUSH0 MSTORE PUSH1 0x20 PUSH0 KECCAK256 SWAP1 JUMPDEST DUP2 SLOAD DUP2 MSTORE SWAP1 PUSH1 0x1 ADD SWAP1 PUSH1 0x20 ADD DUP1 DUP4 GT PUSH2 0x2CC JUMPI DUP3 SWAP1 SUB PUSH1 0x1F AND DUP3 ADD SWAP2 JUMPDEST POP POP POP POP POP SWAP1 POP SWAP1 JUMP JUMPDEST DUP1 PUSH1 0x2 SWAP1 DUP2 PUSH2 0x302 SWAP2 SWAP1 PUSH2 0x8D8 JUMP JUMPDEST POP POP JUMP JUMPDEST PUSH1 0x60 PUSH0 DUP1 SLOAD PUSH2 0x314 SWAP1 PUSH2 0x702 JUMP JUMPDEST DUP1 PUSH1 0x1F ADD PUSH1 0x20 DUP1 SWAP2 DIV MUL PUSH1 0x20 ADD PUSH1 0x40 MLOAD SWAP1 DUP2 ADD PUSH1 0x40 MSTORE DUP1 SWAP3 SWAP2 SWAP1 DUP2 DUP2 MSTORE PUSH1 0x20 ADD DUP3 DUP1 SLOAD PUSH2 0x340 SWAP1 PUSH2 0x702 JUMP JUMPDEST DUP1 ISZERO PUSH2 0x38B JUMPI DUP1 PUSH1 0x1F LT PUSH2 0x362 JUMPI PUSH2 0x100 DUP1 DUP4 SLOAD DIV MUL DUP4 MSTORE SWAP2 PUSH1 0x20 ADD SWAP2 PUSH2 0x38B JUMP JUMPDEST DUP3 ADD SWAP2 SWAP1 PUSH0 MSTORE PUSH1 0x20 PUSH0 KECCAK256 SWAP1 JUMPDEST DUP2 SLOAD DUP2 MSTORE SWAP1 PUSH1 0x1 ADD SWAP1 PUSH1 0x20 ADD DUP1 DUP4 GT PUSH2 0x36E JUMPI DUP3 SWAP1 SUB PUSH1 0x1F AND DUP3 ADD SWAP2 JUMPDEST POP POP POP POP POP SWAP1 POP SWAP1 JUMP JUMPDEST PUSH1 0x1 DUP1 SLOAD PUSH2 0x3A2 SWAP1 PUSH2 0x702 JUMP JUMPDEST DUP1 PUSH1 0x1F ADD PUSH1 0x20 DUP1 SWAP2 DIV MUL PUSH1 0x20 ADD PUSH1 0x40 MLOAD SWAP1 DUP2 ADD PUSH1 0x40 MSTORE DUP1 SWAP3 SWAP2 SWAP1 DUP2 DUP2 MSTORE PUSH1 0x20 ADD DUP3 DUP1 SLOAD PUSH2 0x3CE SWAP1 PUSH2 0x702 JUMP JUMPDEST DUP1 ISZERO PUSH2 0x419 JUMPI DUP1 PUSH1 0x1F LT PUSH2 0x3F0 JUMPI PUSH2 0x100 DUP1 DUP4 SLOAD DIV MUL DUP4 MSTORE SWAP2 PUSH1 0x20 ADD SWAP2 PUSH2 0x419 JUMP JUMPDEST DUP3 ADD SWAP2 SWAP1 PUSH0 MSTORE PUSH1 0x20 PUSH0 KECCAK256 SWAP1 JUMPDEST DUP2 SLOAD DUP2 MSTORE SWAP1 PUSH1 0x1 ADD SWAP1 PUSH1 0x20 ADD DUP1 DUP4 GT PUSH2 0x3FC JUMPI DUP3 SWAP1 SUB PUSH1 0x1F AND DUP3 ADD SWAP2 JUMPDEST POP POP POP POP POP DUP2 JUMP JUMPDEST PUSH0 PUSH1 0x40 MLOAD SWAP1 POP SWAP1 JUMP JUMPDEST PUSH0 DUP1 REVERT JUMPDEST PUSH0 DUP1 REVERT JUMPDEST PUSH0 DUP1 REVERT JUMPDEST PUSH0 DUP1 REVERT JUMPDEST PUSH0 PUSH1 0x1F NOT PUSH1 0x1F DUP4 ADD AND SWAP1 POP SWAP2 SWAP1 POP JUMP JUMPDEST PUSH32 0x4E487B7100000000000000000000000000000000000000000000000000000000 PUSH0 MSTORE PUSH1 0x41 PUSH1 0x4 MSTORE PUSH1 0x24 PUSH0 REVERT JUMPDEST PUSH2 0x480 DUP3 PUSH2 0x43A JUMP JUMPDEST DUP2 ADD DUP2 DUP2 LT PUSH8 0xFFFFFFFFFFFFFFFF DUP3 GT OR ISZERO PUSH2 0x49F JUMPI PUSH2 0x49E PUSH2 0x44A JUMP JUMPDEST JUMPDEST DUP1 PUSH1 0x40 MSTORE POP POP POP JUMP JUMPDEST PUSH0 PUSH2 0x4B1 PUSH2 0x421 JUMP JUMPDEST SWAP1 POP PUSH2 0x4BD DUP3 DUP3 PUSH2 0x477 JUMP JUMPDEST SWAP2 SWAP1 POP JUMP JUMPDEST PUSH0 PUSH8 0xFFFFFFFFFFFFFFFF DUP3 GT ISZERO PUSH2 0x4DC JUMPI PUSH2 0x4DB PUSH2 0x44A JUMP JUMPDEST JUMPDEST PUSH2 0x4E5 DUP3 PUSH2 0x43A JUMP JUMPDEST SWAP1 POP PUSH1 0x20 DUP2 ADD SWAP1 POP SWAP2 SWAP1 POP JUMP JUMPDEST DUP3 DUP2 DUP4 CALLDATACOPY PUSH0 DUP4 DUP4 ADD MSTORE POP POP POP JUMP JUMPDEST PUSH0 PUSH2 0x512 PUSH2 0x50D DUP5 PUSH2 0x4C2 JUMP JUMPDEST PUSH2 0x4A8 JUMP JUMPDEST SWAP1 POP DUP3 DUP2 MSTORE PUSH1 0x20 DUP2 ADD DUP5 DUP5 DUP5 ADD GT ISZERO PUSH2 0x52E JUMPI PUSH2 0x52D PUSH2 0x436 JUMP JUMPDEST JUMPDEST PUSH2 0x539 DUP5 DUP3 DUP6 PUSH2 0x4F2 JUMP JUMPDEST POP SWAP4 SWAP3 POP POP POP JUMP JUMPDEST PUSH0 DUP3 PUSH1 0x1F DUP4 ADD SLT PUSH2 0x555 JUMPI PUSH2 0x554 PUSH2 0x432 JUMP JUMPDEST JUMPDEST DUP2 CALLDATALOAD PUSH2 0x565 DUP5 DUP3 PUSH1 0x20 DUP7 ADD PUSH2 0x500 JUMP JUMPDEST SWAP2 POP POP SWAP3 SWAP2 POP POP JUMP JUMPDEST PUSH0 PUSH1 0x20 DUP3 DUP5 SUB SLT ISZERO PUSH2 0x583 JUMPI PUSH2 0x582 PUSH2 0x42A JUMP JUMPDEST JUMPDEST PUSH0 DUP3 ADD CALLDATALOAD PUSH8 0xFFFFFFFFFFFFFFFF DUP2 GT ISZERO PUSH2 0x5A0 JUMPI PUSH2 0x59F PUSH2 0x42E JUMP JUMPDEST JUMPDEST PUSH2 0x5AC DUP5 DUP3 DUP6 ADD PUSH2 0x541 JUMP JUMPDEST SWAP2 POP POP SWAP3 SWAP2 POP POP JUMP JUMPDEST PUSH0 DUP2 SWAP1 POP SWAP2 SWAP1 POP JUMP JUMPDEST PUSH2 0x5C7 DUP2 PUSH2 0x5B5 JUMP JUMPDEST DUP3 MSTORE POP POP JUMP JUMPDEST PUSH0 PUSH1 0x20 DUP3 ADD SWAP1 POP PUSH2 0x5E0 PUSH0 DUP4 ADD DUP5 PUSH2 0x5BE JUMP JUMPDEST SWAP3 SWAP2 POP POP JUMP JUMPDEST PUSH2 0x5EF DUP2 PUSH2 0x5B5 JUMP JUMPDEST DUP2 EQ PUSH2 0x5F9 JUMPI PUSH0 DUP1 REVERT JUMPDEST POP JUMP JUMPDEST PUSH0 DUP2 CALLDATALOAD SWAP1 POP PUSH2 0x60A DUP2 PUSH2 0x5E6 JUMP JUMPDEST SWAP3 SWAP2 POP POP JUMP JUMPDEST PUSH0 PUSH1 0x20 DUP3 DUP5 SUB SLT ISZERO PUSH2 0x625 JUMPI PUSH2 0x624 PUSH2 0x42A JUMP JUMPDEST JUMPDEST PUSH0 PUSH2 0x632 DUP5 DUP3 DUP6 ADD PUSH2 0x5FC JUMP JUMPDEST SWAP2 POP POP SWAP3 SWAP2 POP POP JUMP JUMPDEST PUSH0 DUP2 MLOAD SWAP1 POP SWAP2 SWAP1 POP JUMP JUMPDEST PUSH0 DUP3 DUP3 MSTORE PUSH1 0x20 DUP3 ADD SWAP1 POP SWAP3 SWAP2 POP POP JUMP JUMPDEST PUSH0 JUMPDEST DUP4 DUP2 LT ISZERO PUSH2 0x672 JUMPI DUP1 DUP3 ADD MLOAD DUP2 DUP5 ADD MSTORE PUSH1 0x20 DUP2 ADD SWAP1 POP PUSH2 0x657 JUMP JUMPDEST PUSH0 DUP5 DUP5 ADD MSTORE POP POP POP POP JUMP JUMPDEST PUSH0 PUSH2 0x687 DUP3 PUSH2 0x63B JUMP JUMPDEST PUSH2 0x691 DUP2 DUP6 PUSH2 0x645 JUMP JUMPDEST SWAP4 POP PUSH2 0x6A1 DUP2 DUP6 PUSH1 0x20 DUP7 ADD PUSH2 0x655 JUMP JUMPDEST PUSH2 0x6AA DUP2 PUSH2 0x43A JUMP JUMPDEST DUP5 ADD SWAP2 POP POP SWAP3 SWAP2 POP POP JUMP JUMPDEST PUSH0 PUSH1 0x20 DUP3 ADD SWAP1 POP DUP2 DUP2 SUB PUSH0 DUP4 ADD MSTORE PUSH2 0x6CD DUP2 DUP5 PUSH2 0x67D JUMP JUMPDEST SWAP1 POP SWAP3 SWAP2 POP POP JUMP JUMPDEST PUSH32 0x4E487B7100000000000000000000000000000000000000000000000000000000 PUSH0 MSTORE PUSH1 0x22 PUSH1 0x4 MSTORE PUSH1 0x24 PUSH0 REVERT JUMPDEST PUSH0 PUSH1 0x2 DUP3 DIV SWAP1 POP PUSH1 0x1 DUP3 AND DUP1 PUSH2 0x719 JUMPI PUSH1 0x7F DUP3 AND SWAP2 POP JUMPDEST PUSH1 0x20 DUP3 LT DUP2 SUB PUSH2 0x72C JUMPI PUSH2 0x72B PUSH2 0x6D5 JUMP JUMPDEST JUMPDEST POP SWAP2 SWAP1 POP JUMP JUMPDEST PUSH0 DUP2 SWAP1 POP DUP2 PUSH0 MSTORE PUSH1 0x20 PUSH0 KECCAK256 SWAP1 POP SWAP2 SWAP1 POP JUMP JUMPDEST PUSH0 PUSH1 0x20 PUSH1 0x1F DUP4 ADD DIV SWAP1 POP SWAP2 SWAP1 POP JUMP JUMPDEST PUSH0 DUP3 DUP3 SHL SWAP1 POP SWAP3 SWAP2 POP POP JUMP JUMPDEST PUSH0 PUSH1 0x8 DUP4 MUL PUSH2 0x78E PUSH32 0xFFFFFFFFFFFFFFFFFFFFFFFFFFFFFFFFFFFFFFFFFFFFFFFFFFFFFFFFFFFFFFFF DUP3 PUSH2 0x753 JUMP JUMPDEST PUSH2 0x798 DUP7 DUP4 PUSH2 0x753 JUMP JUMPDEST SWAP6 POP DUP1 NOT DUP5 AND SWAP4 POP DUP1 DUP7 AND DUP5 OR SWAP3 POP POP POP SWAP4 SWAP3 POP POP POP JUMP JUMPDEST PUSH0 DUP2 SWAP1 POP SWAP2 SWAP1 POP JUMP JUMPDEST PUSH0 DUP2 SWAP1 POP SWAP2 SWAP1 POP JUMP JUMPDEST PUSH0 PUSH2 0x7DC PUSH2 0x7D7 PUSH2 0x7D2 DUP5 PUSH2 0x7B0 JUMP JUMPDEST PUSH2 0x7B9 JUMP JUMPDEST PUSH2 0x7B0 JUMP JUMPDEST SWAP1 POP SWAP2 SWAP1 POP JUMP JUMPDEST PUSH0 DUP2 SWAP1 POP SWAP2 SWAP1 POP JUMP JUMPDEST PUSH2 0x7F5 DUP4 PUSH2 0x7C2 JUMP JUMPDEST PUSH2 0x809 PUSH2 0x801 DUP3 PUSH2 0x7E3 JUMP JUMPDEST DUP5 DUP5 SLOAD PUSH2 0x75F JUMP JUMPDEST DUP3 SSTORE POP POP POP POP JUMP JUMPDEST PUSH0 SWAP1 JUMP JUMPDEST PUSH2 0x81D PUSH2 0x811 JUMP JUMPDEST PUSH2 0x828 DUP2 DUP5 DUP5 PUSH2 0x7EC JUMP JUMPDEST POP POP POP JUMP JUMPDEST JUMPDEST DUP2 DUP2 LT ISZERO PUSH2 0x84B JUMPI PUSH2 0x840 PUSH0 DUP3 PUSH2 0x815 JUMP JUMPDEST PUSH1 0x1 DUP2 ADD SWAP1 POP PUSH2 0x82E JUMP JUMPDEST POP POP JUMP JUMPDEST PUSH1 0x1F DUP3 GT ISZERO PUSH2 0x890 JUMPI PUSH2 0x861 DUP2 PUSH2 0x732 JUMP JUMPDEST PUSH2 0x86A DUP5 PUSH2 0x744 JUMP JUMPDEST DUP2 ADD PUSH1 0x20 DUP6 LT ISZERO PUSH2 0x879 JUMPI DUP2 SWAP1 POP JUMPDEST PUSH2 0x88D PUSH2 0x885 DUP6 PUSH2 0x744 JUMP JUMPDEST DUP4 ADD DUP3 PUSH2 0x82D JUMP JUMPDEST POP POP JUMPDEST POP POP POP JUMP JUMPDEST PUSH0 DUP3 DUP3 SHR SWAP1 POP SWAP3 SWAP2 POP POP JUMP JUMPDEST PUSH0 PUSH2 0x8B0 PUSH0 NOT DUP5 PUSH1 0x8 MUL PUSH2 0x895 JUMP JUMPDEST NOT DUP1 DUP4 AND SWAP2 POP POP SWAP3 SWAP2 POP POP JUMP JUMPDEST PUSH0 PUSH2 0x8C8 DUP4 DUP4 PUSH2 0x8A1 JUMP JUMPDEST SWAP2 POP DUP3 PUSH1 0x2 MUL DUP3 OR SWAP1 POP SWAP3 SWAP2 POP POP JUMP JUMPDEST PUSH2 0x8E1 DUP3 PUSH2 0x63B JUMP JUMPDEST PUSH8 0xFFFFFFFFFFFFFFFF DUP2 GT ISZERO PUSH2 0x8FA JUMPI PUSH2 0x8F9 PUSH2 0x44A JUMP JUMPDEST JUMPDEST PUSH2 0x904 DUP3 SLOAD PUSH2 0x702 JUMP JUMPDEST PUSH2 0x90F DUP3 DUP3 DUP6 PUSH2 0x84F JUMP JUMPDEST PUSH0 PUSH1 0x20 SWAP1 POP PUSH1 0x1F DUP4 GT PUSH1 0x1 DUP2 EQ PUSH2 0x940 JUMPI PUSH0 DUP5 ISZERO PUSH2 0x92E JUMPI DUP3 DUP8 ADD MLOAD SWAP1 POP JUMPDEST PUSH2 0x938 DUP6 DUP3 PUSH2 0x8BD JUMP JUMPDEST DUP7 SSTORE POP PUSH2 0x99F JUMP JUMPDEST PUSH1 0x1F NOT DUP5 AND PUSH2 0x94E DUP7 PUSH2 0x732 JUMP JUMPDEST PUSH0 JUMPDEST DUP3 DUP2 LT ISZERO PUSH2 0x975 JUMPI DUP5 DUP10 ADD MLOAD DUP3 SSTORE PUSH1 0x1 DUP3 ADD SWAP2 POP PUSH1 0x20 DUP6 ADD SWAP5 POP PUSH1 0x20 DUP2 ADD SWAP1 POP PUSH2 0x950 JUMP JUMPDEST DUP7 DUP4 LT ISZERO PUSH2 0x992 JUMPI DUP5 DUP10 ADD MLOAD PUSH2 0x98E PUSH1 0x1F DUP10 AND DUP3 PUSH2 0x8A1 JUMP JUMPDEST DUP4 SSTORE POP JUMPDEST PUSH1 0x1 PUSH1 0x2 DUP9 MUL ADD DUP9 SSTORE POP POP POP JUMPDEST POP POP POP POP POP POP JUMP INVALID LOG2 PUSH5 0x6970667358 0x22 SLT KECCAK256 COINBASE NUMBER 0x28 SIGNEXTEND 0xFC SWAP11 0xD5 PUSH31 0xF18A29A7C98015D864A4F019D32BF9B4562A822FA59C5CEA64736F6C634300 ADDMOD XOR STOP CALLER "
				},
				"gasEstimates": {
					"creation": {
						"codeDepositCost": "505000",
						"executionCost": "infinite",
						"totalCost": "infinite"
					},
					"external": {
						"correoElect()": "infinite",
						"guardarCorreo(string)": "infinite",
						"guardarNombre(string)": "infinite",
						"guardarNum(int256)": "22560",
						"guardarSaludo(string)": "infinite",
						"leerSaludo()": "infinite",
						"nombreCompleto()": "infinite",
						"numCelular()": "2455",
						"saludoEstatico()": "infinite"
					}
				},
				"methodIdentifiers": {
					"correoElect()": "a53e8b5c",
					"guardarCorreo(string)": "02413d13",
					"guardarNombre(string)": "a6d169a7",
					"guardarNum(int256)": "5d528493",
					"guardarSaludo(string)": "9e9b1522",
					"leerSaludo()": "eea3f72f",
					"nombreCompleto()": "a40befcc",
					"numCelular()": "1606ee96",
					"saludoEstatico()": "fac3302c"
				}
			},
			"storageLayout": {
				"storage": [
					{
						"astId": 4,
						"contract": "holaMundoDinamico.sol:holaMundoDinamico",
						"label": "saludo",
						"offset": 0,
						"slot": "0",
						"type": "t_string_storage"
					},
					{
						"astId": 7,
						"contract": "holaMundoDinamico.sol:holaMundoDinamico",
						"label": "saludoEstatico",
						"offset": 0,
						"slot": "1",
						"type": "t_string_storage"
					},
					{
						"astId": 10,
						"contract": "holaMundoDinamico.sol:holaMundoDinamico",
						"label": "nombre",
						"offset": 0,
						"slot": "2",
						"type": "t_string_storage"
					},
					{
						"astId": 13,
						"contract": "holaMundoDinamico.sol:holaMundoDinamico",
						"label": "correo",
						"offset": 0,
						"slot": "3",
						"type": "t_string_storage"
					},
					{
						"astId": 16,
						"contract": "holaMundoDinamico.sol:holaMundoDinamico",
						"label": "cel",
						"offset": 0,
						"slot": "4",
						"type": "t_int256"
					}
				],
				"types": {
					"t_int256": {
						"encoding": "inplace",
						"label": "int256",
						"numberOfBytes": "32"
					},
					"t_string_storage": {
						"encoding": "bytes",
						"label": "string",
						"numberOfBytes": "32"
					}
				}
			},
			"userdoc": {
				"kind": "user",
				"methods": {},
				"version": 1
			}
		}
	}
}