{
	"variablesNativas.sol": {
		"variablesNativas": {
			"abi": [
				{
					"inputs": [
						{
							"internalType": "string",
							"name": "nombre",
							"type": "string"
						}
					],
					"stateMutability": "nonpayable",
					"type": "constructor"
				},
				{
					"inputs": [],
					"name": "address_ver",
					"outputs": [
						{
							"internalType": "address",
							"name": "",
							"type": "address"
						}
					],
					"stateMutability": "view",
					"type": "function"
				},
				{
					"inputs": [],
					"name": "getBytes",
					"outputs": [
						{
							"internalType": "bytes1",
							"name": "",
							"type": "bytes1"
						}
					],
					"stateMutability": "view",
					"type": "function"
				},
				{
					"inputs": [],
					"name": "getName",
					"outputs": [
						{
							"internalType": "string",
							"name": "",
							"type": "string"
						}
					],
					"stateMutability": "view",
					"type": "function"
				},
				{
					"inputs": [],
					"name": "int_256",
					"outputs": [
						{
							"internalType": "int256",
							"name": "",
							"type": "int256"
						}
					],
					"stateMutability": "view",
					"type": "function"
				},
				{
					"inputs": [],
					"name": "int_8",
					"outputs": [
						{
							"internalType": "int8",
							"name": "",
							"type": "int8"
						}
					],
					"stateMutability": "view",
					"type": "function"
				},
				{
					"inputs": [],
					"name": "uint_256",
					"outputs": [
						{
							"internalType": "uint256",
							"name": "",
							"type": "uint256"
						}
					],
					"stateMutability": "view",
					"type": "function"
				},
				{
					"inputs": [],
					"name": "uint_8",
					"outputs": [
						{
							"internalType": "uint8",
							"name": "",
							"type": "uint8"
						}
					],
					"stateMutability": "view",
					"type": "function"
				}
			],
			"devdoc": {
				"kind": "dev",
				"methods": {},
				"version": 1
			},
			"evm": {
				"assembly": "    /* \"variablesNativas.sol\":92:1571  contract variablesNativas {... */\n  mstore(0x40, 0x80)\n    /* \"variablesNativas.sol\":703:704  1 */\n  0x01\n    /* \"variablesNativas.sol\":680:704  uint8 public uint_8  = 1 */\n  dup1\n  exp(0x0100, 0x00)\n  dup2\n  sload\n  dup2\n  0xff\n  mul\n  not\n  and\n  swap1\n  dup4\n  0xff\n  and\n  mul\n  or\n  swap1\n  sstore\n  pop\n    /* \"variablesNativas.sol\":737:740  234 */\n  0xea\n    /* \"variablesNativas.sol\":711:740  uint256 public uint_256 = 234 */\n  0x02\n  sstore\n    /* \"variablesNativas.sol\":995:997  -1 */\n  0xffffffffffffffffffffffffffffffffffffffffffffffffffffffffffffffff\n    /* \"variablesNativas.sol\":975:997  int8 public int_8 = -1 */\n  0x03\n  exp(0x0100, 0x00)\n  dup2\n  sload\n  dup2\n  0xff\n  mul\n  not\n  and\n  swap1\n  dup4\n  0x00\n  signextend\n  0xff\n  and\n  mul\n  or\n  swap1\n  sstore\n  pop\n    /* \"variablesNativas.sol\":1028:1031  170 */\n  0xaa\n    /* \"variablesNativas.sol\":1004:1031  int256 public int_256 = 170 */\n  0x04\n  sstore\n    /* \"variablesNativas.sol\":1154:1196  0xFa8258E37c82A426b07788176c49bb9a729A7B35 */\n  0xfa8258e37c82a426b07788176c49bb9a729a7b35\n    /* \"variablesNativas.sol\":1125:1196  address public address_ver = 0xFa8258E37c82A426b07788176c49bb9a729A7B35 */\n  0x05\n  exp(0x0100, 0x00)\n  dup2\n  sload\n  dup2\n  0xffffffffffffffffffffffffffffffffffffffff\n  mul\n  not\n  and\n  swap1\n  dup4\n  0xffffffffffffffffffffffffffffffffffffffff\n  and\n  mul\n  or\n  swap1\n  sstore\n  pop\n    /* \"variablesNativas.sol\":1314:1318  0xb5 */\n  0xb5\n    /* \"variablesNativas.sol\":1293:1318  bytes1  bytes_avar = 0xb5 */\n  0xf8\n  shl\n  0x05\n  exp(0x0100, 0x14)\n  dup2\n  sload\n  dup2\n  0xff\n  mul\n  not\n  and\n  swap1\n  dup4\n  0xf8\n  shr\n  mul\n  or\n  swap1\n  sstore\n  pop\n    /* \"variablesNativas.sol\":1363:1367  0x56 */\n  0x56\n    /* \"variablesNativas.sol\":1341:1367  bytes1  bytes_avar2 = 0x56 */\n  0xf8\n  shl\n  0x05\n  exp(0x0100, 0x15)\n  dup2\n  sload\n  dup2\n  0xff\n  mul\n  not\n  and\n  swap1\n  dup4\n  0xf8\n  shr\n  mul\n  or\n  swap1\n  sstore\n  pop\n    /* \"variablesNativas.sol\":222:364  constructor (string memory nombre) {... */\n  callvalue\n  dup1\n  iszero\n  tag_1\n  jumpi\n  0x00\n  dup1\n  revert\ntag_1:\n  pop\n  mload(0x40)\n  sub(codesize, bytecodeSize)\n  dup1\n  bytecodeSize\n  dup4\n  codecopy\n  dup2\n  dup2\n  add\n  0x40\n  mstore\n  dup2\n  add\n  swap1\n  tag_2\n  swap2\n  swap1\n  tag_3\n  jump\t// in\ntag_2:\n    /* \"variablesNativas.sol\":317:323  nombre */\n  dup1\n    /* \"variablesNativas.sol\":280:324  string.concat(\"Mi nombre es: \", \" \", nombre) */\n  add(0x20, mload(0x40))\n  tag_6\n  swap2\n  swap1\n  tag_7\n  jump\t// in\ntag_6:\n  mload(0x40)\n  0x20\n  dup2\n  dup4\n  sub\n  sub\n  dup2\n  mstore\n  swap1\n  0x40\n  mstore\n    /* \"variablesNativas.sol\":268:276  fullName */\n  0x00\n    /* \"variablesNativas.sol\":268:324  fullName  = string.concat(\"Mi nombre es: \", \" \", nombre) */\n  swap1\n  dup2\n  tag_8\n  swap2\n  swap1\n  tag_9\n  jump\t// in\ntag_8:\n  pop\n    /* \"variablesNativas.sol\":222:364  constructor (string memory nombre) {... */\n  pop\n    /* \"variablesNativas.sol\":92:1571  contract variablesNativas {... */\n  jump(tag_10)\n    /* \"#utility.yul\":7:82   */\ntag_11:\n    /* \"#utility.yul\":40:46   */\n  0x00\n    /* \"#utility.yul\":73:75   */\n  0x40\n    /* \"#utility.yul\":67:76   */\n  mload\n    /* \"#utility.yul\":57:76   */\n  swap1\n  pop\n    /* \"#utility.yul\":7:82   */\n  swap1\n  jump\t// out\n    /* \"#utility.yul\":88:205   */\ntag_12:\n    /* \"#utility.yul\":197:198   */\n  0x00\n    /* \"#utility.yul\":194:195   */\n  dup1\n    /* \"#utility.yul\":187:199   */\n  revert\n    /* \"#utility.yul\":211:328   */\ntag_13:\n    /* \"#utility.yul\":320:321   */\n  0x00\n    /* \"#utility.yul\":317:318   */\n  dup1\n    /* \"#utility.yul\":310:322   */\n  revert\n    /* \"#utility.yul\":334:451   */\ntag_14:\n    /* \"#utility.yul\":443:444   */\n  0x00\n    /* \"#utility.yul\":440:441   */\n  dup1\n    /* \"#utility.yul\":433:445   */\n  revert\n    /* \"#utility.yul\":457:574   */\ntag_15:\n    /* \"#utility.yul\":566:567   */\n  0x00\n    /* \"#utility.yul\":563:564   */\n  dup1\n    /* \"#utility.yul\":556:568   */\n  revert\n    /* \"#utility.yul\":580:682   */\ntag_16:\n    /* \"#utility.yul\":621:627   */\n  0x00\n    /* \"#utility.yul\":672:674   */\n  0x1f\n    /* \"#utility.yul\":668:675   */\n  not\n    /* \"#utility.yul\":663:665   */\n  0x1f\n    /* \"#utility.yul\":656:661   */\n  dup4\n    /* \"#utility.yul\":652:666   */\n  add\n    /* \"#utility.yul\":648:676   */\n  and\n    /* \"#utility.yul\":638:676   */\n  swap1\n  pop\n    /* \"#utility.yul\":580:682   */\n  swap2\n  swap1\n  pop\n  jump\t// out\n    /* \"#utility.yul\":688:868   */\ntag_17:\n    /* \"#utility.yul\":736:813   */\n  0x4e487b7100000000000000000000000000000000000000000000000000000000\n    /* \"#utility.yul\":733:734   */\n  0x00\n    /* \"#utility.yul\":726:814   */\n  mstore\n    /* \"#utility.yul\":833:837   */\n  0x41\n    /* \"#utility.yul\":830:831   */\n  0x04\n    /* \"#utility.yul\":823:838   */\n  mstore\n    /* \"#utility.yul\":857:861   */\n  0x24\n    /* \"#utility.yul\":854:855   */\n  0x00\n    /* \"#utility.yul\":847:862   */\n  revert\n    /* \"#utility.yul\":874:1155   */\ntag_18:\n    /* \"#utility.yul\":957:984   */\n  tag_56\n    /* \"#utility.yul\":979:983   */\n  dup3\n    /* \"#utility.yul\":957:984   */\n  tag_16\n  jump\t// in\ntag_56:\n    /* \"#utility.yul\":949:955   */\n  dup2\n    /* \"#utility.yul\":945:985   */\n  add\n    /* \"#utility.yul\":1087:1093   */\n  dup2\n    /* \"#utility.yul\":1075:1085   */\n  dup2\n    /* \"#utility.yul\":1072:1094   */\n  lt\n    /* \"#utility.yul\":1051:1069   */\n  0xffffffffffffffff\n    /* \"#utility.yul\":1039:1049   */\n  dup3\n    /* \"#utility.yul\":1036:1070   */\n  gt\n    /* \"#utility.yul\":1033:1095   */\n  or\n    /* \"#utility.yul\":1030:1118   */\n  iszero\n  tag_57\n  jumpi\n    /* \"#utility.yul\":1098:1116   */\n  tag_58\n  tag_17\n  jump\t// in\ntag_58:\n    /* \"#utility.yul\":1030:1118   */\ntag_57:\n    /* \"#utility.yul\":1138:1148   */\n  dup1\n    /* \"#utility.yul\":1134:1136   */\n  0x40\n    /* \"#utility.yul\":1127:1149   */\n  mstore\n    /* \"#utility.yul\":917:1155   */\n  pop\n    /* \"#utility.yul\":874:1155   */\n  pop\n  pop\n  jump\t// out\n    /* \"#utility.yul\":1161:1290   */\ntag_19:\n    /* \"#utility.yul\":1195:1201   */\n  0x00\n    /* \"#utility.yul\":1222:1242   */\n  tag_60\n  tag_11\n  jump\t// in\ntag_60:\n    /* \"#utility.yul\":1212:1242   */\n  swap1\n  pop\n    /* \"#utility.yul\":1251:1284   */\n  tag_61\n    /* \"#utility.yul\":1279:1283   */\n  dup3\n    /* \"#utility.yul\":1271:1277   */\n  dup3\n    /* \"#utility.yul\":1251:1284   */\n  tag_18\n  jump\t// in\ntag_61:\n    /* \"#utility.yul\":1161:1290   */\n  swap2\n  swap1\n  pop\n  jump\t// out\n    /* \"#utility.yul\":1296:1604   */\ntag_20:\n    /* \"#utility.yul\":1358:1362   */\n  0x00\n    /* \"#utility.yul\":1448:1466   */\n  0xffffffffffffffff\n    /* \"#utility.yul\":1440:1446   */\n  dup3\n    /* \"#utility.yul\":1437:1467   */\n  gt\n    /* \"#utility.yul\":1434:1490   */\n  iszero\n  tag_63\n  jumpi\n    /* \"#utility.yul\":1470:1488   */\n  tag_64\n  tag_17\n  jump\t// in\ntag_64:\n    /* \"#utility.yul\":1434:1490   */\ntag_63:\n    /* \"#utility.yul\":1508:1537   */\n  tag_65\n    /* \"#utility.yul\":1530:1536   */\n  dup3\n    /* \"#utility.yul\":1508:1537   */\n  tag_16\n  jump\t// in\ntag_65:\n    /* \"#utility.yul\":1500:1537   */\n  swap1\n  pop\n    /* \"#utility.yul\":1592:1596   */\n  0x20\n    /* \"#utility.yul\":1586:1590   */\n  dup2\n    /* \"#utility.yul\":1582:1597   */\n  add\n    /* \"#utility.yul\":1574:1597   */\n  swap1\n  pop\n    /* \"#utility.yul\":1296:1604   */\n  swap2\n  swap1\n  pop\n  jump\t// out\n    /* \"#utility.yul\":1610:1856   */\ntag_21:\n    /* \"#utility.yul\":1691:1692   */\n  0x00\n    /* \"#utility.yul\":1701:1814   */\ntag_67:\n    /* \"#utility.yul\":1715:1721   */\n  dup4\n    /* \"#utility.yul\":1712:1713   */\n  dup2\n    /* \"#utility.yul\":1709:1722   */\n  lt\n    /* \"#utility.yul\":1701:1814   */\n  iszero\n  tag_69\n  jumpi\n    /* \"#utility.yul\":1800:1801   */\n  dup1\n    /* \"#utility.yul\":1795:1798   */\n  dup3\n    /* \"#utility.yul\":1791:1802   */\n  add\n    /* \"#utility.yul\":1785:1803   */\n  mload\n    /* \"#utility.yul\":1781:1782   */\n  dup2\n    /* \"#utility.yul\":1776:1779   */\n  dup5\n    /* \"#utility.yul\":1772:1783   */\n  add\n    /* \"#utility.yul\":1765:1804   */\n  mstore\n    /* \"#utility.yul\":1737:1739   */\n  0x20\n    /* \"#utility.yul\":1734:1735   */\n  dup2\n    /* \"#utility.yul\":1730:1740   */\n  add\n    /* \"#utility.yul\":1725:1740   */\n  swap1\n  pop\n    /* \"#utility.yul\":1701:1814   */\n  jump(tag_67)\ntag_69:\n    /* \"#utility.yul\":1848:1849   */\n  0x00\n    /* \"#utility.yul\":1839:1845   */\n  dup5\n    /* \"#utility.yul\":1834:1837   */\n  dup5\n    /* \"#utility.yul\":1830:1846   */\n  add\n    /* \"#utility.yul\":1823:1850   */\n  mstore\n    /* \"#utility.yul\":1672:1856   */\n  pop\n    /* \"#utility.yul\":1610:1856   */\n  pop\n  pop\n  pop\n  jump\t// out\n    /* \"#utility.yul\":1862:2296   */\ntag_22:\n    /* \"#utility.yul\":1951:1956   */\n  0x00\n    /* \"#utility.yul\":1976:2042   */\n  tag_71\n    /* \"#utility.yul\":1992:2041   */\n  tag_72\n    /* \"#utility.yul\":2034:2040   */\n  dup5\n    /* \"#utility.yul\":1992:2041   */\n  tag_20\n  jump\t// in\ntag_72:\n    /* \"#utility.yul\":1976:2042   */\n  tag_19\n  jump\t// in\ntag_71:\n    /* \"#utility.yul\":1967:2042   */\n  swap1\n  pop\n    /* \"#utility.yul\":2065:2071   */\n  dup3\n    /* \"#utility.yul\":2058:2063   */\n  dup2\n    /* \"#utility.yul\":2051:2072   */\n  mstore\n    /* \"#utility.yul\":2103:2107   */\n  0x20\n    /* \"#utility.yul\":2096:2101   */\n  dup2\n    /* \"#utility.yul\":2092:2108   */\n  add\n    /* \"#utility.yul\":2141:2144   */\n  dup5\n    /* \"#utility.yul\":2132:2138   */\n  dup5\n    /* \"#utility.yul\":2127:2130   */\n  dup5\n    /* \"#utility.yul\":2123:2139   */\n  add\n    /* \"#utility.yul\":2120:2145   */\n  gt\n    /* \"#utility.yul\":2117:2229   */\n  iszero\n  tag_73\n  jumpi\n    /* \"#utility.yul\":2148:2227   */\n  tag_74\n  tag_15\n  jump\t// in\ntag_74:\n    /* \"#utility.yul\":2117:2229   */\ntag_73:\n    /* \"#utility.yul\":2238:2290   */\n  tag_75\n    /* \"#utility.yul\":2283:2289   */\n  dup5\n    /* \"#utility.yul\":2278:2281   */\n  dup3\n    /* \"#utility.yul\":2273:2276   */\n  dup6\n    /* \"#utility.yul\":2238:2290   */\n  tag_21\n  jump\t// in\ntag_75:\n    /* \"#utility.yul\":1957:2296   */\n  pop\n    /* \"#utility.yul\":1862:2296   */\n  swap4\n  swap3\n  pop\n  pop\n  pop\n  jump\t// out\n    /* \"#utility.yul\":2316:2671   */\ntag_23:\n    /* \"#utility.yul\":2383:2388   */\n  0x00\n    /* \"#utility.yul\":2432:2435   */\n  dup3\n    /* \"#utility.yul\":2425:2429   */\n  0x1f\n    /* \"#utility.yul\":2417:2423   */\n  dup4\n    /* \"#utility.yul\":2413:2430   */\n  add\n    /* \"#utility.yul\":2409:2436   */\n  slt\n    /* \"#utility.yul\":2399:2521   */\n  tag_77\n  jumpi\n    /* \"#utility.yul\":2440:2519   */\n  tag_78\n  tag_14\n  jump\t// in\ntag_78:\n    /* \"#utility.yul\":2399:2521   */\ntag_77:\n    /* \"#utility.yul\":2550:2556   */\n  dup2\n    /* \"#utility.yul\":2544:2557   */\n  mload\n    /* \"#utility.yul\":2575:2665   */\n  tag_79\n    /* \"#utility.yul\":2661:2664   */\n  dup5\n    /* \"#utility.yul\":2653:2659   */\n  dup3\n    /* \"#utility.yul\":2646:2650   */\n  0x20\n    /* \"#utility.yul\":2638:2644   */\n  dup7\n    /* \"#utility.yul\":2634:2651   */\n  add\n    /* \"#utility.yul\":2575:2665   */\n  tag_22\n  jump\t// in\ntag_79:\n    /* \"#utility.yul\":2566:2665   */\n  swap2\n  pop\n    /* \"#utility.yul\":2389:2671   */\n  pop\n    /* \"#utility.yul\":2316:2671   */\n  swap3\n  swap2\n  pop\n  pop\n  jump\t// out\n    /* \"#utility.yul\":2677:3201   */\ntag_3:\n    /* \"#utility.yul\":2757:2763   */\n  0x00\n    /* \"#utility.yul\":2806:2808   */\n  0x20\n    /* \"#utility.yul\":2794:2803   */\n  dup3\n    /* \"#utility.yul\":2785:2792   */\n  dup5\n    /* \"#utility.yul\":2781:2804   */\n  sub\n    /* \"#utility.yul\":2777:2809   */\n  slt\n    /* \"#utility.yul\":2774:2893   */\n  iszero\n  tag_81\n  jumpi\n    /* \"#utility.yul\":2812:2891   */\n  tag_82\n  tag_12\n  jump\t// in\ntag_82:\n    /* \"#utility.yul\":2774:2893   */\ntag_81:\n    /* \"#utility.yul\":2953:2954   */\n  0x00\n    /* \"#utility.yul\":2942:2951   */\n  dup3\n    /* \"#utility.yul\":2938:2955   */\n  add\n    /* \"#utility.yul\":2932:2956   */\n  mload\n    /* \"#utility.yul\":2983:3001   */\n  0xffffffffffffffff\n    /* \"#utility.yul\":2975:2981   */\n  dup2\n    /* \"#utility.yul\":2972:3002   */\n  gt\n    /* \"#utility.yul\":2969:3086   */\n  iszero\n  tag_83\n  jumpi\n    /* \"#utility.yul\":3005:3084   */\n  tag_84\n  tag_13\n  jump\t// in\ntag_84:\n    /* \"#utility.yul\":2969:3086   */\ntag_83:\n    /* \"#utility.yul\":3110:3184   */\n  tag_85\n    /* \"#utility.yul\":3176:3183   */\n  dup5\n    /* \"#utility.yul\":3167:3173   */\n  dup3\n    /* \"#utility.yul\":3156:3165   */\n  dup6\n    /* \"#utility.yul\":3152:3174   */\n  add\n    /* \"#utility.yul\":3110:3184   */\n  tag_23\n  jump\t// in\ntag_85:\n    /* \"#utility.yul\":3100:3184   */\n  swap2\n  pop\n    /* \"#utility.yul\":2903:3194   */\n  pop\n    /* \"#utility.yul\":2677:3201   */\n  swap3\n  swap2\n  pop\n  pop\n  jump\t// out\n    /* \"#utility.yul\":3207:3399   */\ntag_24:\n    /* \"#utility.yul\":3376:3392   */\n  0x4d69206e6f6d6272652065733a20000000000000000000000000000000000000\n    /* \"#utility.yul\":3371:3374   */\n  dup2\n    /* \"#utility.yul\":3364:3393   */\n  mstore\n    /* \"#utility.yul\":3207:3399   */\n  pop\n  jump\t// out\n    /* \"#utility.yul\":3405:3583   */\ntag_25:\n    /* \"#utility.yul\":3573:3576   */\n  0x2000000000000000000000000000000000000000000000000000000000000000\n    /* \"#utility.yul\":3568:3571   */\n  dup2\n    /* \"#utility.yul\":3561:3577   */\n  mstore\n    /* \"#utility.yul\":3405:3583   */\n  pop\n  jump\t// out\n    /* \"#utility.yul\":3589:3688   */\ntag_26:\n    /* \"#utility.yul\":3641:3647   */\n  0x00\n    /* \"#utility.yul\":3675:3680   */\n  dup2\n    /* \"#utility.yul\":3669:3681   */\n  mload\n    /* \"#utility.yul\":3659:3681   */\n  swap1\n  pop\n    /* \"#utility.yul\":3589:3688   */\n  swap2\n  swap1\n  pop\n  jump\t// out\n    /* \"#utility.yul\":3694:3842   */\ntag_27:\n    /* \"#utility.yul\":3796:3807   */\n  0x00\n    /* \"#utility.yul\":3833:3836   */\n  dup2\n    /* \"#utility.yul\":3818:3836   */\n  swap1\n  pop\n    /* \"#utility.yul\":3694:3842   */\n  swap3\n  swap2\n  pop\n  pop\n  jump\t// out\n    /* \"#utility.yul\":3848:4238   */\ntag_28:\n    /* \"#utility.yul\":3954:3957   */\n  0x00\n    /* \"#utility.yul\":3982:4021   */\n  tag_91\n    /* \"#utility.yul\":4015:4020   */\n  dup3\n    /* \"#utility.yul\":3982:4021   */\n  tag_26\n  jump\t// in\ntag_91:\n    /* \"#utility.yul\":4037:4126   */\n  tag_92\n    /* \"#utility.yul\":4119:4125   */\n  dup2\n    /* \"#utility.yul\":4114:4117   */\n  dup6\n    /* \"#utility.yul\":4037:4126   */\n  tag_27\n  jump\t// in\ntag_92:\n    /* \"#utility.yul\":4030:4126   */\n  swap4\n  pop\n    /* \"#utility.yul\":4135:4200   */\n  tag_93\n    /* \"#utility.yul\":4193:4199   */\n  dup2\n    /* \"#utility.yul\":4188:4191   */\n  dup6\n    /* \"#utility.yul\":4181:4185   */\n  0x20\n    /* \"#utility.yul\":4174:4179   */\n  dup7\n    /* \"#utility.yul\":4170:4186   */\n  add\n    /* \"#utility.yul\":4135:4200   */\n  tag_21\n  jump\t// in\ntag_93:\n    /* \"#utility.yul\":4225:4231   */\n  dup1\n    /* \"#utility.yul\":4220:4223   */\n  dup5\n    /* \"#utility.yul\":4216:4232   */\n  add\n    /* \"#utility.yul\":4209:4232   */\n  swap2\n  pop\n    /* \"#utility.yul\":3958:4238   */\n  pop\n    /* \"#utility.yul\":3848:4238   */\n  swap3\n  swap2\n  pop\n  pop\n  jump\t// out\n    /* \"#utility.yul\":4244:5050   */\ntag_7:\n    /* \"#utility.yul\":4557:4560   */\n  0x00\n    /* \"#utility.yul\":4572:4710   */\n  tag_95\n    /* \"#utility.yul\":4706:4709   */\n  dup3\n    /* \"#utility.yul\":4572:4710   */\n  tag_24\n  jump\t// in\ntag_95:\n    /* \"#utility.yul\":4735:4737   */\n  0x0e\n    /* \"#utility.yul\":4730:4733   */\n  dup3\n    /* \"#utility.yul\":4726:4738   */\n  add\n    /* \"#utility.yul\":4719:4738   */\n  swap2\n  pop\n    /* \"#utility.yul\":4748:4885   */\n  tag_96\n    /* \"#utility.yul\":4881:4884   */\n  dup3\n    /* \"#utility.yul\":4748:4885   */\n  tag_25\n  jump\t// in\ntag_96:\n    /* \"#utility.yul\":4910:4911   */\n  0x01\n    /* \"#utility.yul\":4905:4908   */\n  dup3\n    /* \"#utility.yul\":4901:4912   */\n  add\n    /* \"#utility.yul\":4894:4912   */\n  swap2\n  pop\n    /* \"#utility.yul\":4929:5024   */\n  tag_97\n    /* \"#utility.yul\":5020:5023   */\n  dup3\n    /* \"#utility.yul\":5011:5017   */\n  dup5\n    /* \"#utility.yul\":4929:5024   */\n  tag_28\n  jump\t// in\ntag_97:\n    /* \"#utility.yul\":4922:5024   */\n  swap2\n  pop\n    /* \"#utility.yul\":5041:5044   */\n  dup2\n    /* \"#utility.yul\":5034:5044   */\n  swap1\n  pop\n    /* \"#utility.yul\":4244:5050   */\n  swap3\n  swap2\n  pop\n  pop\n  jump\t// out\n    /* \"#utility.yul\":5056:5236   */\ntag_29:\n    /* \"#utility.yul\":5104:5181   */\n  0x4e487b7100000000000000000000000000000000000000000000000000000000\n    /* \"#utility.yul\":5101:5102   */\n  0x00\n    /* \"#utility.yul\":5094:5182   */\n  mstore\n    /* \"#utility.yul\":5201:5205   */\n  0x22\n    /* \"#utility.yul\":5198:5199   */\n  0x04\n    /* \"#utility.yul\":5191:5206   */\n  mstore\n    /* \"#utility.yul\":5225:5229   */\n  0x24\n    /* \"#utility.yul\":5222:5223   */\n  0x00\n    /* \"#utility.yul\":5215:5230   */\n  revert\n    /* \"#utility.yul\":5242:5562   */\ntag_30:\n    /* \"#utility.yul\":5286:5292   */\n  0x00\n    /* \"#utility.yul\":5323:5324   */\n  0x02\n    /* \"#utility.yul\":5317:5321   */\n  dup3\n    /* \"#utility.yul\":5313:5325   */\n  div\n    /* \"#utility.yul\":5303:5325   */\n  swap1\n  pop\n    /* \"#utility.yul\":5370:5371   */\n  0x01\n    /* \"#utility.yul\":5364:5368   */\n  dup3\n    /* \"#utility.yul\":5360:5372   */\n  and\n    /* \"#utility.yul\":5391:5409   */\n  dup1\n    /* \"#utility.yul\":5381:5462   */\n  tag_100\n  jumpi\n    /* \"#utility.yul\":5447:5451   */\n  0x7f\n    /* \"#utility.yul\":5439:5445   */\n  dup3\n    /* \"#utility.yul\":5435:5452   */\n  and\n    /* \"#utility.yul\":5425:5452   */\n  swap2\n  pop\n    /* \"#utility.yul\":5381:5462   */\ntag_100:\n    /* \"#utility.yul\":5509:5511   */\n  0x20\n    /* \"#utility.yul\":5501:5507   */\n  dup3\n    /* \"#utility.yul\":5498:5512   */\n  lt\n    /* \"#utility.yul\":5478:5496   */\n  dup2\n    /* \"#utility.yul\":5475:5513   */\n  sub\n    /* \"#utility.yul\":5472:5556   */\n  tag_101\n  jumpi\n    /* \"#utility.yul\":5528:5546   */\n  tag_102\n  tag_29\n  jump\t// in\ntag_102:\n    /* \"#utility.yul\":5472:5556   */\ntag_101:\n    /* \"#utility.yul\":5293:5562   */\n  pop\n    /* \"#utility.yul\":5242:5562   */\n  swap2\n  swap1\n  pop\n  jump\t// out\n    /* \"#utility.yul\":5568:5709   */\ntag_31:\n    /* \"#utility.yul\":5617:5621   */\n  0x00\n    /* \"#utility.yul\":5640:5643   */\n  dup2\n    /* \"#utility.yul\":5632:5643   */\n  swap1\n  pop\n    /* \"#utility.yul\":5663:5666   */\n  dup2\n    /* \"#utility.yul\":5660:5661   */\n  0x00\n    /* \"#utility.yul\":5653:5667   */\n  mstore\n    /* \"#utility.yul\":5697:5701   */\n  0x20\n    /* \"#utility.yul\":5694:5695   */\n  0x00\n    /* \"#utility.yul\":5684:5702   */\n  keccak256\n    /* \"#utility.yul\":5676:5702   */\n  swap1\n  pop\n    /* \"#utility.yul\":5568:5709   */\n  swap2\n  swap1\n  pop\n  jump\t// out\n    /* \"#utility.yul\":5715:5808   */\ntag_32:\n    /* \"#utility.yul\":5752:5758   */\n  0x00\n    /* \"#utility.yul\":5799:5801   */\n  0x20\n    /* \"#utility.yul\":5794:5796   */\n  0x1f\n    /* \"#utility.yul\":5787:5792   */\n  dup4\n    /* \"#utility.yul\":5783:5797   */\n  add\n    /* \"#utility.yul\":5779:5802   */\n  div\n    /* \"#utility.yul\":5769:5802   */\n  swap1\n  pop\n    /* \"#utility.yul\":5715:5808   */\n  swap2\n  swap1\n  pop\n  jump\t// out\n    /* \"#utility.yul\":5814:5921   */\ntag_33:\n    /* \"#utility.yul\":5858:5866   */\n  0x00\n    /* \"#utility.yul\":5908:5913   */\n  dup3\n    /* \"#utility.yul\":5902:5906   */\n  dup3\n    /* \"#utility.yul\":5898:5914   */\n  shl\n    /* \"#utility.yul\":5877:5914   */\n  swap1\n  pop\n    /* \"#utility.yul\":5814:5921   */\n  swap3\n  swap2\n  pop\n  pop\n  jump\t// out\n    /* \"#utility.yul\":5927:6320   */\ntag_34:\n    /* \"#utility.yul\":5996:6002   */\n  0x00\n    /* \"#utility.yul\":6046:6047   */\n  0x08\n    /* \"#utility.yul\":6034:6044   */\n  dup4\n    /* \"#utility.yul\":6030:6048   */\n  mul\n    /* \"#utility.yul\":6069:6166   */\n  tag_107\n    /* \"#utility.yul\":6099:6165   */\n  0xffffffffffffffffffffffffffffffffffffffffffffffffffffffffffffffff\n    /* \"#utility.yul\":6088:6097   */\n  dup3\n    /* \"#utility.yul\":6069:6166   */\n  tag_33\n  jump\t// in\ntag_107:\n    /* \"#utility.yul\":6187:6226   */\n  tag_108\n    /* \"#utility.yul\":6217:6225   */\n  dup7\n    /* \"#utility.yul\":6206:6215   */\n  dup4\n    /* \"#utility.yul\":6187:6226   */\n  tag_33\n  jump\t// in\ntag_108:\n    /* \"#utility.yul\":6175:6226   */\n  swap6\n  pop\n    /* \"#utility.yul\":6259:6263   */\n  dup1\n    /* \"#utility.yul\":6255:6264   */\n  not\n    /* \"#utility.yul\":6248:6253   */\n  dup5\n    /* \"#utility.yul\":6244:6265   */\n  and\n    /* \"#utility.yul\":6235:6265   */\n  swap4\n  pop\n    /* \"#utility.yul\":6308:6312   */\n  dup1\n    /* \"#utility.yul\":6298:6306   */\n  dup7\n    /* \"#utility.yul\":6294:6313   */\n  and\n    /* \"#utility.yul\":6287:6292   */\n  dup5\n    /* \"#utility.yul\":6284:6314   */\n  or\n    /* \"#utility.yul\":6274:6314   */\n  swap3\n  pop\n    /* \"#utility.yul\":6003:6320   */\n  pop\n  pop\n    /* \"#utility.yul\":5927:6320   */\n  swap4\n  swap3\n  pop\n  pop\n  pop\n  jump\t// out\n    /* \"#utility.yul\":6326:6403   */\ntag_35:\n    /* \"#utility.yul\":6363:6370   */\n  0x00\n    /* \"#utility.yul\":6392:6397   */\n  dup2\n    /* \"#utility.yul\":6381:6397   */\n  swap1\n  pop\n    /* \"#utility.yul\":6326:6403   */\n  swap2\n  swap1\n  pop\n  jump\t// out\n    /* \"#utility.yul\":6409:6469   */\ntag_36:\n    /* \"#utility.yul\":6437:6440   */\n  0x00\n    /* \"#utility.yul\":6458:6463   */\n  dup2\n    /* \"#utility.yul\":6451:6463   */\n  swap1\n  pop\n    /* \"#utility.yul\":6409:6469   */\n  swap2\n  swap1\n  pop\n  jump\t// out\n    /* \"#utility.yul\":6475:6617   */\ntag_37:\n    /* \"#utility.yul\":6525:6534   */\n  0x00\n    /* \"#utility.yul\":6558:6611   */\n  tag_112\n    /* \"#utility.yul\":6576:6610   */\n  tag_113\n    /* \"#utility.yul\":6585:6609   */\n  tag_114\n    /* \"#utility.yul\":6603:6608   */\n  dup5\n    /* \"#utility.yul\":6585:6609   */\n  tag_35\n  jump\t// in\ntag_114:\n    /* \"#utility.yul\":6576:6610   */\n  tag_36\n  jump\t// in\ntag_113:\n    /* \"#utility.yul\":6558:6611   */\n  tag_35\n  jump\t// in\ntag_112:\n    /* \"#utility.yul\":6545:6611   */\n  swap1\n  pop\n    /* \"#utility.yul\":6475:6617   */\n  swap2\n  swap1\n  pop\n  jump\t// out\n    /* \"#utility.yul\":6623:6698   */\ntag_38:\n    /* \"#utility.yul\":6666:6669   */\n  0x00\n    /* \"#utility.yul\":6687:6692   */\n  dup2\n    /* \"#utility.yul\":6680:6692   */\n  swap1\n  pop\n    /* \"#utility.yul\":6623:6698   */\n  swap2\n  swap1\n  pop\n  jump\t// out\n    /* \"#utility.yul\":6704:6973   */\ntag_39:\n    /* \"#utility.yul\":6814:6853   */\n  tag_117\n    /* \"#utility.yul\":6845:6852   */\n  dup4\n    /* \"#utility.yul\":6814:6853   */\n  tag_37\n  jump\t// in\ntag_117:\n    /* \"#utility.yul\":6875:6966   */\n  tag_118\n    /* \"#utility.yul\":6924:6965   */\n  tag_119\n    /* \"#utility.yul\":6948:6964   */\n  dup3\n    /* \"#utility.yul\":6924:6965   */\n  tag_38\n  jump\t// in\ntag_119:\n    /* \"#utility.yul\":6916:6922   */\n  dup5\n    /* \"#utility.yul\":6909:6913   */\n  dup5\n    /* \"#utility.yul\":6903:6914   */\n  sload\n    /* \"#utility.yul\":6875:6966   */\n  tag_34\n  jump\t// in\ntag_118:\n    /* \"#utility.yul\":6869:6873   */\n  dup3\n    /* \"#utility.yul\":6862:6967   */\n  sstore\n    /* \"#utility.yul\":6780:6973   */\n  pop\n    /* \"#utility.yul\":6704:6973   */\n  pop\n  pop\n  pop\n  jump\t// out\n    /* \"#utility.yul\":6979:7052   */\ntag_40:\n    /* \"#utility.yul\":7024:7027   */\n  0x00\n    /* \"#utility.yul\":6979:7052   */\n  swap1\n  jump\t// out\n    /* \"#utility.yul\":7058:7247   */\ntag_41:\n    /* \"#utility.yul\":7135:7167   */\n  tag_122\n  tag_40\n  jump\t// in\ntag_122:\n    /* \"#utility.yul\":7176:7241   */\n  tag_123\n    /* \"#utility.yul\":7234:7240   */\n  dup2\n    /* \"#utility.yul\":7226:7232   */\n  dup5\n    /* \"#utility.yul\":7220:7224   */\n  dup5\n    /* \"#utility.yul\":7176:7241   */\n  tag_39\n  jump\t// in\ntag_123:\n    /* \"#utility.yul\":7111:7247   */\n  pop\n    /* \"#utility.yul\":7058:7247   */\n  pop\n  pop\n  jump\t// out\n    /* \"#utility.yul\":7253:7439   */\ntag_42:\n    /* \"#utility.yul\":7313:7433   */\ntag_125:\n    /* \"#utility.yul\":7330:7333   */\n  dup2\n    /* \"#utility.yul\":7323:7328   */\n  dup2\n    /* \"#utility.yul\":7320:7334   */\n  lt\n    /* \"#utility.yul\":7313:7433   */\n  iszero\n  tag_127\n  jumpi\n    /* \"#utility.yul\":7384:7423   */\n  tag_128\n    /* \"#utility.yul\":7421:7422   */\n  0x00\n    /* \"#utility.yul\":7414:7419   */\n  dup3\n    /* \"#utility.yul\":7384:7423   */\n  tag_41\n  jump\t// in\ntag_128:\n    /* \"#utility.yul\":7357:7358   */\n  0x01\n    /* \"#utility.yul\":7350:7355   */\n  dup2\n    /* \"#utility.yul\":7346:7359   */\n  add\n    /* \"#utility.yul\":7337:7359   */\n  swap1\n  pop\n    /* \"#utility.yul\":7313:7433   */\n  jump(tag_125)\ntag_127:\n    /* \"#utility.yul\":7253:7439   */\n  pop\n  pop\n  jump\t// out\n    /* \"#utility.yul\":7445:7988   */\ntag_43:\n    /* \"#utility.yul\":7546:7548   */\n  0x1f\n    /* \"#utility.yul\":7541:7544   */\n  dup3\n    /* \"#utility.yul\":7538:7549   */\n  gt\n    /* \"#utility.yul\":7535:7981   */\n  iszero\n  tag_130\n  jumpi\n    /* \"#utility.yul\":7580:7618   */\n  tag_131\n    /* \"#utility.yul\":7612:7617   */\n  dup2\n    /* \"#utility.yul\":7580:7618   */\n  tag_31\n  jump\t// in\ntag_131:\n    /* \"#utility.yul\":7664:7693   */\n  tag_132\n    /* \"#utility.yul\":7682:7692   */\n  dup5\n    /* \"#utility.yul\":7664:7693   */\n  tag_32\n  jump\t// in\ntag_132:\n    /* \"#utility.yul\":7654:7662   */\n  dup2\n    /* \"#utility.yul\":7650:7694   */\n  add\n    /* \"#utility.yul\":7847:7849   */\n  0x20\n    /* \"#utility.yul\":7835:7845   */\n  dup6\n    /* \"#utility.yul\":7832:7850   */\n  lt\n    /* \"#utility.yul\":7829:7878   */\n  iszero\n  tag_133\n  jumpi\n    /* \"#utility.yul\":7868:7876   */\n  dup2\n    /* \"#utility.yul\":7853:7876   */\n  swap1\n  pop\n    /* \"#utility.yul\":7829:7878   */\ntag_133:\n    /* \"#utility.yul\":7891:7971   */\n  tag_134\n    /* \"#utility.yul\":7947:7969   */\n  tag_135\n    /* \"#utility.yul\":7965:7968   */\n  dup6\n    /* \"#utility.yul\":7947:7969   */\n  tag_32\n  jump\t// in\ntag_135:\n    /* \"#utility.yul\":7937:7945   */\n  dup4\n    /* \"#utility.yul\":7933:7970   */\n  add\n    /* \"#utility.yul\":7920:7931   */\n  dup3\n    /* \"#utility.yul\":7891:7971   */\n  tag_42\n  jump\t// in\ntag_134:\n    /* \"#utility.yul\":7550:7981   */\n  pop\n  pop\n    /* \"#utility.yul\":7535:7981   */\ntag_130:\n    /* \"#utility.yul\":7445:7988   */\n  pop\n  pop\n  pop\n  jump\t// out\n    /* \"#utility.yul\":7994:8111   */\ntag_44:\n    /* \"#utility.yul\":8048:8056   */\n  0x00\n    /* \"#utility.yul\":8098:8103   */\n  dup3\n    /* \"#utility.yul\":8092:8096   */\n  dup3\n    /* \"#utility.yul\":8088:8104   */\n  shr\n    /* \"#utility.yul\":8067:8104   */\n  swap1\n  pop\n    /* \"#utility.yul\":7994:8111   */\n  swap3\n  swap2\n  pop\n  pop\n  jump\t// out\n    /* \"#utility.yul\":8117:8286   */\ntag_45:\n    /* \"#utility.yul\":8161:8167   */\n  0x00\n    /* \"#utility.yul\":8194:8245   */\n  tag_138\n    /* \"#utility.yul\":8242:8243   */\n  0x00\n    /* \"#utility.yul\":8238:8244   */\n  not\n    /* \"#utility.yul\":8230:8235   */\n  dup5\n    /* \"#utility.yul\":8227:8228   */\n  0x08\n    /* \"#utility.yul\":8223:8236   */\n  mul\n    /* \"#utility.yul\":8194:8245   */\n  tag_44\n  jump\t// in\ntag_138:\n    /* \"#utility.yul\":8190:8246   */\n  not\n    /* \"#utility.yul\":8275:8279   */\n  dup1\n    /* \"#utility.yul\":8269:8273   */\n  dup4\n    /* \"#utility.yul\":8265:8280   */\n  and\n    /* \"#utility.yul\":8255:8280   */\n  swap2\n  pop\n    /* \"#utility.yul\":8168:8286   */\n  pop\n    /* \"#utility.yul\":8117:8286   */\n  swap3\n  swap2\n  pop\n  pop\n  jump\t// out\n    /* \"#utility.yul\":8291:8586   */\ntag_46:\n    /* \"#utility.yul\":8367:8371   */\n  0x00\n    /* \"#utility.yul\":8513:8542   */\n  tag_140\n    /* \"#utility.yul\":8538:8541   */\n  dup4\n    /* \"#utility.yul\":8532:8536   */\n  dup4\n    /* \"#utility.yul\":8513:8542   */\n  tag_45\n  jump\t// in\ntag_140:\n    /* \"#utility.yul\":8505:8542   */\n  swap2\n  pop\n    /* \"#utility.yul\":8575:8578   */\n  dup3\n    /* \"#utility.yul\":8572:8573   */\n  0x02\n    /* \"#utility.yul\":8568:8579   */\n  mul\n    /* \"#utility.yul\":8562:8566   */\n  dup3\n    /* \"#utility.yul\":8559:8580   */\n  or\n    /* \"#utility.yul\":8551:8580   */\n  swap1\n  pop\n    /* \"#utility.yul\":8291:8586   */\n  swap3\n  swap2\n  pop\n  pop\n  jump\t// out\n    /* \"#utility.yul\":8591:9986   */\ntag_9:\n    /* \"#utility.yul\":8708:8745   */\n  tag_142\n    /* \"#utility.yul\":8741:8744   */\n  dup3\n    /* \"#utility.yul\":8708:8745   */\n  tag_26\n  jump\t// in\ntag_142:\n    /* \"#utility.yul\":8810:8828   */\n  0xffffffffffffffff\n    /* \"#utility.yul\":8802:8808   */\n  dup2\n    /* \"#utility.yul\":8799:8829   */\n  gt\n    /* \"#utility.yul\":8796:8852   */\n  iszero\n  tag_143\n  jumpi\n    /* \"#utility.yul\":8832:8850   */\n  tag_144\n  tag_17\n  jump\t// in\ntag_144:\n    /* \"#utility.yul\":8796:8852   */\ntag_143:\n    /* \"#utility.yul\":8876:8914   */\n  tag_145\n    /* \"#utility.yul\":8908:8912   */\n  dup3\n    /* \"#utility.yul\":8902:8913   */\n  sload\n    /* \"#utility.yul\":8876:8914   */\n  tag_30\n  jump\t// in\ntag_145:\n    /* \"#utility.yul\":8961:9028   */\n  tag_146\n    /* \"#utility.yul\":9021:9027   */\n  dup3\n    /* \"#utility.yul\":9013:9019   */\n  dup3\n    /* \"#utility.yul\":9007:9011   */\n  dup6\n    /* \"#utility.yul\":8961:9028   */\n  tag_43\n  jump\t// in\ntag_146:\n    /* \"#utility.yul\":9055:9056   */\n  0x00\n    /* \"#utility.yul\":9079:9083   */\n  0x20\n    /* \"#utility.yul\":9066:9083   */\n  swap1\n  pop\n    /* \"#utility.yul\":9111:9113   */\n  0x1f\n    /* \"#utility.yul\":9103:9109   */\n  dup4\n    /* \"#utility.yul\":9100:9114   */\n  gt\n    /* \"#utility.yul\":9128:9129   */\n  0x01\n    /* \"#utility.yul\":9123:9741   */\n  dup2\n  eq\n  tag_148\n  jumpi\n    /* \"#utility.yul\":9785:9786   */\n  0x00\n    /* \"#utility.yul\":9802:9808   */\n  dup5\n    /* \"#utility.yul\":9799:9876   */\n  iszero\n  tag_149\n  jumpi\n    /* \"#utility.yul\":9851:9860   */\n  dup3\n    /* \"#utility.yul\":9846:9849   */\n  dup8\n    /* \"#utility.yul\":9842:9861   */\n  add\n    /* \"#utility.yul\":9836:9862   */\n  mload\n    /* \"#utility.yul\":9827:9862   */\n  swap1\n  pop\n    /* \"#utility.yul\":9799:9876   */\ntag_149:\n    /* \"#utility.yul\":9902:9969   */\n  tag_150\n    /* \"#utility.yul\":9962:9968   */\n  dup6\n    /* \"#utility.yul\":9955:9960   */\n  dup3\n    /* \"#utility.yul\":9902:9969   */\n  tag_46\n  jump\t// in\ntag_150:\n    /* \"#utility.yul\":9896:9900   */\n  dup7\n    /* \"#utility.yul\":9889:9970   */\n  sstore\n    /* \"#utility.yul\":9758:9980   */\n  pop\n    /* \"#utility.yul\":9093:9980   */\n  jump(tag_147)\n    /* \"#utility.yul\":9123:9741   */\ntag_148:\n    /* \"#utility.yul\":9175:9179   */\n  0x1f\n    /* \"#utility.yul\":9171:9180   */\n  not\n    /* \"#utility.yul\":9163:9169   */\n  dup5\n    /* \"#utility.yul\":9159:9181   */\n  and\n    /* \"#utility.yul\":9209:9246   */\n  tag_151\n    /* \"#utility.yul\":9241:9245   */\n  dup7\n    /* \"#utility.yul\":9209:9246   */\n  tag_31\n  jump\t// in\ntag_151:\n    /* \"#utility.yul\":9268:9269   */\n  0x00\n    /* \"#utility.yul\":9282:9490   */\ntag_152:\n    /* \"#utility.yul\":9296:9303   */\n  dup3\n    /* \"#utility.yul\":9293:9294   */\n  dup2\n    /* \"#utility.yul\":9290:9304   */\n  lt\n    /* \"#utility.yul\":9282:9490   */\n  iszero\n  tag_154\n  jumpi\n    /* \"#utility.yul\":9375:9384   */\n  dup5\n    /* \"#utility.yul\":9370:9373   */\n  dup10\n    /* \"#utility.yul\":9366:9385   */\n  add\n    /* \"#utility.yul\":9360:9386   */\n  mload\n    /* \"#utility.yul\":9352:9358   */\n  dup3\n    /* \"#utility.yul\":9345:9387   */\n  sstore\n    /* \"#utility.yul\":9426:9427   */\n  0x01\n    /* \"#utility.yul\":9418:9424   */\n  dup3\n    /* \"#utility.yul\":9414:9428   */\n  add\n    /* \"#utility.yul\":9404:9428   */\n  swap2\n  pop\n    /* \"#utility.yul\":9473:9475   */\n  0x20\n    /* \"#utility.yul\":9462:9471   */\n  dup6\n    /* \"#utility.yul\":9458:9476   */\n  add\n    /* \"#utility.yul\":9445:9476   */\n  swap5\n  pop\n    /* \"#utility.yul\":9319:9323   */\n  0x20\n    /* \"#utility.yul\":9316:9317   */\n  dup2\n    /* \"#utility.yul\":9312:9324   */\n  add\n    /* \"#utility.yul\":9307:9324   */\n  swap1\n  pop\n    /* \"#utility.yul\":9282:9490   */\n  jump(tag_152)\ntag_154:\n    /* \"#utility.yul\":9518:9524   */\n  dup7\n    /* \"#utility.yul\":9509:9516   */\n  dup4\n    /* \"#utility.yul\":9506:9525   */\n  lt\n    /* \"#utility.yul\":9503:9682   */\n  iszero\n  tag_155\n  jumpi\n    /* \"#utility.yul\":9576:9585   */\n  dup5\n    /* \"#utility.yul\":9571:9574   */\n  dup10\n    /* \"#utility.yul\":9567:9586   */\n  add\n    /* \"#utility.yul\":9561:9587   */\n  mload\n    /* \"#utility.yul\":9619:9667   */\n  tag_156\n    /* \"#utility.yul\":9661:9665   */\n  0x1f\n    /* \"#utility.yul\":9653:9659   */\n  dup10\n    /* \"#utility.yul\":9649:9666   */\n  and\n    /* \"#utility.yul\":9638:9647   */\n  dup3\n    /* \"#utility.yul\":9619:9667   */\n  tag_45\n  jump\t// in\ntag_156:\n    /* \"#utility.yul\":9611:9617   */\n  dup4\n    /* \"#utility.yul\":9604:9668   */\n  sstore\n    /* \"#utility.yul\":9526:9682   */\n  pop\n    /* \"#utility.yul\":9503:9682   */\ntag_155:\n    /* \"#utility.yul\":9728:9729   */\n  0x01\n    /* \"#utility.yul\":9724:9725   */\n  0x02\n    /* \"#utility.yul\":9716:9722   */\n  dup9\n    /* \"#utility.yul\":9712:9726   */\n  mul\n    /* \"#utility.yul\":9708:9730   */\n  add\n    /* \"#utility.yul\":9702:9706   */\n  dup9\n    /* \"#utility.yul\":9695:9731   */\n  sstore\n    /* \"#utility.yul\":9130:9741   */\n  pop\n  pop\n  pop\n    /* \"#utility.yul\":9093:9980   */\ntag_147:\n  pop\n    /* \"#utility.yul\":8683:9986   */\n  pop\n  pop\n  pop\n    /* \"#utility.yul\":8591:9986   */\n  pop\n  pop\n  jump\t// out\n    /* \"variablesNativas.sol\":92:1571  contract variablesNativas {... */\ntag_10:\n  dataSize(sub_0)\n  dup1\n  dataOffset(sub_0)\n  0x00\n  codecopy\n  0x00\n  return\nstop\n\nsub_0: assembly {\n        /* \"variablesNativas.sol\":92:1571  contract variablesNativas {... */\n      mstore(0x40, 0x80)\n      callvalue\n      dup1\n      iszero\n      tag_1\n      jumpi\n      0x00\n      dup1\n      revert\n    tag_1:\n      pop\n      jumpi(tag_2, lt(calldatasize, 0x04))\n      shr(0xe0, calldataload(0x00))\n      dup1\n      0xce410d53\n      gt\n      tag_10\n      jumpi\n      dup1\n      0xce410d53\n      eq\n      tag_6\n      jumpi\n      dup1\n      0xdf77a62e\n      eq\n      tag_7\n      jumpi\n      dup1\n      0xf7ae9171\n      eq\n      tag_8\n      jumpi\n      dup1\n      0xf950fc6d\n      eq\n      tag_9\n      jumpi\n      jump(tag_2)\n    tag_10:\n      dup1\n      0x0bcd3b33\n      eq\n      tag_3\n      jumpi\n      dup1\n      0x17d7de7c\n      eq\n      tag_4\n      jumpi\n      dup1\n      0xcc6b3a6f\n      eq\n      tag_5\n      jumpi\n    tag_2:\n      0x00\n      dup1\n      revert\n        /* \"variablesNativas.sol\":1426:1562  function getBytes () public view returns (bytes1){ //la funcion lo que hace es mostrar el bytes_C que esta vacio... */\n    tag_3:\n      tag_11\n      tag_12\n      jump\t// in\n    tag_11:\n      mload(0x40)\n      tag_13\n      swap2\n      swap1\n      tag_14\n      jump\t// in\n    tag_13:\n      mload(0x40)\n      dup1\n      swap2\n      sub\n      swap1\n      return\n        /* \"variablesNativas.sol\":370:459  function getName () public view returns (string memory){... */\n    tag_4:\n      tag_15\n      tag_16\n      jump\t// in\n    tag_15:\n      mload(0x40)\n      tag_17\n      swap2\n      swap1\n      tag_18\n      jump\t// in\n    tag_17:\n      mload(0x40)\n      dup1\n      swap2\n      sub\n      swap1\n      return\n        /* \"variablesNativas.sol\":1125:1196  address public address_ver = 0xFa8258E37c82A426b07788176c49bb9a729A7B35 */\n    tag_5:\n      tag_19\n      tag_20\n      jump\t// in\n    tag_19:\n      mload(0x40)\n      tag_21\n      swap2\n      swap1\n      tag_22\n      jump\t// in\n    tag_21:\n      mload(0x40)\n      dup1\n      swap2\n      sub\n      swap1\n      return\n        /* \"variablesNativas.sol\":711:740  uint256 public uint_256 = 234 */\n    tag_6:\n      tag_23\n      tag_24\n      jump\t// in\n    tag_23:\n      mload(0x40)\n      tag_25\n      swap2\n      swap1\n      tag_26\n      jump\t// in\n    tag_25:\n      mload(0x40)\n      dup1\n      swap2\n      sub\n      swap1\n      return\n        /* \"variablesNativas.sol\":975:997  int8 public int_8 = -1 */\n    tag_7:\n      tag_27\n      tag_28\n      jump\t// in\n    tag_27:\n      mload(0x40)\n      tag_29\n      swap2\n      swap1\n      tag_30\n      jump\t// in\n    tag_29:\n      mload(0x40)\n      dup1\n      swap2\n      sub\n      swap1\n      return\n        /* \"variablesNativas.sol\":1004:1031  int256 public int_256 = 170 */\n    tag_8:\n      tag_31\n      tag_32\n      jump\t// in\n    tag_31:\n      mload(0x40)\n      tag_33\n      swap2\n      swap1\n      tag_34\n      jump\t// in\n    tag_33:\n      mload(0x40)\n      dup1\n      swap2\n      sub\n      swap1\n      return\n        /* \"variablesNativas.sol\":680:704  uint8 public uint_8  = 1 */\n    tag_9:\n      tag_35\n      tag_36\n      jump\t// in\n    tag_35:\n      mload(0x40)\n      tag_37\n      swap2\n      swap1\n      tag_38\n      jump\t// in\n    tag_37:\n      mload(0x40)\n      dup1\n      swap2\n      sub\n      swap1\n      return\n        /* \"variablesNativas.sol\":1426:1562  function getBytes () public view returns (bytes1){ //la funcion lo que hace es mostrar el bytes_C que esta vacio... */\n    tag_12:\n        /* \"variablesNativas.sol\":1468:1474  bytes1 */\n      0x00\n        /* \"variablesNativas.sol\":1551:1558  bytes_C */\n      0x05\n      0x16\n      swap1\n      sload\n      swap1\n      0x0100\n      exp\n      swap1\n      div\n      0xf8\n      shl\n        /* \"variablesNativas.sol\":1544:1558  return bytes_C */\n      swap1\n      pop\n        /* \"variablesNativas.sol\":1426:1562  function getBytes () public view returns (bytes1){ //la funcion lo que hace es mostrar el bytes_C que esta vacio... */\n      swap1\n      jump\t// out\n        /* \"variablesNativas.sol\":370:459  function getName () public view returns (string memory){... */\n    tag_16:\n        /* \"variablesNativas.sol\":411:424  string memory */\n      0x60\n        /* \"variablesNativas.sol\":443:451  fullName */\n      0x00\n        /* \"variablesNativas.sol\":436:451  return fullName */\n      dup1\n      sload\n      tag_41\n      swap1\n      tag_42\n      jump\t// in\n    tag_41:\n      dup1\n      0x1f\n      add\n      0x20\n      dup1\n      swap2\n      div\n      mul\n      0x20\n      add\n      mload(0x40)\n      swap1\n      dup2\n      add\n      0x40\n      mstore\n      dup1\n      swap3\n      swap2\n      swap1\n      dup2\n      dup2\n      mstore\n      0x20\n      add\n      dup3\n      dup1\n      sload\n      tag_43\n      swap1\n      tag_42\n      jump\t// in\n    tag_43:\n      dup1\n      iszero\n      tag_44\n      jumpi\n      dup1\n      0x1f\n      lt\n      tag_45\n      jumpi\n      0x0100\n      dup1\n      dup4\n      sload\n      div\n      mul\n      dup4\n      mstore\n      swap2\n      0x20\n      add\n      swap2\n      jump(tag_44)\n    tag_45:\n      dup3\n      add\n      swap2\n      swap1\n      0x00\n      mstore\n      keccak256(0x00, 0x20)\n      swap1\n    tag_46:\n      dup2\n      sload\n      dup2\n      mstore\n      swap1\n      0x01\n      add\n      swap1\n      0x20\n      add\n      dup1\n      dup4\n      gt\n      tag_46\n      jumpi\n      dup3\n      swap1\n      sub\n      0x1f\n      and\n      dup3\n      add\n      swap2\n    tag_44:\n      pop\n      pop\n      pop\n      pop\n      pop\n      swap1\n      pop\n        /* \"variablesNativas.sol\":370:459  function getName () public view returns (string memory){... */\n      swap1\n      jump\t// out\n        /* \"variablesNativas.sol\":1125:1196  address public address_ver = 0xFa8258E37c82A426b07788176c49bb9a729A7B35 */\n    tag_20:\n      0x05\n      0x00\n      swap1\n      sload\n      swap1\n      0x0100\n      exp\n      swap1\n      div\n      0xffffffffffffffffffffffffffffffffffffffff\n      and\n      dup2\n      jump\t// out\n        /* \"variablesNativas.sol\":711:740  uint256 public uint_256 = 234 */\n    tag_24:\n      sload(0x02)\n      dup2\n      jump\t// out\n        /* \"variablesNativas.sol\":975:997  int8 public int_8 = -1 */\n    tag_28:\n      0x03\n      0x00\n      swap1\n      sload\n      swap1\n      0x0100\n      exp\n      swap1\n      div\n      0x00\n      signextend\n      dup2\n      jump\t// out\n        /* \"variablesNativas.sol\":1004:1031  int256 public int_256 = 170 */\n    tag_32:\n      sload(0x04)\n      dup2\n      jump\t// out\n        /* \"variablesNativas.sol\":680:704  uint8 public uint_8  = 1 */\n    tag_36:\n      0x01\n      0x00\n      swap1\n      sload\n      swap1\n      0x0100\n      exp\n      swap1\n      div\n      0xff\n      and\n      dup2\n      jump\t// out\n        /* \"#utility.yul\":7:156   */\n    tag_47:\n        /* \"#utility.yul\":43:50   */\n      0x00\n        /* \"#utility.yul\":83:149   */\n      0xff00000000000000000000000000000000000000000000000000000000000000\n        /* \"#utility.yul\":76:81   */\n      dup3\n        /* \"#utility.yul\":72:150   */\n      and\n        /* \"#utility.yul\":61:150   */\n      swap1\n      pop\n        /* \"#utility.yul\":7:156   */\n      swap2\n      swap1\n      pop\n      jump\t// out\n        /* \"#utility.yul\":162:277   */\n    tag_48:\n        /* \"#utility.yul\":247:270   */\n      tag_69\n        /* \"#utility.yul\":264:269   */\n      dup2\n        /* \"#utility.yul\":247:270   */\n      tag_47\n      jump\t// in\n    tag_69:\n        /* \"#utility.yul\":242:245   */\n      dup3\n        /* \"#utility.yul\":235:271   */\n      mstore\n        /* \"#utility.yul\":162:277   */\n      pop\n      pop\n      jump\t// out\n        /* \"#utility.yul\":283:501   */\n    tag_14:\n        /* \"#utility.yul\":374:378   */\n      0x00\n        /* \"#utility.yul\":412:414   */\n      0x20\n        /* \"#utility.yul\":401:410   */\n      dup3\n        /* \"#utility.yul\":397:415   */\n      add\n        /* \"#utility.yul\":389:415   */\n      swap1\n      pop\n        /* \"#utility.yul\":425:494   */\n      tag_71\n        /* \"#utility.yul\":491:492   */\n      0x00\n        /* \"#utility.yul\":480:489   */\n      dup4\n        /* \"#utility.yul\":476:493   */\n      add\n        /* \"#utility.yul\":467:473   */\n      dup5\n        /* \"#utility.yul\":425:494   */\n      tag_48\n      jump\t// in\n    tag_71:\n        /* \"#utility.yul\":283:501   */\n      swap3\n      swap2\n      pop\n      pop\n      jump\t// out\n        /* \"#utility.yul\":507:606   */\n    tag_49:\n        /* \"#utility.yul\":559:565   */\n      0x00\n        /* \"#utility.yul\":593:598   */\n      dup2\n        /* \"#utility.yul\":587:599   */\n      mload\n        /* \"#utility.yul\":577:599   */\n      swap1\n      pop\n        /* \"#utility.yul\":507:606   */\n      swap2\n      swap1\n      pop\n      jump\t// out\n        /* \"#utility.yul\":612:781   */\n    tag_50:\n        /* \"#utility.yul\":696:707   */\n      0x00\n        /* \"#utility.yul\":730:736   */\n      dup3\n        /* \"#utility.yul\":725:728   */\n      dup3\n        /* \"#utility.yul\":718:737   */\n      mstore\n        /* \"#utility.yul\":770:774   */\n      0x20\n        /* \"#utility.yul\":765:768   */\n      dup3\n        /* \"#utility.yul\":761:775   */\n      add\n        /* \"#utility.yul\":746:775   */\n      swap1\n      pop\n        /* \"#utility.yul\":612:781   */\n      swap3\n      swap2\n      pop\n      pop\n      jump\t// out\n        /* \"#utility.yul\":787:1033   */\n    tag_51:\n        /* \"#utility.yul\":868:869   */\n      0x00\n        /* \"#utility.yul\":878:991   */\n    tag_75:\n        /* \"#utility.yul\":892:898   */\n      dup4\n        /* \"#utility.yul\":889:890   */\n      dup2\n        /* \"#utility.yul\":886:899   */\n      lt\n        /* \"#utility.yul\":878:991   */\n      iszero\n      tag_77\n      jumpi\n        /* \"#utility.yul\":977:978   */\n      dup1\n        /* \"#utility.yul\":972:975   */\n      dup3\n        /* \"#utility.yul\":968:979   */\n      add\n        /* \"#utility.yul\":962:980   */\n      mload\n        /* \"#utility.yul\":958:959   */\n      dup2\n        /* \"#utility.yul\":953:956   */\n      dup5\n        /* \"#utility.yul\":949:960   */\n      add\n        /* \"#utility.yul\":942:981   */\n      mstore\n        /* \"#utility.yul\":914:916   */\n      0x20\n        /* \"#utility.yul\":911:912   */\n      dup2\n        /* \"#utility.yul\":907:917   */\n      add\n        /* \"#utility.yul\":902:917   */\n      swap1\n      pop\n        /* \"#utility.yul\":878:991   */\n      jump(tag_75)\n    tag_77:\n        /* \"#utility.yul\":1025:1026   */\n      0x00\n        /* \"#utility.yul\":1016:1022   */\n      dup5\n        /* \"#utility.yul\":1011:1014   */\n      dup5\n        /* \"#utility.yul\":1007:1023   */\n      add\n        /* \"#utility.yul\":1000:1027   */\n      mstore\n        /* \"#utility.yul\":849:1033   */\n      pop\n        /* \"#utility.yul\":787:1033   */\n      pop\n      pop\n      pop\n      jump\t// out\n        /* \"#utility.yul\":1039:1141   */\n    tag_52:\n        /* \"#utility.yul\":1080:1086   */\n      0x00\n        /* \"#utility.yul\":1131:1133   */\n      0x1f\n        /* \"#utility.yul\":1127:1134   */\n      not\n        /* \"#utility.yul\":1122:1124   */\n      0x1f\n        /* \"#utility.yul\":1115:1120   */\n      dup4\n        /* \"#utility.yul\":1111:1125   */\n      add\n        /* \"#utility.yul\":1107:1135   */\n      and\n        /* \"#utility.yul\":1097:1135   */\n      swap1\n      pop\n        /* \"#utility.yul\":1039:1141   */\n      swap2\n      swap1\n      pop\n      jump\t// out\n        /* \"#utility.yul\":1147:1524   */\n    tag_53:\n        /* \"#utility.yul\":1235:1238   */\n      0x00\n        /* \"#utility.yul\":1263:1302   */\n      tag_80\n        /* \"#utility.yul\":1296:1301   */\n      dup3\n        /* \"#utility.yul\":1263:1302   */\n      tag_49\n      jump\t// in\n    tag_80:\n        /* \"#utility.yul\":1318:1389   */\n      tag_81\n        /* \"#utility.yul\":1382:1388   */\n      dup2\n        /* \"#utility.yul\":1377:1380   */\n      dup6\n        /* \"#utility.yul\":1318:1389   */\n      tag_50\n      jump\t// in\n    tag_81:\n        /* \"#utility.yul\":1311:1389   */\n      swap4\n      pop\n        /* \"#utility.yul\":1398:1463   */\n      tag_82\n        /* \"#utility.yul\":1456:1462   */\n      dup2\n        /* \"#utility.yul\":1451:1454   */\n      dup6\n        /* \"#utility.yul\":1444:1448   */\n      0x20\n        /* \"#utility.yul\":1437:1442   */\n      dup7\n        /* \"#utility.yul\":1433:1449   */\n      add\n        /* \"#utility.yul\":1398:1463   */\n      tag_51\n      jump\t// in\n    tag_82:\n        /* \"#utility.yul\":1488:1517   */\n      tag_83\n        /* \"#utility.yul\":1510:1516   */\n      dup2\n        /* \"#utility.yul\":1488:1517   */\n      tag_52\n      jump\t// in\n    tag_83:\n        /* \"#utility.yul\":1483:1486   */\n      dup5\n        /* \"#utility.yul\":1479:1518   */\n      add\n        /* \"#utility.yul\":1472:1518   */\n      swap2\n      pop\n        /* \"#utility.yul\":1239:1524   */\n      pop\n        /* \"#utility.yul\":1147:1524   */\n      swap3\n      swap2\n      pop\n      pop\n      jump\t// out\n        /* \"#utility.yul\":1530:1843   */\n    tag_18:\n        /* \"#utility.yul\":1643:1647   */\n      0x00\n        /* \"#utility.yul\":1681:1683   */\n      0x20\n        /* \"#utility.yul\":1670:1679   */\n      dup3\n        /* \"#utility.yul\":1666:1684   */\n      add\n        /* \"#utility.yul\":1658:1684   */\n      swap1\n      pop\n        /* \"#utility.yul\":1730:1739   */\n      dup2\n        /* \"#utility.yul\":1724:1728   */\n      dup2\n        /* \"#utility.yul\":1720:1740   */\n      sub\n        /* \"#utility.yul\":1716:1717   */\n      0x00\n        /* \"#utility.yul\":1705:1714   */\n      dup4\n        /* \"#utility.yul\":1701:1718   */\n      add\n        /* \"#utility.yul\":1694:1741   */\n      mstore\n        /* \"#utility.yul\":1758:1836   */\n      tag_85\n        /* \"#utility.yul\":1831:1835   */\n      dup2\n        /* \"#utility.yul\":1822:1828   */\n      dup5\n        /* \"#utility.yul\":1758:1836   */\n      tag_53\n      jump\t// in\n    tag_85:\n        /* \"#utility.yul\":1750:1836   */\n      swap1\n      pop\n        /* \"#utility.yul\":1530:1843   */\n      swap3\n      swap2\n      pop\n      pop\n      jump\t// out\n        /* \"#utility.yul\":1849:1975   */\n    tag_54:\n        /* \"#utility.yul\":1886:1893   */\n      0x00\n        /* \"#utility.yul\":1926:1968   */\n      0xffffffffffffffffffffffffffffffffffffffff\n        /* \"#utility.yul\":1919:1924   */\n      dup3\n        /* \"#utility.yul\":1915:1969   */\n      and\n        /* \"#utility.yul\":1904:1969   */\n      swap1\n      pop\n        /* \"#utility.yul\":1849:1975   */\n      swap2\n      swap1\n      pop\n      jump\t// out\n        /* \"#utility.yul\":1981:2077   */\n    tag_55:\n        /* \"#utility.yul\":2018:2025   */\n      0x00\n        /* \"#utility.yul\":2047:2071   */\n      tag_88\n        /* \"#utility.yul\":2065:2070   */\n      dup3\n        /* \"#utility.yul\":2047:2071   */\n      tag_54\n      jump\t// in\n    tag_88:\n        /* \"#utility.yul\":2036:2071   */\n      swap1\n      pop\n        /* \"#utility.yul\":1981:2077   */\n      swap2\n      swap1\n      pop\n      jump\t// out\n        /* \"#utility.yul\":2083:2201   */\n    tag_56:\n        /* \"#utility.yul\":2170:2194   */\n      tag_90\n        /* \"#utility.yul\":2188:2193   */\n      dup2\n        /* \"#utility.yul\":2170:2194   */\n      tag_55\n      jump\t// in\n    tag_90:\n        /* \"#utility.yul\":2165:2168   */\n      dup3\n        /* \"#utility.yul\":2158:2195   */\n      mstore\n        /* \"#utility.yul\":2083:2201   */\n      pop\n      pop\n      jump\t// out\n        /* \"#utility.yul\":2207:2429   */\n    tag_22:\n        /* \"#utility.yul\":2300:2304   */\n      0x00\n        /* \"#utility.yul\":2338:2340   */\n      0x20\n        /* \"#utility.yul\":2327:2336   */\n      dup3\n        /* \"#utility.yul\":2323:2341   */\n      add\n        /* \"#utility.yul\":2315:2341   */\n      swap1\n      pop\n        /* \"#utility.yul\":2351:2422   */\n      tag_92\n        /* \"#utility.yul\":2419:2420   */\n      0x00\n        /* \"#utility.yul\":2408:2417   */\n      dup4\n        /* \"#utility.yul\":2404:2421   */\n      add\n        /* \"#utility.yul\":2395:2401   */\n      dup5\n        /* \"#utility.yul\":2351:2422   */\n      tag_56\n      jump\t// in\n    tag_92:\n        /* \"#utility.yul\":2207:2429   */\n      swap3\n      swap2\n      pop\n      pop\n      jump\t// out\n        /* \"#utility.yul\":2435:2512   */\n    tag_57:\n        /* \"#utility.yul\":2472:2479   */\n      0x00\n        /* \"#utility.yul\":2501:2506   */\n      dup2\n        /* \"#utility.yul\":2490:2506   */\n      swap1\n      pop\n        /* \"#utility.yul\":2435:2512   */\n      swap2\n      swap1\n      pop\n      jump\t// out\n        /* \"#utility.yul\":2518:2636   */\n    tag_58:\n        /* \"#utility.yul\":2605:2629   */\n      tag_95\n        /* \"#utility.yul\":2623:2628   */\n      dup2\n        /* \"#utility.yul\":2605:2629   */\n      tag_57\n      jump\t// in\n    tag_95:\n        /* \"#utility.yul\":2600:2603   */\n      dup3\n        /* \"#utility.yul\":2593:2630   */\n      mstore\n        /* \"#utility.yul\":2518:2636   */\n      pop\n      pop\n      jump\t// out\n        /* \"#utility.yul\":2642:2864   */\n    tag_26:\n        /* \"#utility.yul\":2735:2739   */\n      0x00\n        /* \"#utility.yul\":2773:2775   */\n      0x20\n        /* \"#utility.yul\":2762:2771   */\n      dup3\n        /* \"#utility.yul\":2758:2776   */\n      add\n        /* \"#utility.yul\":2750:2776   */\n      swap1\n      pop\n        /* \"#utility.yul\":2786:2857   */\n      tag_97\n        /* \"#utility.yul\":2854:2855   */\n      0x00\n        /* \"#utility.yul\":2843:2852   */\n      dup4\n        /* \"#utility.yul\":2839:2856   */\n      add\n        /* \"#utility.yul\":2830:2836   */\n      dup5\n        /* \"#utility.yul\":2786:2857   */\n      tag_58\n      jump\t// in\n    tag_97:\n        /* \"#utility.yul\":2642:2864   */\n      swap3\n      swap2\n      pop\n      pop\n      jump\t// out\n        /* \"#utility.yul\":2870:2959   */\n    tag_59:\n        /* \"#utility.yul\":2904:2911   */\n      0x00\n        /* \"#utility.yul\":2947:2952   */\n      dup2\n        /* \"#utility.yul\":2944:2945   */\n      0x00\n        /* \"#utility.yul\":2933:2953   */\n      signextend\n        /* \"#utility.yul\":2922:2953   */\n      swap1\n      pop\n        /* \"#utility.yul\":2870:2959   */\n      swap2\n      swap1\n      pop\n      jump\t// out\n        /* \"#utility.yul\":2965:3074   */\n    tag_60:\n        /* \"#utility.yul\":3046:3067   */\n      tag_100\n        /* \"#utility.yul\":3061:3066   */\n      dup2\n        /* \"#utility.yul\":3046:3067   */\n      tag_59\n      jump\t// in\n    tag_100:\n        /* \"#utility.yul\":3041:3044   */\n      dup3\n        /* \"#utility.yul\":3034:3068   */\n      mstore\n        /* \"#utility.yul\":2965:3074   */\n      pop\n      pop\n      jump\t// out\n        /* \"#utility.yul\":3080:3290   */\n    tag_30:\n        /* \"#utility.yul\":3167:3171   */\n      0x00\n        /* \"#utility.yul\":3205:3207   */\n      0x20\n        /* \"#utility.yul\":3194:3203   */\n      dup3\n        /* \"#utility.yul\":3190:3208   */\n      add\n        /* \"#utility.yul\":3182:3208   */\n      swap1\n      pop\n        /* \"#utility.yul\":3218:3283   */\n      tag_102\n        /* \"#utility.yul\":3280:3281   */\n      0x00\n        /* \"#utility.yul\":3269:3278   */\n      dup4\n        /* \"#utility.yul\":3265:3282   */\n      add\n        /* \"#utility.yul\":3256:3262   */\n      dup5\n        /* \"#utility.yul\":3218:3283   */\n      tag_60\n      jump\t// in\n    tag_102:\n        /* \"#utility.yul\":3080:3290   */\n      swap3\n      swap2\n      pop\n      pop\n      jump\t// out\n        /* \"#utility.yul\":3296:3372   */\n    tag_61:\n        /* \"#utility.yul\":3332:3339   */\n      0x00\n        /* \"#utility.yul\":3361:3366   */\n      dup2\n        /* \"#utility.yul\":3350:3366   */\n      swap1\n      pop\n        /* \"#utility.yul\":3296:3372   */\n      swap2\n      swap1\n      pop\n      jump\t// out\n        /* \"#utility.yul\":3378:3493   */\n    tag_62:\n        /* \"#utility.yul\":3463:3486   */\n      tag_105\n        /* \"#utility.yul\":3480:3485   */\n      dup2\n        /* \"#utility.yul\":3463:3486   */\n      tag_61\n      jump\t// in\n    tag_105:\n        /* \"#utility.yul\":3458:3461   */\n      dup3\n        /* \"#utility.yul\":3451:3487   */\n      mstore\n        /* \"#utility.yul\":3378:3493   */\n      pop\n      pop\n      jump\t// out\n        /* \"#utility.yul\":3499:3717   */\n    tag_34:\n        /* \"#utility.yul\":3590:3594   */\n      0x00\n        /* \"#utility.yul\":3628:3630   */\n      0x20\n        /* \"#utility.yul\":3617:3626   */\n      dup3\n        /* \"#utility.yul\":3613:3631   */\n      add\n        /* \"#utility.yul\":3605:3631   */\n      swap1\n      pop\n        /* \"#utility.yul\":3641:3710   */\n      tag_107\n        /* \"#utility.yul\":3707:3708   */\n      0x00\n        /* \"#utility.yul\":3696:3705   */\n      dup4\n        /* \"#utility.yul\":3692:3709   */\n      add\n        /* \"#utility.yul\":3683:3689   */\n      dup5\n        /* \"#utility.yul\":3641:3710   */\n      tag_62\n      jump\t// in\n    tag_107:\n        /* \"#utility.yul\":3499:3717   */\n      swap3\n      swap2\n      pop\n      pop\n      jump\t// out\n        /* \"#utility.yul\":3723:3809   */\n    tag_63:\n        /* \"#utility.yul\":3758:3765   */\n      0x00\n        /* \"#utility.yul\":3798:3802   */\n      0xff\n        /* \"#utility.yul\":3791:3796   */\n      dup3\n        /* \"#utility.yul\":3787:3803   */\n      and\n        /* \"#utility.yul\":3776:3803   */\n      swap1\n      pop\n        /* \"#utility.yul\":3723:3809   */\n      swap2\n      swap1\n      pop\n      jump\t// out\n        /* \"#utility.yul\":3815:3927   */\n    tag_64:\n        /* \"#utility.yul\":3898:3920   */\n      tag_110\n        /* \"#utility.yul\":3914:3919   */\n      dup2\n        /* \"#utility.yul\":3898:3920   */\n      tag_63\n      jump\t// in\n    tag_110:\n        /* \"#utility.yul\":3893:3896   */\n      dup3\n        /* \"#utility.yul\":3886:3921   */\n      mstore\n        /* \"#utility.yul\":3815:3927   */\n      pop\n      pop\n      jump\t// out\n        /* \"#utility.yul\":3933:4147   */\n    tag_38:\n        /* \"#utility.yul\":4022:4026   */\n      0x00\n        /* \"#utility.yul\":4060:4062   */\n      0x20\n        /* \"#utility.yul\":4049:4058   */\n      dup3\n        /* \"#utility.yul\":4045:4063   */\n      add\n        /* \"#utility.yul\":4037:4063   */\n      swap1\n      pop\n        /* \"#utility.yul\":4073:4140   */\n      tag_112\n        /* \"#utility.yul\":4137:4138   */\n      0x00\n        /* \"#utility.yul\":4126:4135   */\n      dup4\n        /* \"#utility.yul\":4122:4139   */\n      add\n        /* \"#utility.yul\":4113:4119   */\n      dup5\n        /* \"#utility.yul\":4073:4140   */\n      tag_64\n      jump\t// in\n    tag_112:\n        /* \"#utility.yul\":3933:4147   */\n      swap3\n      swap2\n      pop\n      pop\n      jump\t// out\n        /* \"#utility.yul\":4153:4333   */\n    tag_65:\n        /* \"#utility.yul\":4201:4278   */\n      0x4e487b7100000000000000000000000000000000000000000000000000000000\n        /* \"#utility.yul\":4198:4199   */\n      0x00\n        /* \"#utility.yul\":4191:4279   */\n      mstore\n        /* \"#utility.yul\":4298:4302   */\n      0x22\n        /* \"#utility.yul\":4295:4296   */\n      0x04\n        /* \"#utility.yul\":4288:4303   */\n      mstore\n        /* \"#utility.yul\":4322:4326   */\n      0x24\n        /* \"#utility.yul\":4319:4320   */\n      0x00\n        /* \"#utility.yul\":4312:4327   */\n      revert\n        /* \"#utility.yul\":4339:4659   */\n    tag_42:\n        /* \"#utility.yul\":4383:4389   */\n      0x00\n        /* \"#utility.yul\":4420:4421   */\n      0x02\n        /* \"#utility.yul\":4414:4418   */\n      dup3\n        /* \"#utility.yul\":4410:4422   */\n      div\n        /* \"#utility.yul\":4400:4422   */\n      swap1\n      pop\n        /* \"#utility.yul\":4467:4468   */\n      0x01\n        /* \"#utility.yul\":4461:4465   */\n      dup3\n        /* \"#utility.yul\":4457:4469   */\n      and\n        /* \"#utility.yul\":4488:4506   */\n      dup1\n        /* \"#utility.yul\":4478:4559   */\n      tag_115\n      jumpi\n        /* \"#utility.yul\":4544:4548   */\n      0x7f\n        /* \"#utility.yul\":4536:4542   */\n      dup3\n        /* \"#utility.yul\":4532:4549   */\n      and\n        /* \"#utility.yul\":4522:4549   */\n      swap2\n      pop\n        /* \"#utility.yul\":4478:4559   */\n    tag_115:\n        /* \"#utility.yul\":4606:4608   */\n      0x20\n        /* \"#utility.yul\":4598:4604   */\n      dup3\n        /* \"#utility.yul\":4595:4609   */\n      lt\n        /* \"#utility.yul\":4575:4593   */\n      dup2\n        /* \"#utility.yul\":4572:4610   */\n      sub\n        /* \"#utility.yul\":4569:4653   */\n      tag_116\n      jumpi\n        /* \"#utility.yul\":4625:4643   */\n      tag_117\n      tag_65\n      jump\t// in\n    tag_117:\n        /* \"#utility.yul\":4569:4653   */\n    tag_116:\n        /* \"#utility.yul\":4390:4659   */\n      pop\n        /* \"#utility.yul\":4339:4659   */\n      swap2\n      swap1\n      pop\n      jump\t// out\n\n    auxdata: 0xa2646970667358221220880caa6db99a8af29f209609896f7655a980ee71900dc5283111fb0ca008c7f364736f6c63430008180033\n}\n",
				"bytecode": {
					"linkReferences": {},
					"object": "60806040526001805f6101000a81548160ff021916908360ff16021790555060ea6002557fffffffffffffffffffffffffffffffffffffffffffffffffffffffffffffffff60035f6101000a81548160ff02191690835f0b60ff16021790555060aa60045573fa8258e37c82a426b07788176c49bb9a729a7b3560055f6101000a81548173ffffffffffffffffffffffffffffffffffffffff021916908373ffffffffffffffffffffffffffffffffffffffff16021790555060b560f81b600560146101000a81548160ff021916908360f81c0217905550605660f81b600560156101000a81548160ff021916908360f81c021790555034801562000102575f80fd5b5060405162000c1f38038062000c1f8339818101604052810190620001289190620002e6565b806040516020016200013b9190620003cb565b6040516020818303038152906040525f908162000159919062000632565b505062000716565b5f604051905090565b5f80fd5b5f80fd5b5f80fd5b5f80fd5b5f601f19601f8301169050919050565b7f4e487b71000000000000000000000000000000000000000000000000000000005f52604160045260245ffd5b620001c2826200017a565b810181811067ffffffffffffffff82111715620001e457620001e36200018a565b5b80604052505050565b5f620001f862000161565b9050620002068282620001b7565b919050565b5f67ffffffffffffffff8211156200022857620002276200018a565b5b62000233826200017a565b9050602081019050919050565b5f5b838110156200025f57808201518184015260208101905062000242565b5f8484015250505050565b5f620002806200027a846200020b565b620001ed565b9050828152602081018484840111156200029f576200029e62000176565b5b620002ac84828562000240565b509392505050565b5f82601f830112620002cb57620002ca62000172565b5b8151620002dd8482602086016200026a565b91505092915050565b5f60208284031215620002fe57620002fd6200016a565b5b5f82015167ffffffffffffffff8111156200031e576200031d6200016e565b5b6200032c84828501620002b4565b91505092915050565b7f4d69206e6f6d6272652065733a20000000000000000000000000000000000000815250565b7f2000000000000000000000000000000000000000000000000000000000000000815250565b5f81519050919050565b5f81905092915050565b5f620003a18262000381565b620003ad81856200038b565b9350620003bf81856020860162000240565b80840191505092915050565b5f620003d78262000335565b600e82019150620003e8826200035b565b600182019150620003fa828462000395565b915081905092915050565b7f4e487b71000000000000000000000000000000000000000000000000000000005f52602260045260245ffd5b5f60028204905060018216806200044a57607f821691505b60208210810362000460576200045f62000405565b5b50919050565b5f819050815f5260205f209050919050565b5f6020601f8301049050919050565b5f82821b905092915050565b5f60088302620004c47fffffffffffffffffffffffffffffffffffffffffffffffffffffffffffffffff8262000487565b620004d0868362000487565b95508019841693508086168417925050509392505050565b5f819050919050565b5f819050919050565b5f6200051a620005146200050e84620004e8565b620004f1565b620004e8565b9050919050565b5f819050919050565b6200053583620004fa565b6200054d620005448262000521565b84845462000493565b825550505050565b5f90565b6200056362000555565b620005708184846200052a565b505050565b5b8181101562000597576200058b5f8262000559565b60018101905062000576565b5050565b601f821115620005e657620005b08162000466565b620005bb8462000478565b81016020851015620005cb578190505b620005e3620005da8562000478565b83018262000575565b50505b505050565b5f82821c905092915050565b5f620006085f1984600802620005eb565b1980831691505092915050565b5f620006228383620005f7565b9150826002028217905092915050565b6200063d8262000381565b67ffffffffffffffff8111156200065957620006586200018a565b5b62000665825462000432565b620006728282856200059b565b5f60209050601f831160018114620006a8575f841562000693578287015190505b6200069f858262000615565b8655506200070e565b601f198416620006b88662000466565b5f5b82811015620006e157848901518255600182019150602085019450602081019050620006ba565b86831015620007015784890151620006fd601f891682620005f7565b8355505b6001600288020188555050505b505050505050565b6104fb80620007245f395ff3fe608060405234801561000f575f80fd5b506004361061007b575f3560e01c8063ce410d5311610059578063ce410d53146100d9578063df77a62e146100f7578063f7ae917114610115578063f950fc6d146101335761007b565b80630bcd3b331461007f57806317d7de7c1461009d578063cc6b3a6f146100bb575b5f80fd5b610087610151565b6040516100949190610284565b60405180910390f35b6100a5610167565b6040516100b29190610327565b60405180910390f35b6100c36101f6565b6040516100d09190610386565b60405180910390f35b6100e161021b565b6040516100ee91906103b7565b60405180910390f35b6100ff610221565b60405161010c91906103ea565b60405180910390f35b61011d610232565b60405161012a919061041b565b60405180910390f35b61013b610238565b604051610148919061044f565b60405180910390f35b5f600560169054906101000a900460f81b905090565b60605f805461017590610495565b80601f01602080910402602001604051908101604052809291908181526020018280546101a190610495565b80156101ec5780601f106101c3576101008083540402835291602001916101ec565b820191905f5260205f20905b8154815290600101906020018083116101cf57829003601f168201915b5050505050905090565b60055f9054906101000a900473ffffffffffffffffffffffffffffffffffffffff1681565b60025481565b60035f9054906101000a90045f0b81565b60045481565b60015f9054906101000a900460ff1681565b5f7fff0000000000000000000000000000000000000000000000000000000000000082169050919050565b61027e8161024a565b82525050565b5f6020820190506102975f830184610275565b92915050565b5f81519050919050565b5f82825260208201905092915050565b5f5b838110156102d45780820151818401526020810190506102b9565b5f8484015250505050565b5f601f19601f8301169050919050565b5f6102f98261029d565b61030381856102a7565b93506103138185602086016102b7565b61031c816102df565b840191505092915050565b5f6020820190508181035f83015261033f81846102ef565b905092915050565b5f73ffffffffffffffffffffffffffffffffffffffff82169050919050565b5f61037082610347565b9050919050565b61038081610366565b82525050565b5f6020820190506103995f830184610377565b92915050565b5f819050919050565b6103b18161039f565b82525050565b5f6020820190506103ca5f8301846103a8565b92915050565b5f815f0b9050919050565b6103e4816103d0565b82525050565b5f6020820190506103fd5f8301846103db565b92915050565b5f819050919050565b61041581610403565b82525050565b5f60208201905061042e5f83018461040c565b92915050565b5f60ff82169050919050565b61044981610434565b82525050565b5f6020820190506104625f830184610440565b92915050565b7f4e487b71000000000000000000000000000000000000000000000000000000005f52602260045260245ffd5b5f60028204905060018216806104ac57607f821691505b6020821081036104bf576104be610468565b5b5091905056fea2646970667358221220880caa6db99a8af29f209609896f7655a980ee71900dc5283111fb0ca008c7f364736f6c63430008180033",
					"opcodes": "PUSH1 0x80 PUSH1 0x40 MSTORE PUSH1 0x1 DUP1 PUSH0 PUSH2 0x100 EXP DUP2 SLOAD DUP2 PUSH1 0xFF MUL NOT AND SWAP1 DUP4 PUSH1 0xFF AND MUL OR SWAP1 SSTORE POP PUSH1 0xEA PUSH1 0x2 SSTORE PUSH32 0xFFFFFFFFFFFFFFFFFFFFFFFFFFFFFFFFFFFFFFFFFFFFFFFFFFFFFFFFFFFFFFFF PUSH1 0x3 PUSH0 PUSH2 0x100 EXP DUP2 SLOAD DUP2 PUSH1 0xFF MUL NOT AND SWAP1 DUP4 PUSH0 SIGNEXTEND PUSH1 0xFF AND MUL OR SWAP1 SSTORE POP PUSH1 0xAA PUSH1 0x4 SSTORE PUSH20 0xFA8258E37C82A426B07788176C49BB9A729A7B35 PUSH1 0x5 PUSH0 PUSH2 0x100 EXP DUP2 SLOAD DUP2 PUSH20 0xFFFFFFFFFFFFFFFFFFFFFFFFFFFFFFFFFFFFFFFF MUL NOT AND SWAP1 DUP4 PUSH20 0xFFFFFFFFFFFFFFFFFFFFFFFFFFFFFFFFFFFFFFFF AND MUL OR SWAP1 SSTORE POP PUSH1 0xB5 PUSH1 0xF8 SHL PUSH1 0x5 PUSH1 0x14 PUSH2 0x100 EXP DUP2 SLOAD DUP2 PUSH1 0xFF MUL NOT AND SWAP1 DUP4 PUSH1 0xF8 SHR MUL OR SWAP1 SSTORE POP PUSH1 0x56 PUSH1 0xF8 SHL PUSH1 0x5 PUSH1 0x15 PUSH2 0x100 EXP DUP2 SLOAD DUP2 PUSH1 0xFF MUL NOT AND SWAP1 DUP4 PUSH1 0xF8 SHR MUL OR SWAP1 SSTORE POP CALLVALUE DUP1 ISZERO PUSH3 0x102 JUMPI PUSH0 DUP1 REVERT JUMPDEST POP PUSH1 0x40 MLOAD PUSH3 0xC1F CODESIZE SUB DUP1 PUSH3 0xC1F DUP4 CODECOPY DUP2 DUP2 ADD PUSH1 0x40 MSTORE DUP2 ADD SWAP1 PUSH3 0x128 SWAP2 SWAP1 PUSH3 0x2E6 JUMP JUMPDEST DUP1 PUSH1 0x40 MLOAD PUSH1 0x20 ADD PUSH3 0x13B SWAP2 SWAP1 PUSH3 0x3CB JUMP JUMPDEST PUSH1 0x40 MLOAD PUSH1 0x20 DUP2 DUP4 SUB SUB DUP2 MSTORE SWAP1 PUSH1 0x40 MSTORE PUSH0 SWAP1 DUP2 PUSH3 0x159 SWAP2 SWAP1 PUSH3 0x632 JUMP JUMPDEST POP POP PUSH3 0x716 JUMP JUMPDEST PUSH0 PUSH1 0x40 MLOAD SWAP1 POP SWAP1 JUMP JUMPDEST PUSH0 DUP1 REVERT JUMPDEST PUSH0 DUP1 REVERT JUMPDEST PUSH0 DUP1 REVERT JUMPDEST PUSH0 DUP1 REVERT JUMPDEST PUSH0 PUSH1 0x1F NOT PUSH1 0x1F DUP4 ADD AND SWAP1 POP SWAP2 SWAP1 POP JUMP JUMPDEST PUSH32 0x4E487B7100000000000000000000000000000000000000000000000000000000 PUSH0 MSTORE PUSH1 0x41 PUSH1 0x4 MSTORE PUSH1 0x24 PUSH0 REVERT JUMPDEST PUSH3 0x1C2 DUP3 PUSH3 0x17A JUMP JUMPDEST DUP2 ADD DUP2 DUP2 LT PUSH8 0xFFFFFFFFFFFFFFFF DUP3 GT OR ISZERO PUSH3 0x1E4 JUMPI PUSH3 0x1E3 PUSH3 0x18A JUMP JUMPDEST JUMPDEST DUP1 PUSH1 0x40 MSTORE POP POP POP JUMP JUMPDEST PUSH0 PUSH3 0x1F8 PUSH3 0x161 JUMP JUMPDEST SWAP1 POP PUSH3 0x206 DUP3 DUP3 PUSH3 0x1B7 JUMP JUMPDEST SWAP2 SWAP1 POP JUMP JUMPDEST PUSH0 PUSH8 0xFFFFFFFFFFFFFFFF DUP3 GT ISZERO PUSH3 0x228 JUMPI PUSH3 0x227 PUSH3 0x18A JUMP JUMPDEST JUMPDEST PUSH3 0x233 DUP3 PUSH3 0x17A JUMP JUMPDEST SWAP1 POP PUSH1 0x20 DUP2 ADD SWAP1 POP SWAP2 SWAP1 POP JUMP JUMPDEST PUSH0 JUMPDEST DUP4 DUP2 LT ISZERO PUSH3 0x25F JUMPI DUP1 DUP3 ADD MLOAD DUP2 DUP5 ADD MSTORE PUSH1 0x20 DUP2 ADD SWAP1 POP PUSH3 0x242 JUMP JUMPDEST PUSH0 DUP5 DUP5 ADD MSTORE POP POP POP POP JUMP JUMPDEST PUSH0 PUSH3 0x280 PUSH3 0x27A DUP5 PUSH3 0x20B JUMP JUMPDEST PUSH3 0x1ED JUMP JUMPDEST SWAP1 POP DUP3 DUP2 MSTORE PUSH1 0x20 DUP2 ADD DUP5 DUP5 DUP5 ADD GT ISZERO PUSH3 0x29F JUMPI PUSH3 0x29E PUSH3 0x176 JUMP JUMPDEST JUMPDEST PUSH3 0x2AC DUP5 DUP3 DUP6 PUSH3 0x240 JUMP JUMPDEST POP SWAP4 SWAP3 POP POP POP JUMP JUMPDEST PUSH0 DUP3 PUSH1 0x1F DUP4 ADD SLT PUSH3 0x2CB JUMPI PUSH3 0x2CA PUSH3 0x172 JUMP JUMPDEST JUMPDEST DUP2 MLOAD PUSH3 0x2DD DUP5 DUP3 PUSH1 0x20 DUP7 ADD PUSH3 0x26A JUMP JUMPDEST SWAP2 POP POP SWAP3 SWAP2 POP POP JUMP JUMPDEST PUSH0 PUSH1 0x20 DUP3 DUP5 SUB SLT ISZERO PUSH3 0x2FE JUMPI PUSH3 0x2FD PUSH3 0x16A JUMP JUMPDEST JUMPDEST PUSH0 DUP3 ADD MLOAD PUSH8 0xFFFFFFFFFFFFFFFF DUP2 GT ISZERO PUSH3 0x31E JUMPI PUSH3 0x31D PUSH3 0x16E JUMP JUMPDEST JUMPDEST PUSH3 0x32C DUP5 DUP3 DUP6 ADD PUSH3 0x2B4 JUMP JUMPDEST SWAP2 POP POP SWAP3 SWAP2 POP POP JUMP JUMPDEST PUSH32 0x4D69206E6F6D6272652065733A20000000000000000000000000000000000000 DUP2 MSTORE POP JUMP JUMPDEST PUSH32 0x2000000000000000000000000000000000000000000000000000000000000000 DUP2 MSTORE POP JUMP JUMPDEST PUSH0 DUP2 MLOAD SWAP1 POP SWAP2 SWAP1 POP JUMP JUMPDEST PUSH0 DUP2 SWAP1 POP SWAP3 SWAP2 POP POP JUMP JUMPDEST PUSH0 PUSH3 0x3A1 DUP3 PUSH3 0x381 JUMP JUMPDEST PUSH3 0x3AD DUP2 DUP6 PUSH3 0x38B JUMP JUMPDEST SWAP4 POP PUSH3 0x3BF DUP2 DUP6 PUSH1 0x20 DUP7 ADD PUSH3 0x240 JUMP JUMPDEST DUP1 DUP5 ADD SWAP2 POP POP SWAP3 SWAP2 POP POP JUMP JUMPDEST PUSH0 PUSH3 0x3D7 DUP3 PUSH3 0x335 JUMP JUMPDEST PUSH1 0xE DUP3 ADD SWAP2 POP PUSH3 0x3E8 DUP3 PUSH3 0x35B JUMP JUMPDEST PUSH1 0x1 DUP3 ADD SWAP2 POP PUSH3 0x3FA DUP3 DUP5 PUSH3 0x395 JUMP JUMPDEST SWAP2 POP DUP2 SWAP1 POP SWAP3 SWAP2 POP POP JUMP JUMPDEST PUSH32 0x4E487B7100000000000000000000000000000000000000000000000000000000 PUSH0 MSTORE PUSH1 0x22 PUSH1 0x4 MSTORE PUSH1 0x24 PUSH0 REVERT JUMPDEST PUSH0 PUSH1 0x2 DUP3 DIV SWAP1 POP PUSH1 0x1 DUP3 AND DUP1 PUSH3 0x44A JUMPI PUSH1 0x7F DUP3 AND SWAP2 POP JUMPDEST PUSH1 0x20 DUP3 LT DUP2 SUB PUSH3 0x460 JUMPI PUSH3 0x45F PUSH3 0x405 JUMP JUMPDEST JUMPDEST POP SWAP2 SWAP1 POP JUMP JUMPDEST PUSH0 DUP2 SWAP1 POP DUP2 PUSH0 MSTORE PUSH1 0x20 PUSH0 KECCAK256 SWAP1 POP SWAP2 SWAP1 POP JUMP JUMPDEST PUSH0 PUSH1 0x20 PUSH1 0x1F DUP4 ADD DIV SWAP1 POP SWAP2 SWAP1 POP JUMP JUMPDEST PUSH0 DUP3 DUP3 SHL SWAP1 POP SWAP3 SWAP2 POP POP JUMP JUMPDEST PUSH0 PUSH1 0x8 DUP4 MUL PUSH3 0x4C4 PUSH32 0xFFFFFFFFFFFFFFFFFFFFFFFFFFFFFFFFFFFFFFFFFFFFFFFFFFFFFFFFFFFFFFFF DUP3 PUSH3 0x487 JUMP JUMPDEST PUSH3 0x4D0 DUP7 DUP4 PUSH3 0x487 JUMP JUMPDEST SWAP6 POP DUP1 NOT DUP5 AND SWAP4 POP DUP1 DUP7 AND DUP5 OR SWAP3 POP POP POP SWAP4 SWAP3 POP POP POP JUMP JUMPDEST PUSH0 DUP2 SWAP1 POP SWAP2 SWAP1 POP JUMP JUMPDEST PUSH0 DUP2 SWAP1 POP SWAP2 SWAP1 POP JUMP JUMPDEST PUSH0 PUSH3 0x51A PUSH3 0x514 PUSH3 0x50E DUP5 PUSH3 0x4E8 JUMP JUMPDEST PUSH3 0x4F1 JUMP JUMPDEST PUSH3 0x4E8 JUMP JUMPDEST SWAP1 POP SWAP2 SWAP1 POP JUMP JUMPDEST PUSH0 DUP2 SWAP1 POP SWAP2 SWAP1 POP JUMP JUMPDEST PUSH3 0x535 DUP4 PUSH3 0x4FA JUMP JUMPDEST PUSH3 0x54D PUSH3 0x544 DUP3 PUSH3 0x521 JUMP JUMPDEST DUP5 DUP5 SLOAD PUSH3 0x493 JUMP JUMPDEST DUP3 SSTORE POP POP POP POP JUMP JUMPDEST PUSH0 SWAP1 JUMP JUMPDEST PUSH3 0x563 PUSH3 0x555 JUMP JUMPDEST PUSH3 0x570 DUP2 DUP5 DUP5 PUSH3 0x52A JUMP JUMPDEST POP POP POP JUMP JUMPDEST JUMPDEST DUP2 DUP2 LT ISZERO PUSH3 0x597 JUMPI PUSH3 0x58B PUSH0 DUP3 PUSH3 0x559 JUMP JUMPDEST PUSH1 0x1 DUP2 ADD SWAP1 POP PUSH3 0x576 JUMP JUMPDEST POP POP JUMP JUMPDEST PUSH1 0x1F DUP3 GT ISZERO PUSH3 0x5E6 JUMPI PUSH3 0x5B0 DUP2 PUSH3 0x466 JUMP JUMPDEST PUSH3 0x5BB DUP5 PUSH3 0x478 JUMP JUMPDEST DUP2 ADD PUSH1 0x20 DUP6 LT ISZERO PUSH3 0x5CB JUMPI DUP2 SWAP1 POP JUMPDEST PUSH3 0x5E3 PUSH3 0x5DA DUP6 PUSH3 0x478 JUMP JUMPDEST DUP4 ADD DUP3 PUSH3 0x575 JUMP JUMPDEST POP POP JUMPDEST POP POP POP JUMP JUMPDEST PUSH0 DUP3 DUP3 SHR SWAP1 POP SWAP3 SWAP2 POP POP JUMP JUMPDEST PUSH0 PUSH3 0x608 PUSH0 NOT DUP5 PUSH1 0x8 MUL PUSH3 0x5EB JUMP JUMPDEST NOT DUP1 DUP4 AND SWAP2 POP POP SWAP3 SWAP2 POP POP JUMP JUMPDEST PUSH0 PUSH3 0x622 DUP4 DUP4 PUSH3 0x5F7 JUMP JUMPDEST SWAP2 POP DUP3 PUSH1 0x2 MUL DUP3 OR SWAP1 POP SWAP3 SWAP2 POP POP JUMP JUMPDEST PUSH3 0x63D DUP3 PUSH3 0x381 JUMP JUMPDEST PUSH8 0xFFFFFFFFFFFFFFFF DUP2 GT ISZERO PUSH3 0x659 JUMPI PUSH3 0x658 PUSH3 0x18A JUMP JUMPDEST JUMPDEST PUSH3 0x665 DUP3 SLOAD PUSH3 0x432 JUMP JUMPDEST PUSH3 0x672 DUP3 DUP3 DUP6 PUSH3 0x59B JUMP JUMPDEST PUSH0 PUSH1 0x20 SWAP1 POP PUSH1 0x1F DUP4 GT PUSH1 0x1 DUP2 EQ PUSH3 0x6A8 JUMPI PUSH0 DUP5 ISZERO PUSH3 0x693 JUMPI DUP3 DUP8 ADD MLOAD SWAP1 POP JUMPDEST PUSH3 0x69F DUP6 DUP3 PUSH3 0x615 JUMP JUMPDEST DUP7 SSTORE POP PUSH3 0x70E JUMP JUMPDEST PUSH1 0x1F NOT DUP5 AND PUSH3 0x6B8 DUP7 PUSH3 0x466 JUMP JUMPDEST PUSH0 JUMPDEST DUP3 DUP2 LT ISZERO PUSH3 0x6E1 JUMPI DUP5 DUP10 ADD MLOAD DUP3 SSTORE PUSH1 0x1 DUP3 ADD SWAP2 POP PUSH1 0x20 DUP6 ADD SWAP5 POP PUSH1 0x20 DUP2 ADD SWAP1 POP PUSH3 0x6BA JUMP JUMPDEST DUP7 DUP4 LT ISZERO PUSH3 0x701 JUMPI DUP5 DUP10 ADD MLOAD PUSH3 0x6FD PUSH1 0x1F DUP10 AND DUP3 PUSH3 0x5F7 JUMP JUMPDEST DUP4 SSTORE POP JUMPDEST PUSH1 0x1 PUSH1 0x2 DUP9 MUL ADD DUP9 SSTORE POP POP POP JUMPDEST POP POP POP POP POP POP JUMP JUMPDEST PUSH2 0x4FB DUP1 PUSH3 0x724 PUSH0 CODECOPY PUSH0 RETURN INVALID PUSH1 0x80 PUSH1 0x40 MSTORE CALLVALUE DUP1 ISZERO PUSH2 0xF JUMPI PUSH0 DUP1 REVERT JUMPDEST POP PUSH1 0x4 CALLDATASIZE LT PUSH2 0x7B JUMPI PUSH0 CALLDATALOAD PUSH1 0xE0 SHR DUP1 PUSH4 0xCE410D53 GT PUSH2 0x59 JUMPI DUP1 PUSH4 0xCE410D53 EQ PUSH2 0xD9 JUMPI DUP1 PUSH4 0xDF77A62E EQ PUSH2 0xF7 JUMPI DUP1 PUSH4 0xF7AE9171 EQ PUSH2 0x115 JUMPI DUP1 PUSH4 0xF950FC6D EQ PUSH2 0x133 JUMPI PUSH2 0x7B JUMP JUMPDEST DUP1 PUSH4 0xBCD3B33 EQ PUSH2 0x7F JUMPI DUP1 PUSH4 0x17D7DE7C EQ PUSH2 0x9D JUMPI DUP1 PUSH4 0xCC6B3A6F EQ PUSH2 0xBB JUMPI JUMPDEST PUSH0 DUP1 REVERT JUMPDEST PUSH2 0x87 PUSH2 0x151 JUMP JUMPDEST PUSH1 0x40 MLOAD PUSH2 0x94 SWAP2 SWAP1 PUSH2 0x284 JUMP JUMPDEST PUSH1 0x40 MLOAD DUP1 SWAP2 SUB SWAP1 RETURN JUMPDEST PUSH2 0xA5 PUSH2 0x167 JUMP JUMPDEST PUSH1 0x40 MLOAD PUSH2 0xB2 SWAP2 SWAP1 PUSH2 0x327 JUMP JUMPDEST PUSH1 0x40 MLOAD DUP1 SWAP2 SUB SWAP1 RETURN JUMPDEST PUSH2 0xC3 PUSH2 0x1F6 JUMP JUMPDEST PUSH1 0x40 MLOAD PUSH2 0xD0 SWAP2 SWAP1 PUSH2 0x386 JUMP JUMPDEST PUSH1 0x40 MLOAD DUP1 SWAP2 SUB SWAP1 RETURN JUMPDEST PUSH2 0xE1 PUSH2 0x21B JUMP JUMPDEST PUSH1 0x40 MLOAD PUSH2 0xEE SWAP2 SWAP1 PUSH2 0x3B7 JUMP JUMPDEST PUSH1 0x40 MLOAD DUP1 SWAP2 SUB SWAP1 RETURN JUMPDEST PUSH2 0xFF PUSH2 0x221 JUMP JUMPDEST PUSH1 0x40 MLOAD PUSH2 0x10C SWAP2 SWAP1 PUSH2 0x3EA JUMP JUMPDEST PUSH1 0x40 MLOAD DUP1 SWAP2 SUB SWAP1 RETURN JUMPDEST PUSH2 0x11D PUSH2 0x232 JUMP JUMPDEST PUSH1 0x40 MLOAD PUSH2 0x12A SWAP2 SWAP1 PUSH2 0x41B JUMP JUMPDEST PUSH1 0x40 MLOAD DUP1 SWAP2 SUB SWAP1 RETURN JUMPDEST PUSH2 0x13B PUSH2 0x238 JUMP JUMPDEST PUSH1 0x40 MLOAD PUSH2 0x148 SWAP2 SWAP1 PUSH2 0x44F JUMP JUMPDEST PUSH1 0x40 MLOAD DUP1 SWAP2 SUB SWAP1 RETURN JUMPDEST PUSH0 PUSH1 0x5 PUSH1 0x16 SWAP1 SLOAD SWAP1 PUSH2 0x100 EXP SWAP1 DIV PUSH1 0xF8 SHL SWAP1 POP SWAP1 JUMP JUMPDEST PUSH1 0x60 PUSH0 DUP1 SLOAD PUSH2 0x175 SWAP1 PUSH2 0x495 JUMP JUMPDEST DUP1 PUSH1 0x1F ADD PUSH1 0x20 DUP1 SWAP2 DIV MUL PUSH1 0x20 ADD PUSH1 0x40 MLOAD SWAP1 DUP2 ADD PUSH1 0x40 MSTORE DUP1 SWAP3 SWAP2 SWAP1 DUP2 DUP2 MSTORE PUSH1 0x20 ADD DUP3 DUP1 SLOAD PUSH2 0x1A1 SWAP1 PUSH2 0x495 JUMP JUMPDEST DUP1 ISZERO PUSH2 0x1EC JUMPI DUP1 PUSH1 0x1F LT PUSH2 0x1C3 JUMPI PUSH2 0x100 DUP1 DUP4 SLOAD DIV MUL DUP4 MSTORE SWAP2 PUSH1 0x20 ADD SWAP2 PUSH2 0x1EC JUMP JUMPDEST DUP3 ADD SWAP2 SWAP1 PUSH0 MSTORE PUSH1 0x20 PUSH0 KECCAK256 SWAP1 JUMPDEST DUP2 SLOAD DUP2 MSTORE SWAP1 PUSH1 0x1 ADD SWAP1 PUSH1 0x20 ADD DUP1 DUP4 GT PUSH2 0x1CF JUMPI DUP3 SWAP1 SUB PUSH1 0x1F AND DUP3 ADD SWAP2 JUMPDEST POP POP POP POP POP SWAP1 POP SWAP1 JUMP JUMPDEST PUSH1 0x5 PUSH0 SWAP1 SLOAD SWAP1 PUSH2 0x100 EXP SWAP1 DIV PUSH20 0xFFFFFFFFFFFFFFFFFFFFFFFFFFFFFFFFFFFFFFFF AND DUP2 JUMP JUMPDEST PUSH1 0x2 SLOAD DUP2 JUMP JUMPDEST PUSH1 0x3 PUSH0 SWAP1 SLOAD SWAP1 PUSH2 0x100 EXP SWAP1 DIV PUSH0 SIGNEXTEND DUP2 JUMP JUMPDEST PUSH1 0x4 SLOAD DUP2 JUMP JUMPDEST PUSH1 0x1 PUSH0 SWAP1 SLOAD SWAP1 PUSH2 0x100 EXP SWAP1 DIV PUSH1 0xFF AND DUP2 JUMP JUMPDEST PUSH0 PUSH32 0xFF00000000000000000000000000000000000000000000000000000000000000 DUP3 AND SWAP1 POP SWAP2 SWAP1 POP JUMP JUMPDEST PUSH2 0x27E DUP2 PUSH2 0x24A JUMP JUMPDEST DUP3 MSTORE POP POP JUMP JUMPDEST PUSH0 PUSH1 0x20 DUP3 ADD SWAP1 POP PUSH2 0x297 PUSH0 DUP4 ADD DUP5 PUSH2 0x275 JUMP JUMPDEST SWAP3 SWAP2 POP POP JUMP JUMPDEST PUSH0 DUP2 MLOAD SWAP1 POP SWAP2 SWAP1 POP JUMP JUMPDEST PUSH0 DUP3 DUP3 MSTORE PUSH1 0x20 DUP3 ADD SWAP1 POP SWAP3 SWAP2 POP POP JUMP JUMPDEST PUSH0 JUMPDEST DUP4 DUP2 LT ISZERO PUSH2 0x2D4 JUMPI DUP1 DUP3 ADD MLOAD DUP2 DUP5 ADD MSTORE PUSH1 0x20 DUP2 ADD SWAP1 POP PUSH2 0x2B9 JUMP JUMPDEST PUSH0 DUP5 DUP5 ADD MSTORE POP POP POP POP JUMP JUMPDEST PUSH0 PUSH1 0x1F NOT PUSH1 0x1F DUP4 ADD AND SWAP1 POP SWAP2 SWAP1 POP JUMP JUMPDEST PUSH0 PUSH2 0x2F9 DUP3 PUSH2 0x29D JUMP JUMPDEST PUSH2 0x303 DUP2 DUP6 PUSH2 0x2A7 JUMP JUMPDEST SWAP4 POP PUSH2 0x313 DUP2 DUP6 PUSH1 0x20 DUP7 ADD PUSH2 0x2B7 JUMP JUMPDEST PUSH2 0x31C DUP2 PUSH2 0x2DF JUMP JUMPDEST DUP5 ADD SWAP2 POP POP SWAP3 SWAP2 POP POP JUMP JUMPDEST PUSH0 PUSH1 0x20 DUP3 ADD SWAP1 POP DUP2 DUP2 SUB PUSH0 DUP4 ADD MSTORE PUSH2 0x33F DUP2 DUP5 PUSH2 0x2EF JUMP JUMPDEST SWAP1 POP SWAP3 SWAP2 POP POP JUMP JUMPDEST PUSH0 PUSH20 0xFFFFFFFFFFFFFFFFFFFFFFFFFFFFFFFFFFFFFFFF DUP3 AND SWAP1 POP SWAP2 SWAP1 POP JUMP JUMPDEST PUSH0 PUSH2 0x370 DUP3 PUSH2 0x347 JUMP JUMPDEST SWAP1 POP SWAP2 SWAP1 POP JUMP JUMPDEST PUSH2 0x380 DUP2 PUSH2 0x366 JUMP JUMPDEST DUP3 MSTORE POP POP JUMP JUMPDEST PUSH0 PUSH1 0x20 DUP3 ADD SWAP1 POP PUSH2 0x399 PUSH0 DUP4 ADD DUP5 PUSH2 0x377 JUMP JUMPDEST SWAP3 SWAP2 POP POP JUMP JUMPDEST PUSH0 DUP2 SWAP1 POP SWAP2 SWAP1 POP JUMP JUMPDEST PUSH2 0x3B1 DUP2 PUSH2 0x39F JUMP JUMPDEST DUP3 MSTORE POP POP JUMP JUMPDEST PUSH0 PUSH1 0x20 DUP3 ADD SWAP1 POP PUSH2 0x3CA PUSH0 DUP4 ADD DUP5 PUSH2 0x3A8 JUMP JUMPDEST SWAP3 SWAP2 POP POP JUMP JUMPDEST PUSH0 DUP2 PUSH0 SIGNEXTEND SWAP1 POP SWAP2 SWAP1 POP JUMP JUMPDEST PUSH2 0x3E4 DUP2 PUSH2 0x3D0 JUMP JUMPDEST DUP3 MSTORE POP POP JUMP JUMPDEST PUSH0 PUSH1 0x20 DUP3 ADD SWAP1 POP PUSH2 0x3FD PUSH0 DUP4 ADD DUP5 PUSH2 0x3DB JUMP JUMPDEST SWAP3 SWAP2 POP POP JUMP JUMPDEST PUSH0 DUP2 SWAP1 POP SWAP2 SWAP1 POP JUMP JUMPDEST PUSH2 0x415 DUP2 PUSH2 0x403 JUMP JUMPDEST DUP3 MSTORE POP POP JUMP JUMPDEST PUSH0 PUSH1 0x20 DUP3 ADD SWAP1 POP PUSH2 0x42E PUSH0 DUP4 ADD DUP5 PUSH2 0x40C JUMP JUMPDEST SWAP3 SWAP2 POP POP JUMP JUMPDEST PUSH0 PUSH1 0xFF DUP3 AND SWAP1 POP SWAP2 SWAP1 POP JUMP JUMPDEST PUSH2 0x449 DUP2 PUSH2 0x434 JUMP JUMPDEST DUP3 MSTORE POP POP JUMP JUMPDEST PUSH0 PUSH1 0x20 DUP3 ADD SWAP1 POP PUSH2 0x462 PUSH0 DUP4 ADD DUP5 PUSH2 0x440 JUMP JUMPDEST SWAP3 SWAP2 POP POP JUMP JUMPDEST PUSH32 0x4E487B7100000000000000000000000000000000000000000000000000000000 PUSH0 MSTORE PUSH1 0x22 PUSH1 0x4 MSTORE PUSH1 0x24 PUSH0 REVERT JUMPDEST PUSH0 PUSH1 0x2 DUP3 DIV SWAP1 POP PUSH1 0x1 DUP3 AND DUP1 PUSH2 0x4AC JUMPI PUSH1 0x7F DUP3 AND SWAP2 POP JUMPDEST PUSH1 0x20 DUP3 LT DUP2 SUB PUSH2 0x4BF JUMPI PUSH2 0x4BE PUSH2 0x468 JUMP JUMPDEST JUMPDEST POP SWAP2 SWAP1 POP JUMP INVALID LOG2 PUSH5 0x6970667358 0x22 SLT KECCAK256 DUP9 0xC 0xAA PUSH14 0xB99A8AF29F209609896F7655A980 0xEE PUSH18 0x900DC5283111FB0CA008C7F364736F6C6343 STOP ADDMOD XOR STOP CALLER "
				},
				"gasEstimates": {
					"creation": {
						"codeDepositCost": "255000",
						"executionCost": "infinite",
						"totalCost": "infinite"
					},
					"external": {
						"address_ver()": "2553",
						"getBytes()": "2525",
						"getName()": "infinite",
						"int_256()": "2469",
						"int_8()": "2490",
						"uint_256()": "2425",
						"uint_8()": "2532"
					}
				},
				"methodIdentifiers": {
					"address_ver()": "cc6b3a6f",
					"getBytes()": "0bcd3b33",
					"getName()": "17d7de7c",
					"int_256()": "f7ae9171",
					"int_8()": "df77a62e",
					"uint_256()": "ce410d53",
					"uint_8()": "f950fc6d"
				}
			},
			"storageLayout": {
				"storage": [
					{
						"astId": 3,
						"contract": "variablesNativas.sol:variablesNativas",
						"label": "fullName",
						"offset": 0,
						"slot": "0",
						"type": "t_string_storage"
					},
					{
						"astId": 30,
						"contract": "variablesNativas.sol:variablesNativas",
						"label": "uint_8",
						"offset": 0,
						"slot": "1",
						"type": "t_uint8"
					},
					{
						"astId": 33,
						"contract": "variablesNativas.sol:variablesNativas",
						"label": "uint_256",
						"offset": 0,
						"slot": "2",
						"type": "t_uint256"
					},
					{
						"astId": 37,
						"contract": "variablesNativas.sol:variablesNativas",
						"label": "int_8",
						"offset": 0,
						"slot": "3",
						"type": "t_int8"
					},
					{
						"astId": 40,
						"contract": "variablesNativas.sol:variablesNativas",
						"label": "int_256",
						"offset": 0,
						"slot": "4",
						"type": "t_int256"
					},
					{
						"astId": 43,
						"contract": "variablesNativas.sol:variablesNativas",
						"label": "address_ver",
						"offset": 0,
						"slot": "5",
						"type": "t_address"
					},
					{
						"astId": 46,
						"contract": "variablesNativas.sol:variablesNativas",
						"label": "bytes_avar",
						"offset": 20,
						"slot": "5",
						"type": "t_bytes1"
					},
					{
						"astId": 49,
						"contract": "variablesNativas.sol:variablesNativas",
						"label": "bytes_avar2",
						"offset": 21,
						"slot": "5",
						"type": "t_bytes1"
					},
					{
						"astId": 51,
						"contract": "variablesNativas.sol:variablesNativas",
						"label": "bytes_C",
						"offset": 22,
						"slot": "5",
						"type": "t_bytes1"
					}
				],
				"types": {
					"t_address": {
						"encoding": "inplace",
						"label": "address",
						"numberOfBytes": "20"
					},
					"t_bytes1": {
						"encoding": "inplace",
						"label": "bytes1",
						"numberOfBytes": "1"
					},
					"t_int256": {
						"encoding": "inplace",
						"label": "int256",
						"numberOfBytes": "32"
					},
					"t_int8": {
						"encoding": "inplace",
						"label": "int8",
						"numberOfBytes": "1"
					},
					"t_string_storage": {
						"encoding": "bytes",
						"label": "string",
						"numberOfBytes": "32"
					},
					"t_uint256": {
						"encoding": "inplace",
						"label": "uint256",
						"numberOfBytes": "32"
					},
					"t_uint8": {
						"encoding": "inplace",
						"label": "uint8",
						"numberOfBytes": "1"
					}
				}
			},
			"userdoc": {
				"kind": "user",
				"methods": {},
				"version": 1
			}
		}
	}
}